{
	"contracts/FundMe.sol": {
		"FundMe": {
			"abi": [
				{
					"inputs": [],
					"stateMutability": "nonpayable",
					"type": "constructor"
				},
				{
					"inputs": [],
					"name": "NotOwner",
					"type": "error"
				},
				{
					"inputs": [],
					"name": "MINIMUM_USD",
					"outputs": [
						{
							"internalType": "uint256",
							"name": "",
							"type": "uint256"
						}
					],
					"stateMutability": "view",
					"type": "function"
				},
				{
					"inputs": [],
					"name": "fund",
					"outputs": [],
					"stateMutability": "payable",
					"type": "function"
				},
				{
					"inputs": [
						{
							"internalType": "uint256",
							"name": "",
							"type": "uint256"
						}
					],
					"name": "funders",
					"outputs": [
						{
							"internalType": "address",
							"name": "",
							"type": "address"
						}
					],
					"stateMutability": "view",
					"type": "function"
				},
				{
					"inputs": [
						{
							"internalType": "uint256",
							"name": "ethAmount",
							"type": "uint256"
						}
					],
					"name": "getConversionRate",
					"outputs": [
						{
							"internalType": "uint256",
							"name": "",
							"type": "uint256"
						}
					],
					"stateMutability": "view",
					"type": "function"
				},
				{
					"inputs": [],
					"name": "getPrice",
					"outputs": [
						{
							"internalType": "uint256",
							"name": "",
							"type": "uint256"
						}
					],
					"stateMutability": "view",
					"type": "function"
				},
				{
					"inputs": [],
					"name": "i_owner",
					"outputs": [
						{
							"internalType": "address",
							"name": "",
							"type": "address"
						}
					],
					"stateMutability": "view",
					"type": "function"
				},
				{
					"inputs": [],
					"name": "withdraw",
					"outputs": [],
					"stateMutability": "nonpayable",
					"type": "function"
				}
			],
			"devdoc": {
				"kind": "dev",
				"methods": {},
				"version": 1
			},
			"evm": {
				"assembly": "    /* \"contracts/FundMe.sol\":163:3192  contract FundMe {... */\n  mstore(0x40, 0xa0)\n    /* \"contracts/FundMe.sol\":539:674  constructor(){... */\n  callvalue\n  dup1\n  iszero\n  tag_1\n  jumpi\n  0x00\n  dup1\n  revert\ntag_1:\n  pop\n    /* \"contracts/FundMe.sol\":656:666  msg.sender */\n  caller\n    /* \"contracts/FundMe.sol\":646:666  i_owner = msg.sender */\n  0xffffffffffffffffffffffffffffffffffffffff\n  and\n  0x80\n  dup2\n  0xffffffffffffffffffffffffffffffffffffffff\n  and\n  0x60\n  shl\n  dup2\n  mstore\n  pop\n  pop\n    /* \"contracts/FundMe.sol\":163:3192  contract FundMe {... */\n  shr(0x60, mload(0x80))\n  codecopy(0x00, dataOffset(sub_0), dataSize(sub_0))\n  0x00\n  assignImmutable(\"0x7446b42d7fe1689ec32fc1ca65129d9f21f1979742315d34500a6886f6986bea\")\n  return(0x00, dataSize(sub_0))\nstop\n\nsub_0: assembly {\n        /* \"contracts/FundMe.sol\":163:3192  contract FundMe {... */\n      mstore(0x40, 0x80)\n      jumpi(tag_1, lt(calldatasize, 0x04))\n      shr(0xe0, calldataload(0x00))\n      dup1\n      0x98d5fdca\n      gt\n      tag_9\n      jumpi\n      dup1\n      0x98d5fdca\n      eq\n      tag_5\n      jumpi\n      dup1\n      0xb60d4288\n      eq\n      tag_6\n      jumpi\n      dup1\n      0xdba6335f\n      eq\n      tag_7\n      jumpi\n      dup1\n      0xdc0d3dff\n      eq\n      tag_8\n      jumpi\n      jump(tag_1)\n    tag_9:\n      dup1\n      0x3ccfd60b\n      eq\n      tag_2\n      jumpi\n      dup1\n      0x6b69a592\n      eq\n      tag_3\n      jumpi\n      dup1\n      0x6e5b6b28\n      eq\n      tag_4\n      jumpi\n    tag_1:\n      0x00\n      dup1\n      revert\n        /* \"contracts/FundMe.sol\":1684:2560  function withdraw() public onlyOwner {... */\n    tag_2:\n      callvalue\n      dup1\n      iszero\n      tag_10\n      jumpi\n      0x00\n      dup1\n      revert\n    tag_10:\n      pop\n      tag_11\n      tag_12\n      jump\t// in\n    tag_11:\n      stop\n        /* \"contracts/FundMe.sol\":295:342  uint256 public constant MINIMUM_USD = 50 * 1e18 */\n    tag_3:\n      callvalue\n      dup1\n      iszero\n      tag_13\n      jumpi\n      0x00\n      dup1\n      revert\n    tag_13:\n      pop\n      tag_14\n      tag_15\n      jump\t// in\n    tag_14:\n      mload(0x40)\n      tag_16\n      swap2\n      swap1\n      tag_17\n      jump\t// in\n    tag_16:\n      mload(0x40)\n      dup1\n      swap2\n      sub\n      swap1\n      return\n        /* \"contracts/FundMe.sol\":1396:1676  function getConversionRate(uint256 ethAmount) public view returns (uint256) {... */\n    tag_4:\n      callvalue\n      dup1\n      iszero\n      tag_18\n      jumpi\n      0x00\n      dup1\n      revert\n    tag_18:\n      pop\n      tag_19\n      0x04\n      dup1\n      calldatasize\n      sub\n      dup2\n      add\n      swap1\n      tag_20\n      swap2\n      swap1\n      tag_21\n      jump\t// in\n    tag_20:\n      tag_22\n      jump\t// in\n    tag_19:\n      mload(0x40)\n      tag_23\n      swap2\n      swap1\n      tag_17\n      jump\t// in\n    tag_23:\n      mload(0x40)\n      dup1\n      swap2\n      sub\n      swap1\n      return\n        /* \"contracts/FundMe.sol\":1113:1380  function getPrice() public view returns(uint256) {... */\n    tag_5:\n      callvalue\n      dup1\n      iszero\n      tag_24\n      jumpi\n      0x00\n      dup1\n      revert\n    tag_24:\n      pop\n      tag_25\n      tag_26\n      jump\t// in\n    tag_25:\n      mload(0x40)\n      tag_27\n      swap2\n      swap1\n      tag_17\n      jump\t// in\n    tag_27:\n      mload(0x40)\n      dup1\n      swap2\n      sub\n      swap1\n      return\n        /* \"contracts/FundMe.sol\":740:1069  function fund() public payable {... */\n    tag_6:\n      tag_28\n      tag_29\n      jump\t// in\n    tag_28:\n      stop\n        /* \"contracts/FundMe.sol\":498:530  address public immutable i_owner */\n    tag_7:\n      callvalue\n      dup1\n      iszero\n      tag_30\n      jumpi\n      0x00\n      dup1\n      revert\n    tag_30:\n      pop\n      tag_31\n      tag_32\n      jump\t// in\n    tag_31:\n      mload(0x40)\n      tag_33\n      swap2\n      swap1\n      tag_34\n      jump\t// in\n    tag_33:\n      mload(0x40)\n      dup1\n      swap2\n      sub\n      swap1\n      return\n        /* \"contracts/FundMe.sol\":351:375  address[] public funders */\n    tag_8:\n      callvalue\n      dup1\n      iszero\n      tag_35\n      jumpi\n      0x00\n      dup1\n      revert\n    tag_35:\n      pop\n      tag_36\n      0x04\n      dup1\n      calldatasize\n      sub\n      dup2\n      add\n      swap1\n      tag_37\n      swap2\n      swap1\n      tag_21\n      jump\t// in\n    tag_37:\n      tag_38\n      jump\t// in\n    tag_36:\n      mload(0x40)\n      tag_39\n      swap2\n      swap1\n      tag_34\n      jump\t// in\n    tag_39:\n      mload(0x40)\n      dup1\n      swap2\n      sub\n      swap1\n      return\n        /* \"contracts/FundMe.sol\":1684:2560  function withdraw() public onlyOwner {... */\n    tag_12:\n        /* \"contracts/FundMe.sol\":3118:3125  i_owner */\n      immutable(\"0x7446b42d7fe1689ec32fc1ca65129d9f21f1979742315d34500a6886f6986bea\")\n        /* \"contracts/FundMe.sol\":3104:3125  msg.sender != i_owner */\n      0xffffffffffffffffffffffffffffffffffffffff\n      and\n        /* \"contracts/FundMe.sol\":3104:3114  msg.sender */\n      caller\n        /* \"contracts/FundMe.sol\":3104:3125  msg.sender != i_owner */\n      0xffffffffffffffffffffffffffffffffffffffff\n      and\n      eq\n        /* \"contracts/FundMe.sol\":3101:3170  if(msg.sender != i_owner){... */\n      tag_41\n      jumpi\n        /* \"contracts/FundMe.sol\":3148:3158  NotOwner() */\n      mload(0x40)\n      0x30cd747100000000000000000000000000000000000000000000000000000000\n      dup2\n      mstore\n      0x04\n      add\n      mload(0x40)\n      dup1\n      swap2\n      sub\n      swap1\n      revert\n        /* \"contracts/FundMe.sol\":3101:3170  if(msg.sender != i_owner){... */\n    tag_41:\n        /* \"contracts/FundMe.sol\":1787:1788  0 */\n      0x00\n        /* \"contracts/FundMe.sol\":1773:1789  new address[](0) */\n      0xffffffffffffffff\n      dup2\n      gt\n      iszero\n      tag_43\n      jumpi\n      tag_44\n      tag_45\n      jump\t// in\n    tag_44:\n    tag_43:\n      mload(0x40)\n      swap1\n      dup1\n      dup3\n      mstore\n      dup1\n      0x20\n      mul\n      0x20\n      add\n      dup3\n      add\n      0x40\n      mstore\n      dup1\n      iszero\n      tag_46\n      jumpi\n      dup2\n      0x20\n      add\n      0x20\n      dup3\n      mul\n      dup1\n      calldatasize\n      dup4\n      calldatacopy\n      dup1\n      dup3\n      add\n      swap2\n      pop\n      pop\n      swap1\n      pop\n    tag_46:\n      pop\n        /* \"contracts/FundMe.sol\":1763:1770  funders */\n      0x00\n        /* \"contracts/FundMe.sol\":1763:1789  funders = new address[](0) */\n      swap1\n      dup1\n      mload\n      swap1\n      0x20\n      add\n      swap1\n      tag_47\n      swap3\n      swap2\n      swap1\n      tag_48\n      jump\t// in\n    tag_47:\n      pop\n        /* \"contracts/FundMe.sol\":2426:2442  bool callSuccess */\n      0x00\n        /* \"contracts/FundMe.sol\":2456:2466  msg.sender */\n      caller\n        /* \"contracts/FundMe.sol\":2448:2472  payable(msg.sender).call */\n      0xffffffffffffffffffffffffffffffffffffffff\n      and\n        /* \"contracts/FundMe.sol\":2480:2501  address(this).balance */\n      selfbalance\n        /* \"contracts/FundMe.sol\":2448:2506  payable(msg.sender).call{value: address(this).balance}(\"\") */\n      mload(0x40)\n      tag_49\n      swap1\n      tag_50\n      jump\t// in\n    tag_49:\n      0x00\n      mload(0x40)\n      dup1\n      dup4\n      sub\n      dup2\n      dup6\n      dup8\n      gas\n      call\n      swap3\n      pop\n      pop\n      pop\n      returndatasize\n      dup1\n      0x00\n      dup2\n      eq\n      tag_53\n      jumpi\n      mload(0x40)\n      swap2\n      pop\n      and(add(returndatasize, 0x3f), not(0x1f))\n      dup3\n      add\n      0x40\n      mstore\n      returndatasize\n      dup3\n      mstore\n      returndatasize\n      0x00\n      0x20\n      dup5\n      add\n      returndatacopy\n      jump(tag_52)\n    tag_53:\n      0x60\n      swap2\n      pop\n    tag_52:\n      pop\n        /* \"contracts/FundMe.sol\":2425:2506  (bool callSuccess, ) = payable(msg.sender).call{value: address(this).balance}(\"\") */\n      pop\n      swap1\n      pop\n        /* \"contracts/FundMe.sol\":2525:2536  callSuccess */\n      dup1\n        /* \"contracts/FundMe.sol\":2517:2552  require(callSuccess, \"Send failed\") */\n      tag_54\n      jumpi\n      mload(0x40)\n      0x08c379a000000000000000000000000000000000000000000000000000000000\n      dup2\n      mstore\n      0x04\n      add\n      tag_55\n      swap1\n      tag_56\n      jump\t// in\n    tag_55:\n      mload(0x40)\n      dup1\n      swap2\n      sub\n      swap1\n      revert\n    tag_54:\n        /* \"contracts/FundMe.sol\":1721:2560  {... */\n      pop\n        /* \"contracts/FundMe.sol\":1684:2560  function withdraw() public onlyOwner {... */\n      jump\t// out\n        /* \"contracts/FundMe.sol\":295:342  uint256 public constant MINIMUM_USD = 50 * 1e18 */\n    tag_15:\n        /* \"contracts/FundMe.sol\":333:342  50 * 1e18 */\n      0x02b5e3af16b1880000\n        /* \"contracts/FundMe.sol\":295:342  uint256 public constant MINIMUM_USD = 50 * 1e18 */\n      dup2\n      jump\t// out\n        /* \"contracts/FundMe.sol\":1396:1676  function getConversionRate(uint256 ethAmount) public view returns (uint256) {... */\n    tag_22:\n        /* \"contracts/FundMe.sol\":1463:1470  uint256 */\n      0x00\n        /* \"contracts/FundMe.sol\":1483:1499  uint256 ethPrice */\n      dup1\n        /* \"contracts/FundMe.sol\":1502:1512  getPrice() */\n      tag_58\n        /* \"contracts/FundMe.sol\":1502:1510  getPrice */\n      tag_26\n        /* \"contracts/FundMe.sol\":1502:1512  getPrice() */\n      jump\t// in\n    tag_58:\n        /* \"contracts/FundMe.sol\":1483:1512  uint256 ethPrice = getPrice() */\n      swap1\n      pop\n        /* \"contracts/FundMe.sol\":1580:1602  uint256 ethAmountInUsd */\n      0x00\n        /* \"contracts/FundMe.sol\":1630:1634  1e18 */\n      0x0de0b6b3a7640000\n        /* \"contracts/FundMe.sol\":1617:1626  ethAmount */\n      dup5\n        /* \"contracts/FundMe.sol\":1606:1614  ethPrice */\n      dup4\n        /* \"contracts/FundMe.sol\":1606:1626  ethPrice * ethAmount */\n      tag_59\n      swap2\n      swap1\n      tag_60\n      jump\t// in\n    tag_59:\n        /* \"contracts/FundMe.sol\":1605:1634  (ethPrice * ethAmount) / 1e18 */\n      tag_61\n      swap2\n      swap1\n      tag_62\n      jump\t// in\n    tag_61:\n        /* \"contracts/FundMe.sol\":1580:1634  uint256 ethAmountInUsd = (ethPrice * ethAmount) / 1e18 */\n      swap1\n      pop\n        /* \"contracts/FundMe.sol\":1654:1668  ethAmountInUsd */\n      dup1\n        /* \"contracts/FundMe.sol\":1647:1668  return ethAmountInUsd */\n      swap3\n      pop\n      pop\n      pop\n        /* \"contracts/FundMe.sol\":1396:1676  function getConversionRate(uint256 ethAmount) public view returns (uint256) {... */\n      swap2\n      swap1\n      pop\n      jump\t// out\n        /* \"contracts/FundMe.sol\":1113:1380  function getPrice() public view returns(uint256) {... */\n    tag_26:\n        /* \"contracts/FundMe.sol\":1153:1160  uint256 */\n      0x00\n        /* \"contracts/FundMe.sol\":1173:1204  AggregatorV3Interface priceFeed */\n      dup1\n        /* \"contracts/FundMe.sol\":1229:1271  0x8A753747A1Fa494EC906cE90E9f37563A8AF630e */\n      0x8a753747a1fa494ec906ce90e9f37563a8af630e\n        /* \"contracts/FundMe.sol\":1173:1272  AggregatorV3Interface priceFeed = AggregatorV3Interface(0x8A753747A1Fa494EC906cE90E9f37563A8AF630e) */\n      swap1\n      pop\n        /* \"contracts/FundMe.sol\":1285:1297  int256 price */\n      0x00\n        /* \"contracts/FundMe.sol\":1304:1313  priceFeed */\n      dup2\n        /* \"contracts/FundMe.sol\":1304:1329  priceFeed.latestRoundData */\n      0xffffffffffffffffffffffffffffffffffffffff\n      and\n      0xfeaf968c\n        /* \"contracts/FundMe.sol\":1304:1331  priceFeed.latestRoundData() */\n      mload(0x40)\n      dup2\n      0xffffffff\n      and\n      0xe0\n      shl\n      dup2\n      mstore\n      0x04\n      add\n      0xa0\n      mload(0x40)\n      dup1\n      dup4\n      sub\n      dup2\n      dup7\n      dup1\n      extcodesize\n      iszero\n      dup1\n      iszero\n      tag_64\n      jumpi\n      0x00\n      dup1\n      revert\n    tag_64:\n      pop\n      gas\n      staticcall\n      iszero\n      dup1\n      iszero\n      tag_66\n      jumpi\n      returndatasize\n      0x00\n      dup1\n      returndatacopy\n      revert(0x00, returndatasize)\n    tag_66:\n      pop\n      pop\n      pop\n      pop\n      mload(0x40)\n      returndatasize\n      not(0x1f)\n      0x1f\n      dup3\n      add\n      and\n      dup3\n      add\n      dup1\n      0x40\n      mstore\n      pop\n      dup2\n      add\n      swap1\n      tag_67\n      swap2\n      swap1\n      tag_68\n      jump\t// in\n    tag_67:\n        /* \"contracts/FundMe.sol\":1283:1331  (,int256 price,,,) = priceFeed.latestRoundData() */\n      pop\n      pop\n      pop\n      swap2\n      pop\n      pop\n        /* \"contracts/FundMe.sol\":1367:1371  1e10 */\n      0x02540be400\n        /* \"contracts/FundMe.sol\":1359:1364  price */\n      dup2\n        /* \"contracts/FundMe.sol\":1359:1371  price * 1e10 */\n      tag_69\n      swap2\n      swap1\n      tag_70\n      jump\t// in\n    tag_69:\n        /* \"contracts/FundMe.sol\":1344:1372  return uint256(price * 1e10) */\n      swap3\n      pop\n      pop\n      pop\n        /* \"contracts/FundMe.sol\":1113:1380  function getPrice() public view returns(uint256) {... */\n      swap1\n      jump\t// out\n        /* \"contracts/FundMe.sol\":740:1069  function fund() public payable {... */\n    tag_29:\n        /* \"contracts/FundMe.sol\":333:342  50 * 1e18 */\n      0x02b5e3af16b1880000\n        /* \"contracts/FundMe.sol\":960:988  getConversionRate(msg.value) */\n      tag_72\n        /* \"contracts/FundMe.sol\":978:987  msg.value */\n      callvalue\n        /* \"contracts/FundMe.sol\":960:977  getConversionRate */\n      tag_22\n        /* \"contracts/FundMe.sol\":960:988  getConversionRate(msg.value) */\n      jump\t// in\n    tag_72:\n        /* \"contracts/FundMe.sol\":960:1003  getConversionRate(msg.value) >= MINIMUM_USD */\n      lt\n      iszero\n        /* \"contracts/FundMe.sol\":952:1026  require(getConversionRate(msg.value) >= MINIMUM_USD, \"Didn't send enough\") */\n      tag_73\n      jumpi\n      mload(0x40)\n      0x08c379a000000000000000000000000000000000000000000000000000000000\n      dup2\n      mstore\n      0x04\n      add\n      tag_74\n      swap1\n      tag_75\n      jump\t// in\n    tag_74:\n      mload(0x40)\n      dup1\n      swap2\n      sub\n      swap1\n      revert\n    tag_73:\n        /* \"contracts/FundMe.sol\":1037:1044  funders */\n      0x00\n        /* \"contracts/FundMe.sol\":1050:1060  msg.sender */\n      caller\n        /* \"contracts/FundMe.sol\":1037:1061  funders.push(msg.sender) */\n      swap1\n      dup1\n      0x01\n      dup2\n      sload\n      add\n      dup1\n      dup3\n      sstore\n      dup1\n      swap2\n      pop\n      pop\n      0x01\n      swap1\n      sub\n      swap1\n      0x00\n      mstore\n      keccak256(0x00, 0x20)\n      add\n      0x00\n      swap1\n      swap2\n      swap1\n      swap2\n      swap1\n      swap2\n      0x0100\n      exp\n      dup2\n      sload\n      dup2\n      0xffffffffffffffffffffffffffffffffffffffff\n      mul\n      not\n      and\n      swap1\n      dup4\n      0xffffffffffffffffffffffffffffffffffffffff\n      and\n      mul\n      or\n      swap1\n      sstore\n      pop\n        /* \"contracts/FundMe.sol\":740:1069  function fund() public payable {... */\n      jump\t// out\n        /* \"contracts/FundMe.sol\":498:530  address public immutable i_owner */\n    tag_32:\n      immutable(\"0x7446b42d7fe1689ec32fc1ca65129d9f21f1979742315d34500a6886f6986bea\")\n      dup2\n      jump\t// out\n        /* \"contracts/FundMe.sol\":351:375  address[] public funders */\n    tag_38:\n      0x00\n      dup2\n      dup2\n      sload\n      dup2\n      lt\n      tag_77\n      jumpi\n      0x00\n      dup1\n      revert\n    tag_77:\n      swap1\n      0x00\n      mstore\n      keccak256(0x00, 0x20)\n      add\n      0x00\n      swap2\n      pop\n      sload\n      swap1\n      0x0100\n      exp\n      swap1\n      div\n      0xffffffffffffffffffffffffffffffffffffffff\n      and\n      dup2\n      jump\t// out\n    tag_48:\n      dup3\n      dup1\n      sload\n      dup3\n      dup3\n      sstore\n      swap1\n      0x00\n      mstore\n      keccak256(0x00, 0x20)\n      swap1\n      dup2\n      add\n      swap3\n      dup3\n      iszero\n      tag_79\n      jumpi\n      swap2\n      0x20\n      mul\n      dup3\n      add\n    tag_80:\n      dup3\n      dup2\n      gt\n      iszero\n      tag_81\n      jumpi\n      dup3\n      mload\n      dup3\n      exp(0x0100, 0x00)\n      dup2\n      sload\n      dup2\n      0xffffffffffffffffffffffffffffffffffffffff\n      mul\n      not\n      and\n      swap1\n      dup4\n      0xffffffffffffffffffffffffffffffffffffffff\n      and\n      mul\n      or\n      swap1\n      sstore\n      pop\n      swap2\n      0x20\n      add\n      swap2\n      swap1\n      0x01\n      add\n      swap1\n      jump(tag_80)\n    tag_81:\n    tag_79:\n      pop\n      swap1\n      pop\n      tag_82\n      swap2\n      swap1\n      tag_83\n      jump\t// in\n    tag_82:\n      pop\n      swap1\n      jump\t// out\n    tag_83:\n    tag_84:\n      dup1\n      dup3\n      gt\n      iszero\n      tag_85\n      jumpi\n      0x00\n      dup2\n      0x00\n      swap1\n      sstore\n      pop\n      0x01\n      add\n      jump(tag_84)\n    tag_85:\n      pop\n      swap1\n      jump\t// out\n        /* \"#utility.yul\":7:84   */\n    tag_86:\n        /* \"#utility.yul\":44:51   */\n      0x00\n        /* \"#utility.yul\":73:78   */\n      dup2\n        /* \"#utility.yul\":62:78   */\n      swap1\n      pop\n        /* \"#utility.yul\":7:84   */\n      swap2\n      swap1\n      pop\n      jump\t// out\n        /* \"#utility.yul\":90:208   */\n    tag_87:\n        /* \"#utility.yul\":177:201   */\n      tag_116\n        /* \"#utility.yul\":195:200   */\n      dup2\n        /* \"#utility.yul\":177:201   */\n      tag_86\n      jump\t// in\n    tag_116:\n        /* \"#utility.yul\":172:175   */\n      dup3\n        /* \"#utility.yul\":165:202   */\n      mstore\n        /* \"#utility.yul\":90:208   */\n      pop\n      pop\n      jump\t// out\n        /* \"#utility.yul\":214:436   */\n    tag_17:\n        /* \"#utility.yul\":307:311   */\n      0x00\n        /* \"#utility.yul\":345:347   */\n      0x20\n        /* \"#utility.yul\":334:343   */\n      dup3\n        /* \"#utility.yul\":330:348   */\n      add\n        /* \"#utility.yul\":322:348   */\n      swap1\n      pop\n        /* \"#utility.yul\":358:429   */\n      tag_118\n        /* \"#utility.yul\":426:427   */\n      0x00\n        /* \"#utility.yul\":415:424   */\n      dup4\n        /* \"#utility.yul\":411:428   */\n      add\n        /* \"#utility.yul\":402:408   */\n      dup5\n        /* \"#utility.yul\":358:429   */\n      tag_87\n      jump\t// in\n    tag_118:\n        /* \"#utility.yul\":214:436   */\n      swap3\n      swap2\n      pop\n      pop\n      jump\t// out\n        /* \"#utility.yul\":523:640   */\n    tag_89:\n        /* \"#utility.yul\":632:633   */\n      0x00\n        /* \"#utility.yul\":629:630   */\n      dup1\n        /* \"#utility.yul\":622:634   */\n      revert\n        /* \"#utility.yul\":769:891   */\n    tag_91:\n        /* \"#utility.yul\":842:866   */\n      tag_123\n        /* \"#utility.yul\":860:865   */\n      dup2\n        /* \"#utility.yul\":842:866   */\n      tag_86\n      jump\t// in\n    tag_123:\n        /* \"#utility.yul\":835:840   */\n      dup2\n        /* \"#utility.yul\":832:867   */\n      eq\n        /* \"#utility.yul\":822:885   */\n      tag_124\n      jumpi\n        /* \"#utility.yul\":881:882   */\n      0x00\n        /* \"#utility.yul\":878:879   */\n      dup1\n        /* \"#utility.yul\":871:883   */\n      revert\n        /* \"#utility.yul\":822:885   */\n    tag_124:\n        /* \"#utility.yul\":769:891   */\n      pop\n      jump\t// out\n        /* \"#utility.yul\":897:1036   */\n    tag_92:\n        /* \"#utility.yul\":943:948   */\n      0x00\n        /* \"#utility.yul\":981:987   */\n      dup2\n        /* \"#utility.yul\":968:988   */\n      calldataload\n        /* \"#utility.yul\":959:988   */\n      swap1\n      pop\n        /* \"#utility.yul\":997:1030   */\n      tag_126\n        /* \"#utility.yul\":1024:1029   */\n      dup2\n        /* \"#utility.yul\":997:1030   */\n      tag_91\n      jump\t// in\n    tag_126:\n        /* \"#utility.yul\":897:1036   */\n      swap3\n      swap2\n      pop\n      pop\n      jump\t// out\n        /* \"#utility.yul\":1042:1371   */\n    tag_21:\n        /* \"#utility.yul\":1101:1107   */\n      0x00\n        /* \"#utility.yul\":1150:1152   */\n      0x20\n        /* \"#utility.yul\":1138:1147   */\n      dup3\n        /* \"#utility.yul\":1129:1136   */\n      dup5\n        /* \"#utility.yul\":1125:1148   */\n      sub\n        /* \"#utility.yul\":1121:1153   */\n      slt\n        /* \"#utility.yul\":1118:1237   */\n      iszero\n      tag_128\n      jumpi\n        /* \"#utility.yul\":1156:1235   */\n      tag_129\n      tag_89\n      jump\t// in\n    tag_129:\n        /* \"#utility.yul\":1118:1237   */\n    tag_128:\n        /* \"#utility.yul\":1276:1277   */\n      0x00\n        /* \"#utility.yul\":1301:1354   */\n      tag_130\n        /* \"#utility.yul\":1346:1353   */\n      dup5\n        /* \"#utility.yul\":1337:1343   */\n      dup3\n        /* \"#utility.yul\":1326:1335   */\n      dup6\n        /* \"#utility.yul\":1322:1344   */\n      add\n        /* \"#utility.yul\":1301:1354   */\n      tag_92\n      jump\t// in\n    tag_130:\n        /* \"#utility.yul\":1291:1354   */\n      swap2\n      pop\n        /* \"#utility.yul\":1247:1364   */\n      pop\n        /* \"#utility.yul\":1042:1371   */\n      swap3\n      swap2\n      pop\n      pop\n      jump\t// out\n        /* \"#utility.yul\":1377:1503   */\n    tag_93:\n        /* \"#utility.yul\":1414:1421   */\n      0x00\n        /* \"#utility.yul\":1454:1496   */\n      0xffffffffffffffffffffffffffffffffffffffff\n        /* \"#utility.yul\":1447:1452   */\n      dup3\n        /* \"#utility.yul\":1443:1497   */\n      and\n        /* \"#utility.yul\":1432:1497   */\n      swap1\n      pop\n        /* \"#utility.yul\":1377:1503   */\n      swap2\n      swap1\n      pop\n      jump\t// out\n        /* \"#utility.yul\":1509:1605   */\n    tag_94:\n        /* \"#utility.yul\":1546:1553   */\n      0x00\n        /* \"#utility.yul\":1575:1599   */\n      tag_133\n        /* \"#utility.yul\":1593:1598   */\n      dup3\n        /* \"#utility.yul\":1575:1599   */\n      tag_93\n      jump\t// in\n    tag_133:\n        /* \"#utility.yul\":1564:1599   */\n      swap1\n      pop\n        /* \"#utility.yul\":1509:1605   */\n      swap2\n      swap1\n      pop\n      jump\t// out\n        /* \"#utility.yul\":1611:1729   */\n    tag_95:\n        /* \"#utility.yul\":1698:1722   */\n      tag_135\n        /* \"#utility.yul\":1716:1721   */\n      dup2\n        /* \"#utility.yul\":1698:1722   */\n      tag_94\n      jump\t// in\n    tag_135:\n        /* \"#utility.yul\":1693:1696   */\n      dup3\n        /* \"#utility.yul\":1686:1723   */\n      mstore\n        /* \"#utility.yul\":1611:1729   */\n      pop\n      pop\n      jump\t// out\n        /* \"#utility.yul\":1735:1957   */\n    tag_34:\n        /* \"#utility.yul\":1828:1832   */\n      0x00\n        /* \"#utility.yul\":1866:1868   */\n      0x20\n        /* \"#utility.yul\":1855:1864   */\n      dup3\n        /* \"#utility.yul\":1851:1869   */\n      add\n        /* \"#utility.yul\":1843:1869   */\n      swap1\n      pop\n        /* \"#utility.yul\":1879:1950   */\n      tag_137\n        /* \"#utility.yul\":1947:1948   */\n      0x00\n        /* \"#utility.yul\":1936:1945   */\n      dup4\n        /* \"#utility.yul\":1932:1949   */\n      add\n        /* \"#utility.yul\":1923:1929   */\n      dup5\n        /* \"#utility.yul\":1879:1950   */\n      tag_95\n      jump\t// in\n    tag_137:\n        /* \"#utility.yul\":1735:1957   */\n      swap3\n      swap2\n      pop\n      pop\n      jump\t// out\n        /* \"#utility.yul\":1963:2143   */\n    tag_45:\n        /* \"#utility.yul\":2011:2088   */\n      0x4e487b7100000000000000000000000000000000000000000000000000000000\n        /* \"#utility.yul\":2008:2009   */\n      0x00\n        /* \"#utility.yul\":2001:2089   */\n      mstore\n        /* \"#utility.yul\":2108:2112   */\n      0x41\n        /* \"#utility.yul\":2105:2106   */\n      0x04\n        /* \"#utility.yul\":2098:2113   */\n      mstore\n        /* \"#utility.yul\":2132:2136   */\n      0x24\n        /* \"#utility.yul\":2129:2130   */\n      0x00\n        /* \"#utility.yul\":2122:2137   */\n      revert\n        /* \"#utility.yul\":2149:2296   */\n    tag_96:\n        /* \"#utility.yul\":2250:2261   */\n      0x00\n        /* \"#utility.yul\":2287:2290   */\n      dup2\n        /* \"#utility.yul\":2272:2290   */\n      swap1\n      pop\n        /* \"#utility.yul\":2149:2296   */\n      swap3\n      swap2\n      pop\n      pop\n      jump\t// out\n        /* \"#utility.yul\":2302:2416   */\n    tag_97:\n      pop\n      jump\t// out\n        /* \"#utility.yul\":2422:2820   */\n    tag_98:\n        /* \"#utility.yul\":2581:2584   */\n      0x00\n        /* \"#utility.yul\":2602:2685   */\n      tag_142\n        /* \"#utility.yul\":2683:2684   */\n      0x00\n        /* \"#utility.yul\":2678:2681   */\n      dup4\n        /* \"#utility.yul\":2602:2685   */\n      tag_96\n      jump\t// in\n    tag_142:\n        /* \"#utility.yul\":2595:2685   */\n      swap2\n      pop\n        /* \"#utility.yul\":2694:2787   */\n      tag_143\n        /* \"#utility.yul\":2783:2786   */\n      dup3\n        /* \"#utility.yul\":2694:2787   */\n      tag_97\n      jump\t// in\n    tag_143:\n        /* \"#utility.yul\":2812:2813   */\n      0x00\n        /* \"#utility.yul\":2807:2810   */\n      dup3\n        /* \"#utility.yul\":2803:2814   */\n      add\n        /* \"#utility.yul\":2796:2814   */\n      swap1\n      pop\n        /* \"#utility.yul\":2422:2820   */\n      swap2\n      swap1\n      pop\n      jump\t// out\n        /* \"#utility.yul\":2826:3205   */\n    tag_50:\n        /* \"#utility.yul\":3010:3013   */\n      0x00\n        /* \"#utility.yul\":3032:3179   */\n      tag_145\n        /* \"#utility.yul\":3175:3178   */\n      dup3\n        /* \"#utility.yul\":3032:3179   */\n      tag_98\n      jump\t// in\n    tag_145:\n        /* \"#utility.yul\":3025:3179   */\n      swap2\n      pop\n        /* \"#utility.yul\":3196:3199   */\n      dup2\n        /* \"#utility.yul\":3189:3199   */\n      swap1\n      pop\n        /* \"#utility.yul\":2826:3205   */\n      swap2\n      swap1\n      pop\n      jump\t// out\n        /* \"#utility.yul\":3211:3380   */\n    tag_99:\n        /* \"#utility.yul\":3295:3306   */\n      0x00\n        /* \"#utility.yul\":3329:3335   */\n      dup3\n        /* \"#utility.yul\":3324:3327   */\n      dup3\n        /* \"#utility.yul\":3317:3336   */\n      mstore\n        /* \"#utility.yul\":3369:3373   */\n      0x20\n        /* \"#utility.yul\":3364:3367   */\n      dup3\n        /* \"#utility.yul\":3360:3374   */\n      add\n        /* \"#utility.yul\":3345:3374   */\n      swap1\n      pop\n        /* \"#utility.yul\":3211:3380   */\n      swap3\n      swap2\n      pop\n      pop\n      jump\t// out\n        /* \"#utility.yul\":3386:3547   */\n    tag_100:\n        /* \"#utility.yul\":3526:3539   */\n      0x53656e64206661696c6564000000000000000000000000000000000000000000\n        /* \"#utility.yul\":3522:3523   */\n      0x00\n        /* \"#utility.yul\":3514:3520   */\n      dup3\n        /* \"#utility.yul\":3510:3524   */\n      add\n        /* \"#utility.yul\":3503:3540   */\n      mstore\n        /* \"#utility.yul\":3386:3547   */\n      pop\n      jump\t// out\n        /* \"#utility.yul\":3553:3919   */\n    tag_101:\n        /* \"#utility.yul\":3695:3698   */\n      0x00\n        /* \"#utility.yul\":3716:3783   */\n      tag_149\n        /* \"#utility.yul\":3780:3782   */\n      0x0b\n        /* \"#utility.yul\":3775:3778   */\n      dup4\n        /* \"#utility.yul\":3716:3783   */\n      tag_99\n      jump\t// in\n    tag_149:\n        /* \"#utility.yul\":3709:3783   */\n      swap2\n      pop\n        /* \"#utility.yul\":3792:3885   */\n      tag_150\n        /* \"#utility.yul\":3881:3884   */\n      dup3\n        /* \"#utility.yul\":3792:3885   */\n      tag_100\n      jump\t// in\n    tag_150:\n        /* \"#utility.yul\":3910:3912   */\n      0x20\n        /* \"#utility.yul\":3905:3908   */\n      dup3\n        /* \"#utility.yul\":3901:3913   */\n      add\n        /* \"#utility.yul\":3894:3913   */\n      swap1\n      pop\n        /* \"#utility.yul\":3553:3919   */\n      swap2\n      swap1\n      pop\n      jump\t// out\n        /* \"#utility.yul\":3925:4344   */\n    tag_56:\n        /* \"#utility.yul\":4091:4095   */\n      0x00\n        /* \"#utility.yul\":4129:4131   */\n      0x20\n        /* \"#utility.yul\":4118:4127   */\n      dup3\n        /* \"#utility.yul\":4114:4132   */\n      add\n        /* \"#utility.yul\":4106:4132   */\n      swap1\n      pop\n        /* \"#utility.yul\":4178:4187   */\n      dup2\n        /* \"#utility.yul\":4172:4176   */\n      dup2\n        /* \"#utility.yul\":4168:4188   */\n      sub\n        /* \"#utility.yul\":4164:4165   */\n      0x00\n        /* \"#utility.yul\":4153:4162   */\n      dup4\n        /* \"#utility.yul\":4149:4166   */\n      add\n        /* \"#utility.yul\":4142:4189   */\n      mstore\n        /* \"#utility.yul\":4206:4337   */\n      tag_152\n        /* \"#utility.yul\":4332:4336   */\n      dup2\n        /* \"#utility.yul\":4206:4337   */\n      tag_101\n      jump\t// in\n    tag_152:\n        /* \"#utility.yul\":4198:4337   */\n      swap1\n      pop\n        /* \"#utility.yul\":3925:4344   */\n      swap2\n      swap1\n      pop\n      jump\t// out\n        /* \"#utility.yul\":4350:4530   */\n    tag_102:\n        /* \"#utility.yul\":4398:4475   */\n      0x4e487b7100000000000000000000000000000000000000000000000000000000\n        /* \"#utility.yul\":4395:4396   */\n      0x00\n        /* \"#utility.yul\":4388:4476   */\n      mstore\n        /* \"#utility.yul\":4495:4499   */\n      0x11\n        /* \"#utility.yul\":4492:4493   */\n      0x04\n        /* \"#utility.yul\":4485:4500   */\n      mstore\n        /* \"#utility.yul\":4519:4523   */\n      0x24\n        /* \"#utility.yul\":4516:4517   */\n      0x00\n        /* \"#utility.yul\":4509:4524   */\n      revert\n        /* \"#utility.yul\":4536:4884   */\n    tag_60:\n        /* \"#utility.yul\":4576:4583   */\n      0x00\n        /* \"#utility.yul\":4599:4619   */\n      tag_155\n        /* \"#utility.yul\":4617:4618   */\n      dup3\n        /* \"#utility.yul\":4599:4619   */\n      tag_86\n      jump\t// in\n    tag_155:\n        /* \"#utility.yul\":4594:4619   */\n      swap2\n      pop\n        /* \"#utility.yul\":4633:4653   */\n      tag_156\n        /* \"#utility.yul\":4651:4652   */\n      dup4\n        /* \"#utility.yul\":4633:4653   */\n      tag_86\n      jump\t// in\n    tag_156:\n        /* \"#utility.yul\":4628:4653   */\n      swap3\n      pop\n        /* \"#utility.yul\":4821:4822   */\n      dup2\n        /* \"#utility.yul\":4753:4819   */\n      0xffffffffffffffffffffffffffffffffffffffffffffffffffffffffffffffff\n        /* \"#utility.yul\":4749:4823   */\n      div\n        /* \"#utility.yul\":4746:4747   */\n      dup4\n        /* \"#utility.yul\":4743:4824   */\n      gt\n        /* \"#utility.yul\":4738:4739   */\n      dup3\n        /* \"#utility.yul\":4731:4740   */\n      iszero\n        /* \"#utility.yul\":4724:4741   */\n      iszero\n        /* \"#utility.yul\":4720:4825   */\n      and\n        /* \"#utility.yul\":4717:4848   */\n      iszero\n      tag_157\n      jumpi\n        /* \"#utility.yul\":4828:4846   */\n      tag_158\n      tag_102\n      jump\t// in\n    tag_158:\n        /* \"#utility.yul\":4717:4848   */\n    tag_157:\n        /* \"#utility.yul\":4876:4877   */\n      dup3\n        /* \"#utility.yul\":4873:4874   */\n      dup3\n        /* \"#utility.yul\":4869:4878   */\n      mul\n        /* \"#utility.yul\":4858:4878   */\n      swap1\n      pop\n        /* \"#utility.yul\":4536:4884   */\n      swap3\n      swap2\n      pop\n      pop\n      jump\t// out\n        /* \"#utility.yul\":4890:5070   */\n    tag_103:\n        /* \"#utility.yul\":4938:5015   */\n      0x4e487b7100000000000000000000000000000000000000000000000000000000\n        /* \"#utility.yul\":4935:4936   */\n      0x00\n        /* \"#utility.yul\":4928:5016   */\n      mstore\n        /* \"#utility.yul\":5035:5039   */\n      0x12\n        /* \"#utility.yul\":5032:5033   */\n      0x04\n        /* \"#utility.yul\":5025:5040   */\n      mstore\n        /* \"#utility.yul\":5059:5063   */\n      0x24\n        /* \"#utility.yul\":5056:5057   */\n      0x00\n        /* \"#utility.yul\":5049:5064   */\n      revert\n        /* \"#utility.yul\":5076:5261   */\n    tag_62:\n        /* \"#utility.yul\":5116:5117   */\n      0x00\n        /* \"#utility.yul\":5133:5153   */\n      tag_161\n        /* \"#utility.yul\":5151:5152   */\n      dup3\n        /* \"#utility.yul\":5133:5153   */\n      tag_86\n      jump\t// in\n    tag_161:\n        /* \"#utility.yul\":5128:5153   */\n      swap2\n      pop\n        /* \"#utility.yul\":5167:5187   */\n      tag_162\n        /* \"#utility.yul\":5185:5186   */\n      dup4\n        /* \"#utility.yul\":5167:5187   */\n      tag_86\n      jump\t// in\n    tag_162:\n        /* \"#utility.yul\":5162:5187   */\n      swap3\n      pop\n        /* \"#utility.yul\":5206:5207   */\n      dup3\n        /* \"#utility.yul\":5196:5231   */\n      tag_163\n      jumpi\n        /* \"#utility.yul\":5211:5229   */\n      tag_164\n      tag_103\n      jump\t// in\n    tag_164:\n        /* \"#utility.yul\":5196:5231   */\n    tag_163:\n        /* \"#utility.yul\":5253:5254   */\n      dup3\n        /* \"#utility.yul\":5250:5251   */\n      dup3\n        /* \"#utility.yul\":5246:5255   */\n      div\n        /* \"#utility.yul\":5241:5255   */\n      swap1\n      pop\n        /* \"#utility.yul\":5076:5261   */\n      swap3\n      swap2\n      pop\n      pop\n      jump\t// out\n        /* \"#utility.yul\":5267:5372   */\n    tag_104:\n        /* \"#utility.yul\":5303:5310   */\n      0x00\n        /* \"#utility.yul\":5343:5365   */\n      0xffffffffffffffffffff\n        /* \"#utility.yul\":5336:5341   */\n      dup3\n        /* \"#utility.yul\":5332:5366   */\n      and\n        /* \"#utility.yul\":5321:5366   */\n      swap1\n      pop\n        /* \"#utility.yul\":5267:5372   */\n      swap2\n      swap1\n      pop\n      jump\t// out\n        /* \"#utility.yul\":5378:5498   */\n    tag_105:\n        /* \"#utility.yul\":5450:5473   */\n      tag_167\n        /* \"#utility.yul\":5467:5472   */\n      dup2\n        /* \"#utility.yul\":5450:5473   */\n      tag_104\n      jump\t// in\n    tag_167:\n        /* \"#utility.yul\":5443:5448   */\n      dup2\n        /* \"#utility.yul\":5440:5474   */\n      eq\n        /* \"#utility.yul\":5430:5492   */\n      tag_168\n      jumpi\n        /* \"#utility.yul\":5488:5489   */\n      0x00\n        /* \"#utility.yul\":5485:5486   */\n      dup1\n        /* \"#utility.yul\":5478:5490   */\n      revert\n        /* \"#utility.yul\":5430:5492   */\n    tag_168:\n        /* \"#utility.yul\":5378:5498   */\n      pop\n      jump\t// out\n        /* \"#utility.yul\":5504:5645   */\n    tag_106:\n        /* \"#utility.yul\":5560:5565   */\n      0x00\n        /* \"#utility.yul\":5591:5597   */\n      dup2\n        /* \"#utility.yul\":5585:5598   */\n      mload\n        /* \"#utility.yul\":5576:5598   */\n      swap1\n      pop\n        /* \"#utility.yul\":5607:5639   */\n      tag_170\n        /* \"#utility.yul\":5633:5638   */\n      dup2\n        /* \"#utility.yul\":5607:5639   */\n      tag_105\n      jump\t// in\n    tag_170:\n        /* \"#utility.yul\":5504:5645   */\n      swap3\n      swap2\n      pop\n      pop\n      jump\t// out\n        /* \"#utility.yul\":5651:5727   */\n    tag_107:\n        /* \"#utility.yul\":5687:5694   */\n      0x00\n        /* \"#utility.yul\":5716:5721   */\n      dup2\n        /* \"#utility.yul\":5705:5721   */\n      swap1\n      pop\n        /* \"#utility.yul\":5651:5727   */\n      swap2\n      swap1\n      pop\n      jump\t// out\n        /* \"#utility.yul\":5733:5853   */\n    tag_108:\n        /* \"#utility.yul\":5805:5828   */\n      tag_173\n        /* \"#utility.yul\":5822:5827   */\n      dup2\n        /* \"#utility.yul\":5805:5828   */\n      tag_107\n      jump\t// in\n    tag_173:\n        /* \"#utility.yul\":5798:5803   */\n      dup2\n        /* \"#utility.yul\":5795:5829   */\n      eq\n        /* \"#utility.yul\":5785:5847   */\n      tag_174\n      jumpi\n        /* \"#utility.yul\":5843:5844   */\n      0x00\n        /* \"#utility.yul\":5840:5841   */\n      dup1\n        /* \"#utility.yul\":5833:5845   */\n      revert\n        /* \"#utility.yul\":5785:5847   */\n    tag_174:\n        /* \"#utility.yul\":5733:5853   */\n      pop\n      jump\t// out\n        /* \"#utility.yul\":5859:6000   */\n    tag_109:\n        /* \"#utility.yul\":5915:5920   */\n      0x00\n        /* \"#utility.yul\":5946:5952   */\n      dup2\n        /* \"#utility.yul\":5940:5953   */\n      mload\n        /* \"#utility.yul\":5931:5953   */\n      swap1\n      pop\n        /* \"#utility.yul\":5962:5994   */\n      tag_176\n        /* \"#utility.yul\":5988:5993   */\n      dup2\n        /* \"#utility.yul\":5962:5994   */\n      tag_108\n      jump\t// in\n    tag_176:\n        /* \"#utility.yul\":5859:6000   */\n      swap3\n      swap2\n      pop\n      pop\n      jump\t// out\n        /* \"#utility.yul\":6006:6149   */\n    tag_110:\n        /* \"#utility.yul\":6063:6068   */\n      0x00\n        /* \"#utility.yul\":6094:6100   */\n      dup2\n        /* \"#utility.yul\":6088:6101   */\n      mload\n        /* \"#utility.yul\":6079:6101   */\n      swap1\n      pop\n        /* \"#utility.yul\":6110:6143   */\n      tag_178\n        /* \"#utility.yul\":6137:6142   */\n      dup2\n        /* \"#utility.yul\":6110:6143   */\n      tag_91\n      jump\t// in\n    tag_178:\n        /* \"#utility.yul\":6006:6149   */\n      swap3\n      swap2\n      pop\n      pop\n      jump\t// out\n        /* \"#utility.yul\":6155:7126   */\n    tag_68:\n        /* \"#utility.yul\":6258:6264   */\n      0x00\n        /* \"#utility.yul\":6266:6272   */\n      dup1\n        /* \"#utility.yul\":6274:6280   */\n      0x00\n        /* \"#utility.yul\":6282:6288   */\n      dup1\n        /* \"#utility.yul\":6290:6296   */\n      0x00\n        /* \"#utility.yul\":6339:6342   */\n      0xa0\n        /* \"#utility.yul\":6327:6336   */\n      dup7\n        /* \"#utility.yul\":6318:6325   */\n      dup9\n        /* \"#utility.yul\":6314:6337   */\n      sub\n        /* \"#utility.yul\":6310:6343   */\n      slt\n        /* \"#utility.yul\":6307:6427   */\n      iszero\n      tag_180\n      jumpi\n        /* \"#utility.yul\":6346:6425   */\n      tag_181\n      tag_89\n      jump\t// in\n    tag_181:\n        /* \"#utility.yul\":6307:6427   */\n    tag_180:\n        /* \"#utility.yul\":6466:6467   */\n      0x00\n        /* \"#utility.yul\":6491:6554   */\n      tag_182\n        /* \"#utility.yul\":6546:6553   */\n      dup9\n        /* \"#utility.yul\":6537:6543   */\n      dup3\n        /* \"#utility.yul\":6526:6535   */\n      dup10\n        /* \"#utility.yul\":6522:6544   */\n      add\n        /* \"#utility.yul\":6491:6554   */\n      tag_106\n      jump\t// in\n    tag_182:\n        /* \"#utility.yul\":6481:6554   */\n      swap6\n      pop\n        /* \"#utility.yul\":6437:6564   */\n      pop\n        /* \"#utility.yul\":6603:6605   */\n      0x20\n        /* \"#utility.yul\":6629:6692   */\n      tag_183\n        /* \"#utility.yul\":6684:6691   */\n      dup9\n        /* \"#utility.yul\":6675:6681   */\n      dup3\n        /* \"#utility.yul\":6664:6673   */\n      dup10\n        /* \"#utility.yul\":6660:6682   */\n      add\n        /* \"#utility.yul\":6629:6692   */\n      tag_109\n      jump\t// in\n    tag_183:\n        /* \"#utility.yul\":6619:6692   */\n      swap5\n      pop\n        /* \"#utility.yul\":6574:6702   */\n      pop\n        /* \"#utility.yul\":6741:6743   */\n      0x40\n        /* \"#utility.yul\":6767:6831   */\n      tag_184\n        /* \"#utility.yul\":6823:6830   */\n      dup9\n        /* \"#utility.yul\":6814:6820   */\n      dup3\n        /* \"#utility.yul\":6803:6812   */\n      dup10\n        /* \"#utility.yul\":6799:6821   */\n      add\n        /* \"#utility.yul\":6767:6831   */\n      tag_110\n      jump\t// in\n    tag_184:\n        /* \"#utility.yul\":6757:6831   */\n      swap4\n      pop\n        /* \"#utility.yul\":6712:6841   */\n      pop\n        /* \"#utility.yul\":6880:6882   */\n      0x60\n        /* \"#utility.yul\":6906:6970   */\n      tag_185\n        /* \"#utility.yul\":6962:6969   */\n      dup9\n        /* \"#utility.yul\":6953:6959   */\n      dup3\n        /* \"#utility.yul\":6942:6951   */\n      dup10\n        /* \"#utility.yul\":6938:6960   */\n      add\n        /* \"#utility.yul\":6906:6970   */\n      tag_110\n      jump\t// in\n    tag_185:\n        /* \"#utility.yul\":6896:6970   */\n      swap3\n      pop\n        /* \"#utility.yul\":6851:6980   */\n      pop\n        /* \"#utility.yul\":7019:7022   */\n      0x80\n        /* \"#utility.yul\":7046:7109   */\n      tag_186\n        /* \"#utility.yul\":7101:7108   */\n      dup9\n        /* \"#utility.yul\":7092:7098   */\n      dup3\n        /* \"#utility.yul\":7081:7090   */\n      dup10\n        /* \"#utility.yul\":7077:7099   */\n      add\n        /* \"#utility.yul\":7046:7109   */\n      tag_106\n      jump\t// in\n    tag_186:\n        /* \"#utility.yul\":7036:7109   */\n      swap2\n      pop\n        /* \"#utility.yul\":6990:7119   */\n      pop\n        /* \"#utility.yul\":6155:7126   */\n      swap3\n      swap6\n      pop\n      swap3\n      swap6\n      swap1\n      swap4\n      pop\n      jump\t// out\n        /* \"#utility.yul\":7132:8123   */\n    tag_70:\n        /* \"#utility.yul\":7171:7178   */\n      0x00\n        /* \"#utility.yul\":7194:7213   */\n      tag_188\n        /* \"#utility.yul\":7211:7212   */\n      dup3\n        /* \"#utility.yul\":7194:7213   */\n      tag_107\n      jump\t// in\n    tag_188:\n        /* \"#utility.yul\":7189:7213   */\n      swap2\n      pop\n        /* \"#utility.yul\":7227:7246   */\n      tag_189\n        /* \"#utility.yul\":7244:7245   */\n      dup4\n        /* \"#utility.yul\":7227:7246   */\n      tag_107\n      jump\t// in\n    tag_189:\n        /* \"#utility.yul\":7222:7246   */\n      swap3\n      pop\n        /* \"#utility.yul\":7428:7429   */\n      dup3\n        /* \"#utility.yul\":7360:7426   */\n      0x7fffffffffffffffffffffffffffffffffffffffffffffffffffffffffffffff\n        /* \"#utility.yul\":7356:7430   */\n      div\n        /* \"#utility.yul\":7353:7354   */\n      dup3\n        /* \"#utility.yul\":7350:7431   */\n      gt\n        /* \"#utility.yul\":7345:7346   */\n      0x00\n        /* \"#utility.yul\":7342:7343   */\n      dup5\n        /* \"#utility.yul\":7338:7347   */\n      sgt\n        /* \"#utility.yul\":7334:7335   */\n      0x00\n        /* \"#utility.yul\":7331:7332   */\n      dup5\n        /* \"#utility.yul\":7327:7336   */\n      sgt\n        /* \"#utility.yul\":7323:7348   */\n      and\n        /* \"#utility.yul\":7319:7432   */\n      and\n        /* \"#utility.yul\":7316:7455   */\n      iszero\n      tag_190\n      jumpi\n        /* \"#utility.yul\":7435:7453   */\n      tag_191\n      tag_102\n      jump\t// in\n    tag_191:\n        /* \"#utility.yul\":7316:7455   */\n    tag_190:\n        /* \"#utility.yul\":7639:7640   */\n      dup2\n        /* \"#utility.yul\":7571:7637   */\n      0x8000000000000000000000000000000000000000000000000000000000000000\n        /* \"#utility.yul\":7566:7641   */\n      sdiv\n        /* \"#utility.yul\":7563:7564   */\n      dup4\n        /* \"#utility.yul\":7559:7642   */\n      slt\n        /* \"#utility.yul\":7554:7555   */\n      0x00\n        /* \"#utility.yul\":7551:7552   */\n      dup5\n        /* \"#utility.yul\":7547:7556   */\n      slt\n        /* \"#utility.yul\":7543:7544   */\n      0x00\n        /* \"#utility.yul\":7540:7541   */\n      dup5\n        /* \"#utility.yul\":7536:7545   */\n      sgt\n        /* \"#utility.yul\":7532:7557   */\n      and\n        /* \"#utility.yul\":7528:7643   */\n      and\n        /* \"#utility.yul\":7525:7666   */\n      iszero\n      tag_192\n      jumpi\n        /* \"#utility.yul\":7646:7664   */\n      tag_193\n      tag_102\n      jump\t// in\n    tag_193:\n        /* \"#utility.yul\":7525:7666   */\n    tag_192:\n        /* \"#utility.yul\":7850:7851   */\n      dup3\n        /* \"#utility.yul\":7782:7848   */\n      0x8000000000000000000000000000000000000000000000000000000000000000\n        /* \"#utility.yul\":7777:7852   */\n      sdiv\n        /* \"#utility.yul\":7774:7775   */\n      dup3\n        /* \"#utility.yul\":7770:7853   */\n      slt\n        /* \"#utility.yul\":7765:7766   */\n      0x00\n        /* \"#utility.yul\":7762:7763   */\n      dup5\n        /* \"#utility.yul\":7758:7767   */\n      sgt\n        /* \"#utility.yul\":7754:7755   */\n      0x00\n        /* \"#utility.yul\":7751:7752   */\n      dup5\n        /* \"#utility.yul\":7747:7756   */\n      slt\n        /* \"#utility.yul\":7743:7768   */\n      and\n        /* \"#utility.yul\":7739:7854   */\n      and\n        /* \"#utility.yul\":7736:7877   */\n      iszero\n      tag_194\n      jumpi\n        /* \"#utility.yul\":7857:7875   */\n      tag_195\n      tag_102\n      jump\t// in\n    tag_195:\n        /* \"#utility.yul\":7736:7877   */\n    tag_194:\n        /* \"#utility.yul\":8060:8061   */\n      dup3\n        /* \"#utility.yul\":7992:8058   */\n      0x7fffffffffffffffffffffffffffffffffffffffffffffffffffffffffffffff\n        /* \"#utility.yul\":7987:8062   */\n      sdiv\n        /* \"#utility.yul\":7984:7985   */\n      dup3\n        /* \"#utility.yul\":7980:8063   */\n      slt\n        /* \"#utility.yul\":7975:7976   */\n      0x00\n        /* \"#utility.yul\":7972:7973   */\n      dup5\n        /* \"#utility.yul\":7968:7977   */\n      slt\n        /* \"#utility.yul\":7964:7965   */\n      0x00\n        /* \"#utility.yul\":7961:7962   */\n      dup5\n        /* \"#utility.yul\":7957:7966   */\n      slt\n        /* \"#utility.yul\":7953:7978   */\n      and\n        /* \"#utility.yul\":7949:8064   */\n      and\n        /* \"#utility.yul\":7946:8087   */\n      iszero\n      tag_196\n      jumpi\n        /* \"#utility.yul\":8067:8085   */\n      tag_197\n      tag_102\n      jump\t// in\n    tag_197:\n        /* \"#utility.yul\":7946:8087   */\n    tag_196:\n        /* \"#utility.yul\":8115:8116   */\n      dup3\n        /* \"#utility.yul\":8112:8113   */\n      dup3\n        /* \"#utility.yul\":8108:8117   */\n      mul\n        /* \"#utility.yul\":8097:8117   */\n      swap1\n      pop\n        /* \"#utility.yul\":7132:8123   */\n      swap3\n      swap2\n      pop\n      pop\n      jump\t// out\n        /* \"#utility.yul\":8129:8297   */\n    tag_111:\n        /* \"#utility.yul\":8269:8289   */\n      0x4469646e27742073656e6420656e6f7567680000000000000000000000000000\n        /* \"#utility.yul\":8265:8266   */\n      0x00\n        /* \"#utility.yul\":8257:8263   */\n      dup3\n        /* \"#utility.yul\":8253:8267   */\n      add\n        /* \"#utility.yul\":8246:8290   */\n      mstore\n        /* \"#utility.yul\":8129:8297   */\n      pop\n      jump\t// out\n        /* \"#utility.yul\":8303:8669   */\n    tag_112:\n        /* \"#utility.yul\":8445:8448   */\n      0x00\n        /* \"#utility.yul\":8466:8533   */\n      tag_200\n        /* \"#utility.yul\":8530:8532   */\n      0x12\n        /* \"#utility.yul\":8525:8528   */\n      dup4\n        /* \"#utility.yul\":8466:8533   */\n      tag_99\n      jump\t// in\n    tag_200:\n        /* \"#utility.yul\":8459:8533   */\n      swap2\n      pop\n        /* \"#utility.yul\":8542:8635   */\n      tag_201\n        /* \"#utility.yul\":8631:8634   */\n      dup3\n        /* \"#utility.yul\":8542:8635   */\n      tag_111\n      jump\t// in\n    tag_201:\n        /* \"#utility.yul\":8660:8662   */\n      0x20\n        /* \"#utility.yul\":8655:8658   */\n      dup3\n        /* \"#utility.yul\":8651:8663   */\n      add\n        /* \"#utility.yul\":8644:8663   */\n      swap1\n      pop\n        /* \"#utility.yul\":8303:8669   */\n      swap2\n      swap1\n      pop\n      jump\t// out\n        /* \"#utility.yul\":8675:9094   */\n    tag_75:\n        /* \"#utility.yul\":8841:8845   */\n      0x00\n        /* \"#utility.yul\":8879:8881   */\n      0x20\n        /* \"#utility.yul\":8868:8877   */\n      dup3\n        /* \"#utility.yul\":8864:8882   */\n      add\n        /* \"#utility.yul\":8856:8882   */\n      swap1\n      pop\n        /* \"#utility.yul\":8928:8937   */\n      dup2\n        /* \"#utility.yul\":8922:8926   */\n      dup2\n        /* \"#utility.yul\":8918:8938   */\n      sub\n        /* \"#utility.yul\":8914:8915   */\n      0x00\n        /* \"#utility.yul\":8903:8912   */\n      dup4\n        /* \"#utility.yul\":8899:8916   */\n      add\n        /* \"#utility.yul\":8892:8939   */\n      mstore\n        /* \"#utility.yul\":8956:9087   */\n      tag_203\n        /* \"#utility.yul\":9082:9086   */\n      dup2\n        /* \"#utility.yul\":8956:9087   */\n      tag_112\n      jump\t// in\n    tag_203:\n        /* \"#utility.yul\":8948:9087   */\n      swap1\n      pop\n        /* \"#utility.yul\":8675:9094   */\n      swap2\n      swap1\n      pop\n      jump\t// out\n\n    auxdata: 0xa2646970667358221220faa319a078217eea4069065143e13fcfc22a2a24bdaeb067995d63083535678164736f6c63430008080033\n}\n",
				"bytecode": {
					"linkReferences": {},
					"object": "60a060405234801561001057600080fd5b503373ffffffffffffffffffffffffffffffffffffffff1660808173ffffffffffffffffffffffffffffffffffffffff1660601b8152505060805160601c610b7161006d6000396000818161019301526104df0152610b716000f3fe6080604052600436106100705760003560e01c806398d5fdca1161004e57806398d5fdca146100f4578063b60d42881461011f578063dba6335f14610129578063dc0d3dff1461015457610070565b80633ccfd60b146100755780636b69a5921461008c5780636e5b6b28146100b7575b600080fd5b34801561008157600080fd5b5061008a610191565b005b34801561009857600080fd5b506100a1610325565b6040516100ae9190610600565b60405180910390f35b3480156100c357600080fd5b506100de60048036038101906100d9919061064c565b610332565b6040516100eb9190610600565b60405180910390f35b34801561010057600080fd5b5061010961036c565b6040516101169190610600565b60405180910390f35b610127610424565b005b34801561013557600080fd5b5061013e6104dd565b60405161014b91906106ba565b60405180910390f35b34801561016057600080fd5b5061017b6004803603810190610176919061064c565b610501565b60405161018891906106ba565b60405180910390f35b7f000000000000000000000000000000000000000000000000000000000000000073ffffffffffffffffffffffffffffffffffffffff163373ffffffffffffffffffffffffffffffffffffffff1614610216576040517f30cd747100000000000000000000000000000000000000000000000000000000815260040160405180910390fd5b600067ffffffffffffffff811115610231576102306106d5565b5b60405190808252806020026020018201604052801561025f5781602001602082028036833780820191505090505b5060009080519060200190610275929190610540565b5060003373ffffffffffffffffffffffffffffffffffffffff164760405161029c90610735565b60006040518083038185875af1925050503d80600081146102d9576040519150601f19603f3d011682016040523d82523d6000602084013e6102de565b606091505b5050905080610322576040517f08c379a0000000000000000000000000000000000000000000000000000000008152600401610319906107a7565b60405180910390fd5b50565b6802b5e3af16b188000081565b60008061033d61036c565b90506000670de0b6b3a7640000848361035691906107f6565b610360919061087f565b90508092505050919050565b600080738a753747a1fa494ec906ce90e9f37563a8af630e905060008173ffffffffffffffffffffffffffffffffffffffff1663feaf968c6040518163ffffffff1660e01b815260040160a06040518083038186803b1580156103ce57600080fd5b505afa1580156103e2573d6000803e3d6000fd5b505050506040513d601f19601f82011682018060405250810190610406919061093d565b5050509150506402540be4008161041d91906109b8565b9250505090565b6802b5e3af16b188000061043734610332565b1015610478576040517f08c379a000000000000000000000000000000000000000000000000000000000815260040161046f90610b1b565b60405180910390fd5b6000339080600181540180825580915050600190039060005260206000200160009091909190916101000a81548173ffffffffffffffffffffffffffffffffffffffff021916908373ffffffffffffffffffffffffffffffffffffffff160217905550565b7f000000000000000000000000000000000000000000000000000000000000000081565b6000818154811061051157600080fd5b906000526020600020016000915054906101000a900473ffffffffffffffffffffffffffffffffffffffff1681565b8280548282559060005260206000209081019282156105b9579160200282015b828111156105b85782518260006101000a81548173ffffffffffffffffffffffffffffffffffffffff021916908373ffffffffffffffffffffffffffffffffffffffff16021790555091602001919060010190610560565b5b5090506105c691906105ca565b5090565b5b808211156105e35760008160009055506001016105cb565b5090565b6000819050919050565b6105fa816105e7565b82525050565b600060208201905061061560008301846105f1565b92915050565b600080fd5b610629816105e7565b811461063457600080fd5b50565b60008135905061064681610620565b92915050565b6000602082840312156106625761066161061b565b5b600061067084828501610637565b91505092915050565b600073ffffffffffffffffffffffffffffffffffffffff82169050919050565b60006106a482610679565b9050919050565b6106b481610699565b82525050565b60006020820190506106cf60008301846106ab565b92915050565b7f4e487b7100000000000000000000000000000000000000000000000000000000600052604160045260246000fd5b600081905092915050565b50565b600061071f600083610704565b915061072a8261070f565b600082019050919050565b600061074082610712565b9150819050919050565b600082825260208201905092915050565b7f53656e64206661696c6564000000000000000000000000000000000000000000600082015250565b6000610791600b8361074a565b915061079c8261075b565b602082019050919050565b600060208201905081810360008301526107c081610784565b9050919050565b7f4e487b7100000000000000000000000000000000000000000000000000000000600052601160045260246000fd5b6000610801826105e7565b915061080c836105e7565b9250817fffffffffffffffffffffffffffffffffffffffffffffffffffffffffffffffff0483118215151615610845576108446107c7565b5b828202905092915050565b7f4e487b7100000000000000000000000000000000000000000000000000000000600052601260045260246000fd5b600061088a826105e7565b9150610895836105e7565b9250826108a5576108a4610850565b5b828204905092915050565b600069ffffffffffffffffffff82169050919050565b6108cf816108b0565b81146108da57600080fd5b50565b6000815190506108ec816108c6565b92915050565b6000819050919050565b610905816108f2565b811461091057600080fd5b50565b600081519050610922816108fc565b92915050565b60008151905061093781610620565b92915050565b600080600080600060a086880312156109595761095861061b565b5b6000610967888289016108dd565b955050602061097888828901610913565b945050604061098988828901610928565b935050606061099a88828901610928565b92505060806109ab888289016108dd565b9150509295509295909350565b60006109c3826108f2565b91506109ce836108f2565b9250827f7fffffffffffffffffffffffffffffffffffffffffffffffffffffffffffffff0482116000841360008413161615610a0d57610a0c6107c7565b5b817f80000000000000000000000000000000000000000000000000000000000000000583126000841260008413161615610a4a57610a496107c7565b5b827f80000000000000000000000000000000000000000000000000000000000000000582126000841360008412161615610a8757610a866107c7565b5b827f7fffffffffffffffffffffffffffffffffffffffffffffffffffffffffffffff0582126000841260008412161615610ac457610ac36107c7565b5b828202905092915050565b7f4469646e27742073656e6420656e6f7567680000000000000000000000000000600082015250565b6000610b0560128361074a565b9150610b1082610acf565b602082019050919050565b60006020820190508181036000830152610b3481610af8565b905091905056fea2646970667358221220faa319a078217eea4069065143e13fcfc22a2a24bdaeb067995d63083535678164736f6c63430008080033",
					"opcodes": "PUSH1 0xA0 PUSH1 0x40 MSTORE CALLVALUE DUP1 ISZERO PUSH2 0x10 JUMPI PUSH1 0x0 DUP1 REVERT JUMPDEST POP CALLER PUSH20 0xFFFFFFFFFFFFFFFFFFFFFFFFFFFFFFFFFFFFFFFF AND PUSH1 0x80 DUP2 PUSH20 0xFFFFFFFFFFFFFFFFFFFFFFFFFFFFFFFFFFFFFFFF AND PUSH1 0x60 SHL DUP2 MSTORE POP POP PUSH1 0x80 MLOAD PUSH1 0x60 SHR PUSH2 0xB71 PUSH2 0x6D PUSH1 0x0 CODECOPY PUSH1 0x0 DUP2 DUP2 PUSH2 0x193 ADD MSTORE PUSH2 0x4DF ADD MSTORE PUSH2 0xB71 PUSH1 0x0 RETURN INVALID PUSH1 0x80 PUSH1 0x40 MSTORE PUSH1 0x4 CALLDATASIZE LT PUSH2 0x70 JUMPI PUSH1 0x0 CALLDATALOAD PUSH1 0xE0 SHR DUP1 PUSH4 0x98D5FDCA GT PUSH2 0x4E JUMPI DUP1 PUSH4 0x98D5FDCA EQ PUSH2 0xF4 JUMPI DUP1 PUSH4 0xB60D4288 EQ PUSH2 0x11F JUMPI DUP1 PUSH4 0xDBA6335F EQ PUSH2 0x129 JUMPI DUP1 PUSH4 0xDC0D3DFF EQ PUSH2 0x154 JUMPI PUSH2 0x70 JUMP JUMPDEST DUP1 PUSH4 0x3CCFD60B EQ PUSH2 0x75 JUMPI DUP1 PUSH4 0x6B69A592 EQ PUSH2 0x8C JUMPI DUP1 PUSH4 0x6E5B6B28 EQ PUSH2 0xB7 JUMPI JUMPDEST PUSH1 0x0 DUP1 REVERT JUMPDEST CALLVALUE DUP1 ISZERO PUSH2 0x81 JUMPI PUSH1 0x0 DUP1 REVERT JUMPDEST POP PUSH2 0x8A PUSH2 0x191 JUMP JUMPDEST STOP JUMPDEST CALLVALUE DUP1 ISZERO PUSH2 0x98 JUMPI PUSH1 0x0 DUP1 REVERT JUMPDEST POP PUSH2 0xA1 PUSH2 0x325 JUMP JUMPDEST PUSH1 0x40 MLOAD PUSH2 0xAE SWAP2 SWAP1 PUSH2 0x600 JUMP JUMPDEST PUSH1 0x40 MLOAD DUP1 SWAP2 SUB SWAP1 RETURN JUMPDEST CALLVALUE DUP1 ISZERO PUSH2 0xC3 JUMPI PUSH1 0x0 DUP1 REVERT JUMPDEST POP PUSH2 0xDE PUSH1 0x4 DUP1 CALLDATASIZE SUB DUP2 ADD SWAP1 PUSH2 0xD9 SWAP2 SWAP1 PUSH2 0x64C JUMP JUMPDEST PUSH2 0x332 JUMP JUMPDEST PUSH1 0x40 MLOAD PUSH2 0xEB SWAP2 SWAP1 PUSH2 0x600 JUMP JUMPDEST PUSH1 0x40 MLOAD DUP1 SWAP2 SUB SWAP1 RETURN JUMPDEST CALLVALUE DUP1 ISZERO PUSH2 0x100 JUMPI PUSH1 0x0 DUP1 REVERT JUMPDEST POP PUSH2 0x109 PUSH2 0x36C JUMP JUMPDEST PUSH1 0x40 MLOAD PUSH2 0x116 SWAP2 SWAP1 PUSH2 0x600 JUMP JUMPDEST PUSH1 0x40 MLOAD DUP1 SWAP2 SUB SWAP1 RETURN JUMPDEST PUSH2 0x127 PUSH2 0x424 JUMP JUMPDEST STOP JUMPDEST CALLVALUE DUP1 ISZERO PUSH2 0x135 JUMPI PUSH1 0x0 DUP1 REVERT JUMPDEST POP PUSH2 0x13E PUSH2 0x4DD JUMP JUMPDEST PUSH1 0x40 MLOAD PUSH2 0x14B SWAP2 SWAP1 PUSH2 0x6BA JUMP JUMPDEST PUSH1 0x40 MLOAD DUP1 SWAP2 SUB SWAP1 RETURN JUMPDEST CALLVALUE DUP1 ISZERO PUSH2 0x160 JUMPI PUSH1 0x0 DUP1 REVERT JUMPDEST POP PUSH2 0x17B PUSH1 0x4 DUP1 CALLDATASIZE SUB DUP2 ADD SWAP1 PUSH2 0x176 SWAP2 SWAP1 PUSH2 0x64C JUMP JUMPDEST PUSH2 0x501 JUMP JUMPDEST PUSH1 0x40 MLOAD PUSH2 0x188 SWAP2 SWAP1 PUSH2 0x6BA JUMP JUMPDEST PUSH1 0x40 MLOAD DUP1 SWAP2 SUB SWAP1 RETURN JUMPDEST PUSH32 0x0 PUSH20 0xFFFFFFFFFFFFFFFFFFFFFFFFFFFFFFFFFFFFFFFF AND CALLER PUSH20 0xFFFFFFFFFFFFFFFFFFFFFFFFFFFFFFFFFFFFFFFF AND EQ PUSH2 0x216 JUMPI PUSH1 0x40 MLOAD PUSH32 0x30CD747100000000000000000000000000000000000000000000000000000000 DUP2 MSTORE PUSH1 0x4 ADD PUSH1 0x40 MLOAD DUP1 SWAP2 SUB SWAP1 REVERT JUMPDEST PUSH1 0x0 PUSH8 0xFFFFFFFFFFFFFFFF DUP2 GT ISZERO PUSH2 0x231 JUMPI PUSH2 0x230 PUSH2 0x6D5 JUMP JUMPDEST JUMPDEST PUSH1 0x40 MLOAD SWAP1 DUP1 DUP3 MSTORE DUP1 PUSH1 0x20 MUL PUSH1 0x20 ADD DUP3 ADD PUSH1 0x40 MSTORE DUP1 ISZERO PUSH2 0x25F JUMPI DUP2 PUSH1 0x20 ADD PUSH1 0x20 DUP3 MUL DUP1 CALLDATASIZE DUP4 CALLDATACOPY DUP1 DUP3 ADD SWAP2 POP POP SWAP1 POP JUMPDEST POP PUSH1 0x0 SWAP1 DUP1 MLOAD SWAP1 PUSH1 0x20 ADD SWAP1 PUSH2 0x275 SWAP3 SWAP2 SWAP1 PUSH2 0x540 JUMP JUMPDEST POP PUSH1 0x0 CALLER PUSH20 0xFFFFFFFFFFFFFFFFFFFFFFFFFFFFFFFFFFFFFFFF AND SELFBALANCE PUSH1 0x40 MLOAD PUSH2 0x29C SWAP1 PUSH2 0x735 JUMP JUMPDEST PUSH1 0x0 PUSH1 0x40 MLOAD DUP1 DUP4 SUB DUP2 DUP6 DUP8 GAS CALL SWAP3 POP POP POP RETURNDATASIZE DUP1 PUSH1 0x0 DUP2 EQ PUSH2 0x2D9 JUMPI PUSH1 0x40 MLOAD SWAP2 POP PUSH1 0x1F NOT PUSH1 0x3F RETURNDATASIZE ADD AND DUP3 ADD PUSH1 0x40 MSTORE RETURNDATASIZE DUP3 MSTORE RETURNDATASIZE PUSH1 0x0 PUSH1 0x20 DUP5 ADD RETURNDATACOPY PUSH2 0x2DE JUMP JUMPDEST PUSH1 0x60 SWAP2 POP JUMPDEST POP POP SWAP1 POP DUP1 PUSH2 0x322 JUMPI PUSH1 0x40 MLOAD PUSH32 0x8C379A000000000000000000000000000000000000000000000000000000000 DUP2 MSTORE PUSH1 0x4 ADD PUSH2 0x319 SWAP1 PUSH2 0x7A7 JUMP JUMPDEST PUSH1 0x40 MLOAD DUP1 SWAP2 SUB SWAP1 REVERT JUMPDEST POP JUMP JUMPDEST PUSH9 0x2B5E3AF16B1880000 DUP2 JUMP JUMPDEST PUSH1 0x0 DUP1 PUSH2 0x33D PUSH2 0x36C JUMP JUMPDEST SWAP1 POP PUSH1 0x0 PUSH8 0xDE0B6B3A7640000 DUP5 DUP4 PUSH2 0x356 SWAP2 SWAP1 PUSH2 0x7F6 JUMP JUMPDEST PUSH2 0x360 SWAP2 SWAP1 PUSH2 0x87F JUMP JUMPDEST SWAP1 POP DUP1 SWAP3 POP POP POP SWAP2 SWAP1 POP JUMP JUMPDEST PUSH1 0x0 DUP1 PUSH20 0x8A753747A1FA494EC906CE90E9F37563A8AF630E SWAP1 POP PUSH1 0x0 DUP2 PUSH20 0xFFFFFFFFFFFFFFFFFFFFFFFFFFFFFFFFFFFFFFFF AND PUSH4 0xFEAF968C PUSH1 0x40 MLOAD DUP2 PUSH4 0xFFFFFFFF AND PUSH1 0xE0 SHL DUP2 MSTORE PUSH1 0x4 ADD PUSH1 0xA0 PUSH1 0x40 MLOAD DUP1 DUP4 SUB DUP2 DUP7 DUP1 EXTCODESIZE ISZERO DUP1 ISZERO PUSH2 0x3CE JUMPI PUSH1 0x0 DUP1 REVERT JUMPDEST POP GAS STATICCALL ISZERO DUP1 ISZERO PUSH2 0x3E2 JUMPI RETURNDATASIZE PUSH1 0x0 DUP1 RETURNDATACOPY RETURNDATASIZE PUSH1 0x0 REVERT JUMPDEST POP POP POP POP PUSH1 0x40 MLOAD RETURNDATASIZE PUSH1 0x1F NOT PUSH1 0x1F DUP3 ADD AND DUP3 ADD DUP1 PUSH1 0x40 MSTORE POP DUP2 ADD SWAP1 PUSH2 0x406 SWAP2 SWAP1 PUSH2 0x93D JUMP JUMPDEST POP POP POP SWAP2 POP POP PUSH5 0x2540BE400 DUP2 PUSH2 0x41D SWAP2 SWAP1 PUSH2 0x9B8 JUMP JUMPDEST SWAP3 POP POP POP SWAP1 JUMP JUMPDEST PUSH9 0x2B5E3AF16B1880000 PUSH2 0x437 CALLVALUE PUSH2 0x332 JUMP JUMPDEST LT ISZERO PUSH2 0x478 JUMPI PUSH1 0x40 MLOAD PUSH32 0x8C379A000000000000000000000000000000000000000000000000000000000 DUP2 MSTORE PUSH1 0x4 ADD PUSH2 0x46F SWAP1 PUSH2 0xB1B JUMP JUMPDEST PUSH1 0x40 MLOAD DUP1 SWAP2 SUB SWAP1 REVERT JUMPDEST PUSH1 0x0 CALLER SWAP1 DUP1 PUSH1 0x1 DUP2 SLOAD ADD DUP1 DUP3 SSTORE DUP1 SWAP2 POP POP PUSH1 0x1 SWAP1 SUB SWAP1 PUSH1 0x0 MSTORE PUSH1 0x20 PUSH1 0x0 KECCAK256 ADD PUSH1 0x0 SWAP1 SWAP2 SWAP1 SWAP2 SWAP1 SWAP2 PUSH2 0x100 EXP DUP2 SLOAD DUP2 PUSH20 0xFFFFFFFFFFFFFFFFFFFFFFFFFFFFFFFFFFFFFFFF MUL NOT AND SWAP1 DUP4 PUSH20 0xFFFFFFFFFFFFFFFFFFFFFFFFFFFFFFFFFFFFFFFF AND MUL OR SWAP1 SSTORE POP JUMP JUMPDEST PUSH32 0x0 DUP2 JUMP JUMPDEST PUSH1 0x0 DUP2 DUP2 SLOAD DUP2 LT PUSH2 0x511 JUMPI PUSH1 0x0 DUP1 REVERT JUMPDEST SWAP1 PUSH1 0x0 MSTORE PUSH1 0x20 PUSH1 0x0 KECCAK256 ADD PUSH1 0x0 SWAP2 POP SLOAD SWAP1 PUSH2 0x100 EXP SWAP1 DIV PUSH20 0xFFFFFFFFFFFFFFFFFFFFFFFFFFFFFFFFFFFFFFFF AND DUP2 JUMP JUMPDEST DUP3 DUP1 SLOAD DUP3 DUP3 SSTORE SWAP1 PUSH1 0x0 MSTORE PUSH1 0x20 PUSH1 0x0 KECCAK256 SWAP1 DUP2 ADD SWAP3 DUP3 ISZERO PUSH2 0x5B9 JUMPI SWAP2 PUSH1 0x20 MUL DUP3 ADD JUMPDEST DUP3 DUP2 GT ISZERO PUSH2 0x5B8 JUMPI DUP3 MLOAD DUP3 PUSH1 0x0 PUSH2 0x100 EXP DUP2 SLOAD DUP2 PUSH20 0xFFFFFFFFFFFFFFFFFFFFFFFFFFFFFFFFFFFFFFFF MUL NOT AND SWAP1 DUP4 PUSH20 0xFFFFFFFFFFFFFFFFFFFFFFFFFFFFFFFFFFFFFFFF AND MUL OR SWAP1 SSTORE POP SWAP2 PUSH1 0x20 ADD SWAP2 SWAP1 PUSH1 0x1 ADD SWAP1 PUSH2 0x560 JUMP JUMPDEST JUMPDEST POP SWAP1 POP PUSH2 0x5C6 SWAP2 SWAP1 PUSH2 0x5CA JUMP JUMPDEST POP SWAP1 JUMP JUMPDEST JUMPDEST DUP1 DUP3 GT ISZERO PUSH2 0x5E3 JUMPI PUSH1 0x0 DUP2 PUSH1 0x0 SWAP1 SSTORE POP PUSH1 0x1 ADD PUSH2 0x5CB JUMP JUMPDEST POP SWAP1 JUMP JUMPDEST PUSH1 0x0 DUP2 SWAP1 POP SWAP2 SWAP1 POP JUMP JUMPDEST PUSH2 0x5FA DUP2 PUSH2 0x5E7 JUMP JUMPDEST DUP3 MSTORE POP POP JUMP JUMPDEST PUSH1 0x0 PUSH1 0x20 DUP3 ADD SWAP1 POP PUSH2 0x615 PUSH1 0x0 DUP4 ADD DUP5 PUSH2 0x5F1 JUMP JUMPDEST SWAP3 SWAP2 POP POP JUMP JUMPDEST PUSH1 0x0 DUP1 REVERT JUMPDEST PUSH2 0x629 DUP2 PUSH2 0x5E7 JUMP JUMPDEST DUP2 EQ PUSH2 0x634 JUMPI PUSH1 0x0 DUP1 REVERT JUMPDEST POP JUMP JUMPDEST PUSH1 0x0 DUP2 CALLDATALOAD SWAP1 POP PUSH2 0x646 DUP2 PUSH2 0x620 JUMP JUMPDEST SWAP3 SWAP2 POP POP JUMP JUMPDEST PUSH1 0x0 PUSH1 0x20 DUP3 DUP5 SUB SLT ISZERO PUSH2 0x662 JUMPI PUSH2 0x661 PUSH2 0x61B JUMP JUMPDEST JUMPDEST PUSH1 0x0 PUSH2 0x670 DUP5 DUP3 DUP6 ADD PUSH2 0x637 JUMP JUMPDEST SWAP2 POP POP SWAP3 SWAP2 POP POP JUMP JUMPDEST PUSH1 0x0 PUSH20 0xFFFFFFFFFFFFFFFFFFFFFFFFFFFFFFFFFFFFFFFF DUP3 AND SWAP1 POP SWAP2 SWAP1 POP JUMP JUMPDEST PUSH1 0x0 PUSH2 0x6A4 DUP3 PUSH2 0x679 JUMP JUMPDEST SWAP1 POP SWAP2 SWAP1 POP JUMP JUMPDEST PUSH2 0x6B4 DUP2 PUSH2 0x699 JUMP JUMPDEST DUP3 MSTORE POP POP JUMP JUMPDEST PUSH1 0x0 PUSH1 0x20 DUP3 ADD SWAP1 POP PUSH2 0x6CF PUSH1 0x0 DUP4 ADD DUP5 PUSH2 0x6AB JUMP JUMPDEST SWAP3 SWAP2 POP POP JUMP JUMPDEST PUSH32 0x4E487B7100000000000000000000000000000000000000000000000000000000 PUSH1 0x0 MSTORE PUSH1 0x41 PUSH1 0x4 MSTORE PUSH1 0x24 PUSH1 0x0 REVERT JUMPDEST PUSH1 0x0 DUP2 SWAP1 POP SWAP3 SWAP2 POP POP JUMP JUMPDEST POP JUMP JUMPDEST PUSH1 0x0 PUSH2 0x71F PUSH1 0x0 DUP4 PUSH2 0x704 JUMP JUMPDEST SWAP2 POP PUSH2 0x72A DUP3 PUSH2 0x70F JUMP JUMPDEST PUSH1 0x0 DUP3 ADD SWAP1 POP SWAP2 SWAP1 POP JUMP JUMPDEST PUSH1 0x0 PUSH2 0x740 DUP3 PUSH2 0x712 JUMP JUMPDEST SWAP2 POP DUP2 SWAP1 POP SWAP2 SWAP1 POP JUMP JUMPDEST PUSH1 0x0 DUP3 DUP3 MSTORE PUSH1 0x20 DUP3 ADD SWAP1 POP SWAP3 SWAP2 POP POP JUMP JUMPDEST PUSH32 0x53656E64206661696C6564000000000000000000000000000000000000000000 PUSH1 0x0 DUP3 ADD MSTORE POP JUMP JUMPDEST PUSH1 0x0 PUSH2 0x791 PUSH1 0xB DUP4 PUSH2 0x74A JUMP JUMPDEST SWAP2 POP PUSH2 0x79C DUP3 PUSH2 0x75B JUMP JUMPDEST PUSH1 0x20 DUP3 ADD SWAP1 POP SWAP2 SWAP1 POP JUMP JUMPDEST PUSH1 0x0 PUSH1 0x20 DUP3 ADD SWAP1 POP DUP2 DUP2 SUB PUSH1 0x0 DUP4 ADD MSTORE PUSH2 0x7C0 DUP2 PUSH2 0x784 JUMP JUMPDEST SWAP1 POP SWAP2 SWAP1 POP JUMP JUMPDEST PUSH32 0x4E487B7100000000000000000000000000000000000000000000000000000000 PUSH1 0x0 MSTORE PUSH1 0x11 PUSH1 0x4 MSTORE PUSH1 0x24 PUSH1 0x0 REVERT JUMPDEST PUSH1 0x0 PUSH2 0x801 DUP3 PUSH2 0x5E7 JUMP JUMPDEST SWAP2 POP PUSH2 0x80C DUP4 PUSH2 0x5E7 JUMP JUMPDEST SWAP3 POP DUP2 PUSH32 0xFFFFFFFFFFFFFFFFFFFFFFFFFFFFFFFFFFFFFFFFFFFFFFFFFFFFFFFFFFFFFFFF DIV DUP4 GT DUP3 ISZERO ISZERO AND ISZERO PUSH2 0x845 JUMPI PUSH2 0x844 PUSH2 0x7C7 JUMP JUMPDEST JUMPDEST DUP3 DUP3 MUL SWAP1 POP SWAP3 SWAP2 POP POP JUMP JUMPDEST PUSH32 0x4E487B7100000000000000000000000000000000000000000000000000000000 PUSH1 0x0 MSTORE PUSH1 0x12 PUSH1 0x4 MSTORE PUSH1 0x24 PUSH1 0x0 REVERT JUMPDEST PUSH1 0x0 PUSH2 0x88A DUP3 PUSH2 0x5E7 JUMP JUMPDEST SWAP2 POP PUSH2 0x895 DUP4 PUSH2 0x5E7 JUMP JUMPDEST SWAP3 POP DUP3 PUSH2 0x8A5 JUMPI PUSH2 0x8A4 PUSH2 0x850 JUMP JUMPDEST JUMPDEST DUP3 DUP3 DIV SWAP1 POP SWAP3 SWAP2 POP POP JUMP JUMPDEST PUSH1 0x0 PUSH10 0xFFFFFFFFFFFFFFFFFFFF DUP3 AND SWAP1 POP SWAP2 SWAP1 POP JUMP JUMPDEST PUSH2 0x8CF DUP2 PUSH2 0x8B0 JUMP JUMPDEST DUP2 EQ PUSH2 0x8DA JUMPI PUSH1 0x0 DUP1 REVERT JUMPDEST POP JUMP JUMPDEST PUSH1 0x0 DUP2 MLOAD SWAP1 POP PUSH2 0x8EC DUP2 PUSH2 0x8C6 JUMP JUMPDEST SWAP3 SWAP2 POP POP JUMP JUMPDEST PUSH1 0x0 DUP2 SWAP1 POP SWAP2 SWAP1 POP JUMP JUMPDEST PUSH2 0x905 DUP2 PUSH2 0x8F2 JUMP JUMPDEST DUP2 EQ PUSH2 0x910 JUMPI PUSH1 0x0 DUP1 REVERT JUMPDEST POP JUMP JUMPDEST PUSH1 0x0 DUP2 MLOAD SWAP1 POP PUSH2 0x922 DUP2 PUSH2 0x8FC JUMP JUMPDEST SWAP3 SWAP2 POP POP JUMP JUMPDEST PUSH1 0x0 DUP2 MLOAD SWAP1 POP PUSH2 0x937 DUP2 PUSH2 0x620 JUMP JUMPDEST SWAP3 SWAP2 POP POP JUMP JUMPDEST PUSH1 0x0 DUP1 PUSH1 0x0 DUP1 PUSH1 0x0 PUSH1 0xA0 DUP7 DUP9 SUB SLT ISZERO PUSH2 0x959 JUMPI PUSH2 0x958 PUSH2 0x61B JUMP JUMPDEST JUMPDEST PUSH1 0x0 PUSH2 0x967 DUP9 DUP3 DUP10 ADD PUSH2 0x8DD JUMP JUMPDEST SWAP6 POP POP PUSH1 0x20 PUSH2 0x978 DUP9 DUP3 DUP10 ADD PUSH2 0x913 JUMP JUMPDEST SWAP5 POP POP PUSH1 0x40 PUSH2 0x989 DUP9 DUP3 DUP10 ADD PUSH2 0x928 JUMP JUMPDEST SWAP4 POP POP PUSH1 0x60 PUSH2 0x99A DUP9 DUP3 DUP10 ADD PUSH2 0x928 JUMP JUMPDEST SWAP3 POP POP PUSH1 0x80 PUSH2 0x9AB DUP9 DUP3 DUP10 ADD PUSH2 0x8DD JUMP JUMPDEST SWAP2 POP POP SWAP3 SWAP6 POP SWAP3 SWAP6 SWAP1 SWAP4 POP JUMP JUMPDEST PUSH1 0x0 PUSH2 0x9C3 DUP3 PUSH2 0x8F2 JUMP JUMPDEST SWAP2 POP PUSH2 0x9CE DUP4 PUSH2 0x8F2 JUMP JUMPDEST SWAP3 POP DUP3 PUSH32 0x7FFFFFFFFFFFFFFFFFFFFFFFFFFFFFFFFFFFFFFFFFFFFFFFFFFFFFFFFFFFFFFF DIV DUP3 GT PUSH1 0x0 DUP5 SGT PUSH1 0x0 DUP5 SGT AND AND ISZERO PUSH2 0xA0D JUMPI PUSH2 0xA0C PUSH2 0x7C7 JUMP JUMPDEST JUMPDEST DUP2 PUSH32 0x8000000000000000000000000000000000000000000000000000000000000000 SDIV DUP4 SLT PUSH1 0x0 DUP5 SLT PUSH1 0x0 DUP5 SGT AND AND ISZERO PUSH2 0xA4A JUMPI PUSH2 0xA49 PUSH2 0x7C7 JUMP JUMPDEST JUMPDEST DUP3 PUSH32 0x8000000000000000000000000000000000000000000000000000000000000000 SDIV DUP3 SLT PUSH1 0x0 DUP5 SGT PUSH1 0x0 DUP5 SLT AND AND ISZERO PUSH2 0xA87 JUMPI PUSH2 0xA86 PUSH2 0x7C7 JUMP JUMPDEST JUMPDEST DUP3 PUSH32 0x7FFFFFFFFFFFFFFFFFFFFFFFFFFFFFFFFFFFFFFFFFFFFFFFFFFFFFFFFFFFFFFF SDIV DUP3 SLT PUSH1 0x0 DUP5 SLT PUSH1 0x0 DUP5 SLT AND AND ISZERO PUSH2 0xAC4 JUMPI PUSH2 0xAC3 PUSH2 0x7C7 JUMP JUMPDEST JUMPDEST DUP3 DUP3 MUL SWAP1 POP SWAP3 SWAP2 POP POP JUMP JUMPDEST PUSH32 0x4469646E27742073656E6420656E6F7567680000000000000000000000000000 PUSH1 0x0 DUP3 ADD MSTORE POP JUMP JUMPDEST PUSH1 0x0 PUSH2 0xB05 PUSH1 0x12 DUP4 PUSH2 0x74A JUMP JUMPDEST SWAP2 POP PUSH2 0xB10 DUP3 PUSH2 0xACF JUMP JUMPDEST PUSH1 0x20 DUP3 ADD SWAP1 POP SWAP2 SWAP1 POP JUMP JUMPDEST PUSH1 0x0 PUSH1 0x20 DUP3 ADD SWAP1 POP DUP2 DUP2 SUB PUSH1 0x0 DUP4 ADD MSTORE PUSH2 0xB34 DUP2 PUSH2 0xAF8 JUMP JUMPDEST SWAP1 POP SWAP2 SWAP1 POP JUMP INVALID LOG2 PUSH5 0x6970667358 0x22 SLT KECCAK256 STATICCALL LOG3 NOT LOG0 PUSH25 0x217EEA4069065143E13FCFC22A2A24BDAEB067995D63083535 PUSH8 0x8164736F6C634300 ADDMOD ADDMOD STOP CALLER "
				},
				"gasEstimates": {
					"creation": {
						"codeDepositCost": "585800",
						"executionCost": "infinite",
						"totalCost": "infinite"
					},
					"external": {
						"MINIMUM_USD()": "352",
						"fund()": "infinite",
						"funders(uint256)": "5022",
						"getConversionRate(uint256)": "infinite",
						"getPrice()": "infinite",
						"i_owner()": "infinite",
						"withdraw()": "infinite"
					}
				},
				"methodIdentifiers": {
					"MINIMUM_USD()": "6b69a592",
					"fund()": "b60d4288",
					"funders(uint256)": "dc0d3dff",
					"getConversionRate(uint256)": "6e5b6b28",
					"getPrice()": "98d5fdca",
					"i_owner()": "dba6335f",
					"withdraw()": "3ccfd60b"
				}
			},
			"storageLayout": {
				"storage": [
					{
						"astId": 58,
						"contract": "contracts/FundMe.sol:FundMe",
						"label": "funders",
						"offset": 0,
						"slot": "0",
						"type": "t_array(t_address)dyn_storage"
					}
				],
				"types": {
					"t_address": {
						"encoding": "inplace",
						"label": "address",
						"numberOfBytes": "20"
					},
					"t_array(t_address)dyn_storage": {
						"base": "t_address",
						"encoding": "dynamic_array",
						"label": "address[]",
						"numberOfBytes": "32"
					}
				}
			},
			"userdoc": {
				"kind": "user",
				"methods": {},
				"version": 1
			}
		}
	}
}