{
	"contracts/FundMe.sol": {
		"FundMe": {
			"abi": [
				{
					"inputs": [],
					"name": "fund",
					"outputs": [],
					"stateMutability": "payable",
					"type": "function"
				},
				{
					"inputs": [
						{
							"internalType": "uint256",
							"name": "",
							"type": "uint256"
						}
					],
					"name": "funders",
					"outputs": [
						{
							"internalType": "address",
							"name": "",
							"type": "address"
						}
					],
					"stateMutability": "view",
					"type": "function"
				},
				{
					"inputs": [
						{
							"internalType": "uint256",
							"name": "ethAmount",
							"type": "uint256"
						}
					],
					"name": "getConversionRate",
					"outputs": [
						{
							"internalType": "uint256",
							"name": "",
							"type": "uint256"
						}
					],
					"stateMutability": "view",
					"type": "function"
				},
				{
					"inputs": [],
					"name": "getPrice",
					"outputs": [
						{
							"internalType": "uint256",
							"name": "",
							"type": "uint256"
						}
					],
					"stateMutability": "view",
					"type": "function"
				},
				{
					"inputs": [],
					"name": "minimumUsd",
					"outputs": [
						{
							"internalType": "uint256",
							"name": "",
							"type": "uint256"
						}
					],
					"stateMutability": "view",
					"type": "function"
				},
				{
					"inputs": [],
					"name": "withdraw",
					"outputs": [],
					"stateMutability": "nonpayable",
					"type": "function"
				}
			],
			"devdoc": {
				"kind": "dev",
				"methods": {},
				"version": 1
			},
			"evm": {
				"assembly": "    /* \"contracts/FundMe.sol\":142:2264  contract FundMe {... */\n  mstore(0x40, 0x80)\n    /* \"contracts/FundMe.sol\":193:202  50 * 1e18 */\n  0x02b5e3af16b1880000\n    /* \"contracts/FundMe.sol\":165:202  uint256 public minimumUsd = 50 * 1e18 */\n  0x00\n  sstore\n    /* \"contracts/FundMe.sol\":142:2264  contract FundMe {... */\n  callvalue\n  dup1\n  iszero\n  tag_1\n  jumpi\n  0x00\n  dup1\n  revert\ntag_1:\n  pop\n  dataSize(sub_0)\n  dup1\n  dataOffset(sub_0)\n  0x00\n  codecopy\n  0x00\n  return\nstop\n\nsub_0: assembly {\n        /* \"contracts/FundMe.sol\":142:2264  contract FundMe {... */\n      mstore(0x40, 0x80)\n      jumpi(tag_1, lt(calldatasize, 0x04))\n      shr(0xe0, calldataload(0x00))\n      dup1\n      0x098de820\n      eq\n      tag_2\n      jumpi\n      dup1\n      0x3ccfd60b\n      eq\n      tag_3\n      jumpi\n      dup1\n      0x6e5b6b28\n      eq\n      tag_4\n      jumpi\n      dup1\n      0x98d5fdca\n      eq\n      tag_5\n      jumpi\n      dup1\n      0xb60d4288\n      eq\n      tag_6\n      jumpi\n      dup1\n      0xdc0d3dff\n      eq\n      tag_7\n      jumpi\n    tag_1:\n      0x00\n      dup1\n      revert\n        /* \"contracts/FundMe.sol\":165:202  uint256 public minimumUsd = 50 * 1e18 */\n    tag_2:\n      callvalue\n      dup1\n      iszero\n      tag_8\n      jumpi\n      0x00\n      dup1\n      revert\n    tag_8:\n      pop\n      tag_9\n      tag_10\n      jump\t// in\n    tag_9:\n      mload(0x40)\n      tag_11\n      swap2\n      swap1\n      tag_12\n      jump\t// in\n    tag_11:\n      mload(0x40)\n      dup1\n      swap2\n      sub\n      swap1\n      return\n        /* \"contracts/FundMe.sol\":1245:2261  function withdraw() public {... */\n    tag_3:\n      callvalue\n      dup1\n      iszero\n      tag_13\n      jumpi\n      0x00\n      dup1\n      revert\n    tag_13:\n      pop\n      tag_14\n      tag_15\n      jump\t// in\n    tag_14:\n      stop\n        /* \"contracts/FundMe.sol\":957:1237  function getConversionRate(uint256 ethAmount) public view returns (uint256) {... */\n    tag_4:\n      callvalue\n      dup1\n      iszero\n      tag_16\n      jumpi\n      0x00\n      dup1\n      revert\n    tag_16:\n      pop\n      tag_17\n      0x04\n      dup1\n      calldatasize\n      sub\n      dup2\n      add\n      swap1\n      tag_18\n      swap2\n      swap1\n      tag_19\n      jump\t// in\n    tag_18:\n      tag_20\n      jump\t// in\n    tag_17:\n      mload(0x40)\n      tag_21\n      swap2\n      swap1\n      tag_12\n      jump\t// in\n    tag_21:\n      mload(0x40)\n      dup1\n      swap2\n      sub\n      swap1\n      return\n        /* \"contracts/FundMe.sol\":674:941  function getPrice() public view returns(uint256) {... */\n    tag_5:\n      callvalue\n      dup1\n      iszero\n      tag_22\n      jumpi\n      0x00\n      dup1\n      revert\n    tag_22:\n      pop\n      tag_23\n      tag_24\n      jump\t// in\n    tag_23:\n      mload(0x40)\n      tag_25\n      swap2\n      swap1\n      tag_12\n      jump\t// in\n    tag_25:\n      mload(0x40)\n      dup1\n      swap2\n      sub\n      swap1\n      return\n        /* \"contracts/FundMe.sol\":302:630  function fund() public payable {... */\n    tag_6:\n      tag_26\n      tag_27\n      jump\t// in\n    tag_26:\n      stop\n        /* \"contracts/FundMe.sol\":211:235  address[] public funders */\n    tag_7:\n      callvalue\n      dup1\n      iszero\n      tag_28\n      jumpi\n      0x00\n      dup1\n      revert\n    tag_28:\n      pop\n      tag_29\n      0x04\n      dup1\n      calldatasize\n      sub\n      dup2\n      add\n      swap1\n      tag_30\n      swap2\n      swap1\n      tag_19\n      jump\t// in\n    tag_30:\n      tag_31\n      jump\t// in\n    tag_29:\n      mload(0x40)\n      tag_32\n      swap2\n      swap1\n      tag_33\n      jump\t// in\n    tag_32:\n      mload(0x40)\n      dup1\n      swap2\n      sub\n      swap1\n      return\n        /* \"contracts/FundMe.sol\":165:202  uint256 public minimumUsd = 50 * 1e18 */\n    tag_10:\n      sload(0x00)\n      dup2\n      jump\t// out\n        /* \"contracts/FundMe.sol\":1245:2261  function withdraw() public {... */\n    tag_15:\n        /* \"contracts/FundMe.sol\":1287:1306  uint256 funderIndex */\n      0x00\n        /* \"contracts/FundMe.sol\":1283:1421  for(uint256 funderIndex = 0; funderIndex < funders.length; funderIndex++) {... */\n    tag_35:\n        /* \"contracts/FundMe.sol\":1326:1333  funders */\n      0x01\n        /* \"contracts/FundMe.sol\":1326:1340  funders.length */\n      dup1\n      sload\n      swap1\n      pop\n        /* \"contracts/FundMe.sol\":1312:1323  funderIndex */\n      dup2\n        /* \"contracts/FundMe.sol\":1312:1340  funderIndex < funders.length */\n      lt\n        /* \"contracts/FundMe.sol\":1283:1421  for(uint256 funderIndex = 0; funderIndex < funders.length; funderIndex++) {... */\n      iszero\n      tag_36\n      jumpi\n        /* \"contracts/FundMe.sol\":1372:1386  address funder */\n      0x00\n        /* \"contracts/FundMe.sol\":1389:1396  funders */\n      0x01\n        /* \"contracts/FundMe.sol\":1397:1408  funderIndex */\n      dup3\n        /* \"contracts/FundMe.sol\":1389:1409  funders[funderIndex] */\n      dup2\n      sload\n      dup2\n      lt\n      tag_38\n      jumpi\n      tag_39\n      tag_40\n      jump\t// in\n    tag_39:\n    tag_38:\n      swap1\n      0x00\n      mstore\n      keccak256(0x00, 0x20)\n      add\n      0x00\n      swap1\n      sload\n      swap1\n      0x0100\n      exp\n      swap1\n      div\n      0xffffffffffffffffffffffffffffffffffffffff\n      and\n        /* \"contracts/FundMe.sol\":1372:1409  address funder = funders[funderIndex] */\n      swap1\n      pop\n        /* \"contracts/FundMe.sol\":1357:1421  {... */\n      pop\n        /* \"contracts/FundMe.sol\":1342:1355  funderIndex++ */\n      dup1\n      dup1\n      tag_42\n      swap1\n      tag_43\n      jump\t// in\n    tag_42:\n      swap2\n      pop\n      pop\n        /* \"contracts/FundMe.sol\":1283:1421  for(uint256 funderIndex = 0; funderIndex < funders.length; funderIndex++) {... */\n      jump(tag_35)\n    tag_36:\n      pop\n        /* \"contracts/FundMe.sol\":1488:1489  0 */\n      0x00\n        /* \"contracts/FundMe.sol\":1474:1490  new address[](0) */\n      0xffffffffffffffff\n      dup2\n      gt\n      iszero\n      tag_44\n      jumpi\n      tag_45\n      tag_46\n      jump\t// in\n    tag_45:\n    tag_44:\n      mload(0x40)\n      swap1\n      dup1\n      dup3\n      mstore\n      dup1\n      0x20\n      mul\n      0x20\n      add\n      dup3\n      add\n      0x40\n      mstore\n      dup1\n      iszero\n      tag_47\n      jumpi\n      dup2\n      0x20\n      add\n      0x20\n      dup3\n      mul\n      dup1\n      calldatasize\n      dup4\n      calldatacopy\n      dup1\n      dup3\n      add\n      swap2\n      pop\n      pop\n      swap1\n      pop\n    tag_47:\n      pop\n        /* \"contracts/FundMe.sol\":1464:1471  funders */\n      0x01\n        /* \"contracts/FundMe.sol\":1464:1490  funders = new address[](0) */\n      swap1\n      dup1\n      mload\n      swap1\n      0x20\n      add\n      swap1\n      tag_48\n      swap3\n      swap2\n      swap1\n      tag_49\n      jump\t// in\n    tag_48:\n      pop\n        /* \"contracts/FundMe.sol\":2127:2143  bool callSuccess */\n      0x00\n        /* \"contracts/FundMe.sol\":2157:2167  msg.sender */\n      caller\n        /* \"contracts/FundMe.sol\":2149:2173  payable(msg.sender).call */\n      0xffffffffffffffffffffffffffffffffffffffff\n      and\n        /* \"contracts/FundMe.sol\":2181:2202  address(this).balance */\n      selfbalance\n        /* \"contracts/FundMe.sol\":2149:2207  payable(msg.sender).call{value: address(this).balance}(\"\") */\n      mload(0x40)\n      tag_50\n      swap1\n      tag_51\n      jump\t// in\n    tag_50:\n      0x00\n      mload(0x40)\n      dup1\n      dup4\n      sub\n      dup2\n      dup6\n      dup8\n      gas\n      call\n      swap3\n      pop\n      pop\n      pop\n      returndatasize\n      dup1\n      0x00\n      dup2\n      eq\n      tag_54\n      jumpi\n      mload(0x40)\n      swap2\n      pop\n      and(add(returndatasize, 0x3f), not(0x1f))\n      dup3\n      add\n      0x40\n      mstore\n      returndatasize\n      dup3\n      mstore\n      returndatasize\n      0x00\n      0x20\n      dup5\n      add\n      returndatacopy\n      jump(tag_53)\n    tag_54:\n      0x60\n      swap2\n      pop\n    tag_53:\n      pop\n        /* \"contracts/FundMe.sol\":2126:2207  (bool callSuccess, ) = payable(msg.sender).call{value: address(this).balance}(\"\") */\n      pop\n      swap1\n      pop\n        /* \"contracts/FundMe.sol\":2226:2237  callSuccess */\n      dup1\n        /* \"contracts/FundMe.sol\":2218:2253  require(callSuccess, \"Send failed\") */\n      tag_55\n      jumpi\n      mload(0x40)\n      0x08c379a000000000000000000000000000000000000000000000000000000000\n      dup2\n      mstore\n      0x04\n      add\n      tag_56\n      swap1\n      tag_57\n      jump\t// in\n    tag_56:\n      mload(0x40)\n      dup1\n      swap2\n      sub\n      swap1\n      revert\n    tag_55:\n        /* \"contracts/FundMe.sol\":1272:2261  {... */\n      pop\n        /* \"contracts/FundMe.sol\":1245:2261  function withdraw() public {... */\n      jump\t// out\n        /* \"contracts/FundMe.sol\":957:1237  function getConversionRate(uint256 ethAmount) public view returns (uint256) {... */\n    tag_20:\n        /* \"contracts/FundMe.sol\":1024:1031  uint256 */\n      0x00\n        /* \"contracts/FundMe.sol\":1044:1060  uint256 ethPrice */\n      dup1\n        /* \"contracts/FundMe.sol\":1063:1073  getPrice() */\n      tag_59\n        /* \"contracts/FundMe.sol\":1063:1071  getPrice */\n      tag_24\n        /* \"contracts/FundMe.sol\":1063:1073  getPrice() */\n      jump\t// in\n    tag_59:\n        /* \"contracts/FundMe.sol\":1044:1073  uint256 ethPrice = getPrice() */\n      swap1\n      pop\n        /* \"contracts/FundMe.sol\":1141:1163  uint256 ethAmountInUsd */\n      0x00\n        /* \"contracts/FundMe.sol\":1191:1195  1e18 */\n      0x0de0b6b3a7640000\n        /* \"contracts/FundMe.sol\":1178:1187  ethAmount */\n      dup5\n        /* \"contracts/FundMe.sol\":1167:1175  ethPrice */\n      dup4\n        /* \"contracts/FundMe.sol\":1167:1187  ethPrice * ethAmount */\n      tag_60\n      swap2\n      swap1\n      tag_61\n      jump\t// in\n    tag_60:\n        /* \"contracts/FundMe.sol\":1166:1195  (ethPrice * ethAmount) / 1e18 */\n      tag_62\n      swap2\n      swap1\n      tag_63\n      jump\t// in\n    tag_62:\n        /* \"contracts/FundMe.sol\":1141:1195  uint256 ethAmountInUsd = (ethPrice * ethAmount) / 1e18 */\n      swap1\n      pop\n        /* \"contracts/FundMe.sol\":1215:1229  ethAmountInUsd */\n      dup1\n        /* \"contracts/FundMe.sol\":1208:1229  return ethAmountInUsd */\n      swap3\n      pop\n      pop\n      pop\n        /* \"contracts/FundMe.sol\":957:1237  function getConversionRate(uint256 ethAmount) public view returns (uint256) {... */\n      swap2\n      swap1\n      pop\n      jump\t// out\n        /* \"contracts/FundMe.sol\":674:941  function getPrice() public view returns(uint256) {... */\n    tag_24:\n        /* \"contracts/FundMe.sol\":714:721  uint256 */\n      0x00\n        /* \"contracts/FundMe.sol\":734:765  AggregatorV3Interface priceFeed */\n      dup1\n        /* \"contracts/FundMe.sol\":790:832  0x8A753747A1Fa494EC906cE90E9f37563A8AF630e */\n      0x8a753747a1fa494ec906ce90e9f37563a8af630e\n        /* \"contracts/FundMe.sol\":734:833  AggregatorV3Interface priceFeed = AggregatorV3Interface(0x8A753747A1Fa494EC906cE90E9f37563A8AF630e) */\n      swap1\n      pop\n        /* \"contracts/FundMe.sol\":846:858  int256 price */\n      0x00\n        /* \"contracts/FundMe.sol\":865:874  priceFeed */\n      dup2\n        /* \"contracts/FundMe.sol\":865:890  priceFeed.latestRoundData */\n      0xffffffffffffffffffffffffffffffffffffffff\n      and\n      0xfeaf968c\n        /* \"contracts/FundMe.sol\":865:892  priceFeed.latestRoundData() */\n      mload(0x40)\n      dup2\n      0xffffffff\n      and\n      0xe0\n      shl\n      dup2\n      mstore\n      0x04\n      add\n      0xa0\n      mload(0x40)\n      dup1\n      dup4\n      sub\n      dup2\n      dup7\n      dup1\n      extcodesize\n      iszero\n      dup1\n      iszero\n      tag_65\n      jumpi\n      0x00\n      dup1\n      revert\n    tag_65:\n      pop\n      gas\n      staticcall\n      iszero\n      dup1\n      iszero\n      tag_67\n      jumpi\n      returndatasize\n      0x00\n      dup1\n      returndatacopy\n      revert(0x00, returndatasize)\n    tag_67:\n      pop\n      pop\n      pop\n      pop\n      mload(0x40)\n      returndatasize\n      not(0x1f)\n      0x1f\n      dup3\n      add\n      and\n      dup3\n      add\n      dup1\n      0x40\n      mstore\n      pop\n      dup2\n      add\n      swap1\n      tag_68\n      swap2\n      swap1\n      tag_69\n      jump\t// in\n    tag_68:\n        /* \"contracts/FundMe.sol\":844:892  (,int256 price,,,) = priceFeed.latestRoundData() */\n      pop\n      pop\n      pop\n      swap2\n      pop\n      pop\n        /* \"contracts/FundMe.sol\":928:932  1e10 */\n      0x02540be400\n        /* \"contracts/FundMe.sol\":920:925  price */\n      dup2\n        /* \"contracts/FundMe.sol\":920:932  price * 1e10 */\n      tag_70\n      swap2\n      swap1\n      tag_71\n      jump\t// in\n    tag_70:\n        /* \"contracts/FundMe.sol\":905:933  return uint256(price * 1e10) */\n      swap3\n      pop\n      pop\n      pop\n        /* \"contracts/FundMe.sol\":674:941  function getPrice() public view returns(uint256) {... */\n      swap1\n      jump\t// out\n        /* \"contracts/FundMe.sol\":302:630  function fund() public payable {... */\n    tag_27:\n        /* \"contracts/FundMe.sol\":554:564  minimumUsd */\n      sload(0x00)\n        /* \"contracts/FundMe.sol\":522:550  getConversionRate(msg.value) */\n      tag_73\n        /* \"contracts/FundMe.sol\":540:549  msg.value */\n      callvalue\n        /* \"contracts/FundMe.sol\":522:539  getConversionRate */\n      tag_20\n        /* \"contracts/FundMe.sol\":522:550  getConversionRate(msg.value) */\n      jump\t// in\n    tag_73:\n        /* \"contracts/FundMe.sol\":522:564  getConversionRate(msg.value) >= minimumUsd */\n      lt\n      iszero\n        /* \"contracts/FundMe.sol\":514:587  require(getConversionRate(msg.value) >= minimumUsd, \"Didn't send enough\") */\n      tag_74\n      jumpi\n      mload(0x40)\n      0x08c379a000000000000000000000000000000000000000000000000000000000\n      dup2\n      mstore\n      0x04\n      add\n      tag_75\n      swap1\n      tag_76\n      jump\t// in\n    tag_75:\n      mload(0x40)\n      dup1\n      swap2\n      sub\n      swap1\n      revert\n    tag_74:\n        /* \"contracts/FundMe.sol\":598:605  funders */\n      0x01\n        /* \"contracts/FundMe.sol\":611:621  msg.sender */\n      caller\n        /* \"contracts/FundMe.sol\":598:622  funders.push(msg.sender) */\n      swap1\n      dup1\n      0x01\n      dup2\n      sload\n      add\n      dup1\n      dup3\n      sstore\n      dup1\n      swap2\n      pop\n      pop\n      0x01\n      swap1\n      sub\n      swap1\n      0x00\n      mstore\n      keccak256(0x00, 0x20)\n      add\n      0x00\n      swap1\n      swap2\n      swap1\n      swap2\n      swap1\n      swap2\n      0x0100\n      exp\n      dup2\n      sload\n      dup2\n      0xffffffffffffffffffffffffffffffffffffffff\n      mul\n      not\n      and\n      swap1\n      dup4\n      0xffffffffffffffffffffffffffffffffffffffff\n      and\n      mul\n      or\n      swap1\n      sstore\n      pop\n        /* \"contracts/FundMe.sol\":302:630  function fund() public payable {... */\n      jump\t// out\n        /* \"contracts/FundMe.sol\":211:235  address[] public funders */\n    tag_31:\n      0x01\n      dup2\n      dup2\n      sload\n      dup2\n      lt\n      tag_78\n      jumpi\n      0x00\n      dup1\n      revert\n    tag_78:\n      swap1\n      0x00\n      mstore\n      keccak256(0x00, 0x20)\n      add\n      0x00\n      swap2\n      pop\n      sload\n      swap1\n      0x0100\n      exp\n      swap1\n      div\n      0xffffffffffffffffffffffffffffffffffffffff\n      and\n      dup2\n      jump\t// out\n    tag_49:\n      dup3\n      dup1\n      sload\n      dup3\n      dup3\n      sstore\n      swap1\n      0x00\n      mstore\n      keccak256(0x00, 0x20)\n      swap1\n      dup2\n      add\n      swap3\n      dup3\n      iszero\n      tag_80\n      jumpi\n      swap2\n      0x20\n      mul\n      dup3\n      add\n    tag_81:\n      dup3\n      dup2\n      gt\n      iszero\n      tag_82\n      jumpi\n      dup3\n      mload\n      dup3\n      exp(0x0100, 0x00)\n      dup2\n      sload\n      dup2\n      0xffffffffffffffffffffffffffffffffffffffff\n      mul\n      not\n      and\n      swap1\n      dup4\n      0xffffffffffffffffffffffffffffffffffffffff\n      and\n      mul\n      or\n      swap1\n      sstore\n      pop\n      swap2\n      0x20\n      add\n      swap2\n      swap1\n      0x01\n      add\n      swap1\n      jump(tag_81)\n    tag_82:\n    tag_80:\n      pop\n      swap1\n      pop\n      tag_83\n      swap2\n      swap1\n      tag_84\n      jump\t// in\n    tag_83:\n      pop\n      swap1\n      jump\t// out\n    tag_84:\n    tag_85:\n      dup1\n      dup3\n      gt\n      iszero\n      tag_86\n      jumpi\n      0x00\n      dup2\n      0x00\n      swap1\n      sstore\n      pop\n      0x01\n      add\n      jump(tag_85)\n    tag_86:\n      pop\n      swap1\n      jump\t// out\n        /* \"#utility.yul\":7:84   */\n    tag_87:\n        /* \"#utility.yul\":44:51   */\n      0x00\n        /* \"#utility.yul\":73:78   */\n      dup2\n        /* \"#utility.yul\":62:78   */\n      swap1\n      pop\n        /* \"#utility.yul\":7:84   */\n      swap2\n      swap1\n      pop\n      jump\t// out\n        /* \"#utility.yul\":90:208   */\n    tag_88:\n        /* \"#utility.yul\":177:201   */\n      tag_117\n        /* \"#utility.yul\":195:200   */\n      dup2\n        /* \"#utility.yul\":177:201   */\n      tag_87\n      jump\t// in\n    tag_117:\n        /* \"#utility.yul\":172:175   */\n      dup3\n        /* \"#utility.yul\":165:202   */\n      mstore\n        /* \"#utility.yul\":90:208   */\n      pop\n      pop\n      jump\t// out\n        /* \"#utility.yul\":214:436   */\n    tag_12:\n        /* \"#utility.yul\":307:311   */\n      0x00\n        /* \"#utility.yul\":345:347   */\n      0x20\n        /* \"#utility.yul\":334:343   */\n      dup3\n        /* \"#utility.yul\":330:348   */\n      add\n        /* \"#utility.yul\":322:348   */\n      swap1\n      pop\n        /* \"#utility.yul\":358:429   */\n      tag_119\n        /* \"#utility.yul\":426:427   */\n      0x00\n        /* \"#utility.yul\":415:424   */\n      dup4\n        /* \"#utility.yul\":411:428   */\n      add\n        /* \"#utility.yul\":402:408   */\n      dup5\n        /* \"#utility.yul\":358:429   */\n      tag_88\n      jump\t// in\n    tag_119:\n        /* \"#utility.yul\":214:436   */\n      swap3\n      swap2\n      pop\n      pop\n      jump\t// out\n        /* \"#utility.yul\":523:640   */\n    tag_90:\n        /* \"#utility.yul\":632:633   */\n      0x00\n        /* \"#utility.yul\":629:630   */\n      dup1\n        /* \"#utility.yul\":622:634   */\n      revert\n        /* \"#utility.yul\":769:891   */\n    tag_92:\n        /* \"#utility.yul\":842:866   */\n      tag_124\n        /* \"#utility.yul\":860:865   */\n      dup2\n        /* \"#utility.yul\":842:866   */\n      tag_87\n      jump\t// in\n    tag_124:\n        /* \"#utility.yul\":835:840   */\n      dup2\n        /* \"#utility.yul\":832:867   */\n      eq\n        /* \"#utility.yul\":822:885   */\n      tag_125\n      jumpi\n        /* \"#utility.yul\":881:882   */\n      0x00\n        /* \"#utility.yul\":878:879   */\n      dup1\n        /* \"#utility.yul\":871:883   */\n      revert\n        /* \"#utility.yul\":822:885   */\n    tag_125:\n        /* \"#utility.yul\":769:891   */\n      pop\n      jump\t// out\n        /* \"#utility.yul\":897:1036   */\n    tag_93:\n        /* \"#utility.yul\":943:948   */\n      0x00\n        /* \"#utility.yul\":981:987   */\n      dup2\n        /* \"#utility.yul\":968:988   */\n      calldataload\n        /* \"#utility.yul\":959:988   */\n      swap1\n      pop\n        /* \"#utility.yul\":997:1030   */\n      tag_127\n        /* \"#utility.yul\":1024:1029   */\n      dup2\n        /* \"#utility.yul\":997:1030   */\n      tag_92\n      jump\t// in\n    tag_127:\n        /* \"#utility.yul\":897:1036   */\n      swap3\n      swap2\n      pop\n      pop\n      jump\t// out\n        /* \"#utility.yul\":1042:1371   */\n    tag_19:\n        /* \"#utility.yul\":1101:1107   */\n      0x00\n        /* \"#utility.yul\":1150:1152   */\n      0x20\n        /* \"#utility.yul\":1138:1147   */\n      dup3\n        /* \"#utility.yul\":1129:1136   */\n      dup5\n        /* \"#utility.yul\":1125:1148   */\n      sub\n        /* \"#utility.yul\":1121:1153   */\n      slt\n        /* \"#utility.yul\":1118:1237   */\n      iszero\n      tag_129\n      jumpi\n        /* \"#utility.yul\":1156:1235   */\n      tag_130\n      tag_90\n      jump\t// in\n    tag_130:\n        /* \"#utility.yul\":1118:1237   */\n    tag_129:\n        /* \"#utility.yul\":1276:1277   */\n      0x00\n        /* \"#utility.yul\":1301:1354   */\n      tag_131\n        /* \"#utility.yul\":1346:1353   */\n      dup5\n        /* \"#utility.yul\":1337:1343   */\n      dup3\n        /* \"#utility.yul\":1326:1335   */\n      dup6\n        /* \"#utility.yul\":1322:1344   */\n      add\n        /* \"#utility.yul\":1301:1354   */\n      tag_93\n      jump\t// in\n    tag_131:\n        /* \"#utility.yul\":1291:1354   */\n      swap2\n      pop\n        /* \"#utility.yul\":1247:1364   */\n      pop\n        /* \"#utility.yul\":1042:1371   */\n      swap3\n      swap2\n      pop\n      pop\n      jump\t// out\n        /* \"#utility.yul\":1377:1503   */\n    tag_94:\n        /* \"#utility.yul\":1414:1421   */\n      0x00\n        /* \"#utility.yul\":1454:1496   */\n      0xffffffffffffffffffffffffffffffffffffffff\n        /* \"#utility.yul\":1447:1452   */\n      dup3\n        /* \"#utility.yul\":1443:1497   */\n      and\n        /* \"#utility.yul\":1432:1497   */\n      swap1\n      pop\n        /* \"#utility.yul\":1377:1503   */\n      swap2\n      swap1\n      pop\n      jump\t// out\n        /* \"#utility.yul\":1509:1605   */\n    tag_95:\n        /* \"#utility.yul\":1546:1553   */\n      0x00\n        /* \"#utility.yul\":1575:1599   */\n      tag_134\n        /* \"#utility.yul\":1593:1598   */\n      dup3\n        /* \"#utility.yul\":1575:1599   */\n      tag_94\n      jump\t// in\n    tag_134:\n        /* \"#utility.yul\":1564:1599   */\n      swap1\n      pop\n        /* \"#utility.yul\":1509:1605   */\n      swap2\n      swap1\n      pop\n      jump\t// out\n        /* \"#utility.yul\":1611:1729   */\n    tag_96:\n        /* \"#utility.yul\":1698:1722   */\n      tag_136\n        /* \"#utility.yul\":1716:1721   */\n      dup2\n        /* \"#utility.yul\":1698:1722   */\n      tag_95\n      jump\t// in\n    tag_136:\n        /* \"#utility.yul\":1693:1696   */\n      dup3\n        /* \"#utility.yul\":1686:1723   */\n      mstore\n        /* \"#utility.yul\":1611:1729   */\n      pop\n      pop\n      jump\t// out\n        /* \"#utility.yul\":1735:1957   */\n    tag_33:\n        /* \"#utility.yul\":1828:1832   */\n      0x00\n        /* \"#utility.yul\":1866:1868   */\n      0x20\n        /* \"#utility.yul\":1855:1864   */\n      dup3\n        /* \"#utility.yul\":1851:1869   */\n      add\n        /* \"#utility.yul\":1843:1869   */\n      swap1\n      pop\n        /* \"#utility.yul\":1879:1950   */\n      tag_138\n        /* \"#utility.yul\":1947:1948   */\n      0x00\n        /* \"#utility.yul\":1936:1945   */\n      dup4\n        /* \"#utility.yul\":1932:1949   */\n      add\n        /* \"#utility.yul\":1923:1929   */\n      dup5\n        /* \"#utility.yul\":1879:1950   */\n      tag_96\n      jump\t// in\n    tag_138:\n        /* \"#utility.yul\":1735:1957   */\n      swap3\n      swap2\n      pop\n      pop\n      jump\t// out\n        /* \"#utility.yul\":1963:2143   */\n    tag_40:\n        /* \"#utility.yul\":2011:2088   */\n      0x4e487b7100000000000000000000000000000000000000000000000000000000\n        /* \"#utility.yul\":2008:2009   */\n      0x00\n        /* \"#utility.yul\":2001:2089   */\n      mstore\n        /* \"#utility.yul\":2108:2112   */\n      0x32\n        /* \"#utility.yul\":2105:2106   */\n      0x04\n        /* \"#utility.yul\":2098:2113   */\n      mstore\n        /* \"#utility.yul\":2132:2136   */\n      0x24\n        /* \"#utility.yul\":2129:2130   */\n      0x00\n        /* \"#utility.yul\":2122:2137   */\n      revert\n        /* \"#utility.yul\":2149:2329   */\n    tag_97:\n        /* \"#utility.yul\":2197:2274   */\n      0x4e487b7100000000000000000000000000000000000000000000000000000000\n        /* \"#utility.yul\":2194:2195   */\n      0x00\n        /* \"#utility.yul\":2187:2275   */\n      mstore\n        /* \"#utility.yul\":2294:2298   */\n      0x11\n        /* \"#utility.yul\":2291:2292   */\n      0x04\n        /* \"#utility.yul\":2284:2299   */\n      mstore\n        /* \"#utility.yul\":2318:2322   */\n      0x24\n        /* \"#utility.yul\":2315:2316   */\n      0x00\n        /* \"#utility.yul\":2308:2323   */\n      revert\n        /* \"#utility.yul\":2335:2568   */\n    tag_43:\n        /* \"#utility.yul\":2374:2377   */\n      0x00\n        /* \"#utility.yul\":2397:2421   */\n      tag_142\n        /* \"#utility.yul\":2415:2420   */\n      dup3\n        /* \"#utility.yul\":2397:2421   */\n      tag_87\n      jump\t// in\n    tag_142:\n        /* \"#utility.yul\":2388:2421   */\n      swap2\n      pop\n        /* \"#utility.yul\":2443:2509   */\n      0xffffffffffffffffffffffffffffffffffffffffffffffffffffffffffffffff\n        /* \"#utility.yul\":2436:2441   */\n      dup3\n        /* \"#utility.yul\":2433:2510   */\n      eq\n        /* \"#utility.yul\":2430:2533   */\n      iszero\n      tag_143\n      jumpi\n        /* \"#utility.yul\":2513:2531   */\n      tag_144\n      tag_97\n      jump\t// in\n    tag_144:\n        /* \"#utility.yul\":2430:2533   */\n    tag_143:\n        /* \"#utility.yul\":2560:2561   */\n      0x01\n        /* \"#utility.yul\":2553:2558   */\n      dup3\n        /* \"#utility.yul\":2549:2562   */\n      add\n        /* \"#utility.yul\":2542:2562   */\n      swap1\n      pop\n        /* \"#utility.yul\":2335:2568   */\n      swap2\n      swap1\n      pop\n      jump\t// out\n        /* \"#utility.yul\":2574:2754   */\n    tag_46:\n        /* \"#utility.yul\":2622:2699   */\n      0x4e487b7100000000000000000000000000000000000000000000000000000000\n        /* \"#utility.yul\":2619:2620   */\n      0x00\n        /* \"#utility.yul\":2612:2700   */\n      mstore\n        /* \"#utility.yul\":2719:2723   */\n      0x41\n        /* \"#utility.yul\":2716:2717   */\n      0x04\n        /* \"#utility.yul\":2709:2724   */\n      mstore\n        /* \"#utility.yul\":2743:2747   */\n      0x24\n        /* \"#utility.yul\":2740:2741   */\n      0x00\n        /* \"#utility.yul\":2733:2748   */\n      revert\n        /* \"#utility.yul\":2760:2907   */\n    tag_98:\n        /* \"#utility.yul\":2861:2872   */\n      0x00\n        /* \"#utility.yul\":2898:2901   */\n      dup2\n        /* \"#utility.yul\":2883:2901   */\n      swap1\n      pop\n        /* \"#utility.yul\":2760:2907   */\n      swap3\n      swap2\n      pop\n      pop\n      jump\t// out\n        /* \"#utility.yul\":2913:3027   */\n    tag_99:\n      pop\n      jump\t// out\n        /* \"#utility.yul\":3033:3431   */\n    tag_100:\n        /* \"#utility.yul\":3192:3195   */\n      0x00\n        /* \"#utility.yul\":3213:3296   */\n      tag_149\n        /* \"#utility.yul\":3294:3295   */\n      0x00\n        /* \"#utility.yul\":3289:3292   */\n      dup4\n        /* \"#utility.yul\":3213:3296   */\n      tag_98\n      jump\t// in\n    tag_149:\n        /* \"#utility.yul\":3206:3296   */\n      swap2\n      pop\n        /* \"#utility.yul\":3305:3398   */\n      tag_150\n        /* \"#utility.yul\":3394:3397   */\n      dup3\n        /* \"#utility.yul\":3305:3398   */\n      tag_99\n      jump\t// in\n    tag_150:\n        /* \"#utility.yul\":3423:3424   */\n      0x00\n        /* \"#utility.yul\":3418:3421   */\n      dup3\n        /* \"#utility.yul\":3414:3425   */\n      add\n        /* \"#utility.yul\":3407:3425   */\n      swap1\n      pop\n        /* \"#utility.yul\":3033:3431   */\n      swap2\n      swap1\n      pop\n      jump\t// out\n        /* \"#utility.yul\":3437:3816   */\n    tag_51:\n        /* \"#utility.yul\":3621:3624   */\n      0x00\n        /* \"#utility.yul\":3643:3790   */\n      tag_152\n        /* \"#utility.yul\":3786:3789   */\n      dup3\n        /* \"#utility.yul\":3643:3790   */\n      tag_100\n      jump\t// in\n    tag_152:\n        /* \"#utility.yul\":3636:3790   */\n      swap2\n      pop\n        /* \"#utility.yul\":3807:3810   */\n      dup2\n        /* \"#utility.yul\":3800:3810   */\n      swap1\n      pop\n        /* \"#utility.yul\":3437:3816   */\n      swap2\n      swap1\n      pop\n      jump\t// out\n        /* \"#utility.yul\":3822:3991   */\n    tag_101:\n        /* \"#utility.yul\":3906:3917   */\n      0x00\n        /* \"#utility.yul\":3940:3946   */\n      dup3\n        /* \"#utility.yul\":3935:3938   */\n      dup3\n        /* \"#utility.yul\":3928:3947   */\n      mstore\n        /* \"#utility.yul\":3980:3984   */\n      0x20\n        /* \"#utility.yul\":3975:3978   */\n      dup3\n        /* \"#utility.yul\":3971:3985   */\n      add\n        /* \"#utility.yul\":3956:3985   */\n      swap1\n      pop\n        /* \"#utility.yul\":3822:3991   */\n      swap3\n      swap2\n      pop\n      pop\n      jump\t// out\n        /* \"#utility.yul\":3997:4158   */\n    tag_102:\n        /* \"#utility.yul\":4137:4150   */\n      0x53656e64206661696c6564000000000000000000000000000000000000000000\n        /* \"#utility.yul\":4133:4134   */\n      0x00\n        /* \"#utility.yul\":4125:4131   */\n      dup3\n        /* \"#utility.yul\":4121:4135   */\n      add\n        /* \"#utility.yul\":4114:4151   */\n      mstore\n        /* \"#utility.yul\":3997:4158   */\n      pop\n      jump\t// out\n        /* \"#utility.yul\":4164:4530   */\n    tag_103:\n        /* \"#utility.yul\":4306:4309   */\n      0x00\n        /* \"#utility.yul\":4327:4394   */\n      tag_156\n        /* \"#utility.yul\":4391:4393   */\n      0x0b\n        /* \"#utility.yul\":4386:4389   */\n      dup4\n        /* \"#utility.yul\":4327:4394   */\n      tag_101\n      jump\t// in\n    tag_156:\n        /* \"#utility.yul\":4320:4394   */\n      swap2\n      pop\n        /* \"#utility.yul\":4403:4496   */\n      tag_157\n        /* \"#utility.yul\":4492:4495   */\n      dup3\n        /* \"#utility.yul\":4403:4496   */\n      tag_102\n      jump\t// in\n    tag_157:\n        /* \"#utility.yul\":4521:4523   */\n      0x20\n        /* \"#utility.yul\":4516:4519   */\n      dup3\n        /* \"#utility.yul\":4512:4524   */\n      add\n        /* \"#utility.yul\":4505:4524   */\n      swap1\n      pop\n        /* \"#utility.yul\":4164:4530   */\n      swap2\n      swap1\n      pop\n      jump\t// out\n        /* \"#utility.yul\":4536:4955   */\n    tag_57:\n        /* \"#utility.yul\":4702:4706   */\n      0x00\n        /* \"#utility.yul\":4740:4742   */\n      0x20\n        /* \"#utility.yul\":4729:4738   */\n      dup3\n        /* \"#utility.yul\":4725:4743   */\n      add\n        /* \"#utility.yul\":4717:4743   */\n      swap1\n      pop\n        /* \"#utility.yul\":4789:4798   */\n      dup2\n        /* \"#utility.yul\":4783:4787   */\n      dup2\n        /* \"#utility.yul\":4779:4799   */\n      sub\n        /* \"#utility.yul\":4775:4776   */\n      0x00\n        /* \"#utility.yul\":4764:4773   */\n      dup4\n        /* \"#utility.yul\":4760:4777   */\n      add\n        /* \"#utility.yul\":4753:4800   */\n      mstore\n        /* \"#utility.yul\":4817:4948   */\n      tag_159\n        /* \"#utility.yul\":4943:4947   */\n      dup2\n        /* \"#utility.yul\":4817:4948   */\n      tag_103\n      jump\t// in\n    tag_159:\n        /* \"#utility.yul\":4809:4948   */\n      swap1\n      pop\n        /* \"#utility.yul\":4536:4955   */\n      swap2\n      swap1\n      pop\n      jump\t// out\n        /* \"#utility.yul\":4961:5309   */\n    tag_61:\n        /* \"#utility.yul\":5001:5008   */\n      0x00\n        /* \"#utility.yul\":5024:5044   */\n      tag_161\n        /* \"#utility.yul\":5042:5043   */\n      dup3\n        /* \"#utility.yul\":5024:5044   */\n      tag_87\n      jump\t// in\n    tag_161:\n        /* \"#utility.yul\":5019:5044   */\n      swap2\n      pop\n        /* \"#utility.yul\":5058:5078   */\n      tag_162\n        /* \"#utility.yul\":5076:5077   */\n      dup4\n        /* \"#utility.yul\":5058:5078   */\n      tag_87\n      jump\t// in\n    tag_162:\n        /* \"#utility.yul\":5053:5078   */\n      swap3\n      pop\n        /* \"#utility.yul\":5246:5247   */\n      dup2\n        /* \"#utility.yul\":5178:5244   */\n      0xffffffffffffffffffffffffffffffffffffffffffffffffffffffffffffffff\n        /* \"#utility.yul\":5174:5248   */\n      div\n        /* \"#utility.yul\":5171:5172   */\n      dup4\n        /* \"#utility.yul\":5168:5249   */\n      gt\n        /* \"#utility.yul\":5163:5164   */\n      dup3\n        /* \"#utility.yul\":5156:5165   */\n      iszero\n        /* \"#utility.yul\":5149:5166   */\n      iszero\n        /* \"#utility.yul\":5145:5250   */\n      and\n        /* \"#utility.yul\":5142:5273   */\n      iszero\n      tag_163\n      jumpi\n        /* \"#utility.yul\":5253:5271   */\n      tag_164\n      tag_97\n      jump\t// in\n    tag_164:\n        /* \"#utility.yul\":5142:5273   */\n    tag_163:\n        /* \"#utility.yul\":5301:5302   */\n      dup3\n        /* \"#utility.yul\":5298:5299   */\n      dup3\n        /* \"#utility.yul\":5294:5303   */\n      mul\n        /* \"#utility.yul\":5283:5303   */\n      swap1\n      pop\n        /* \"#utility.yul\":4961:5309   */\n      swap3\n      swap2\n      pop\n      pop\n      jump\t// out\n        /* \"#utility.yul\":5315:5495   */\n    tag_104:\n        /* \"#utility.yul\":5363:5440   */\n      0x4e487b7100000000000000000000000000000000000000000000000000000000\n        /* \"#utility.yul\":5360:5361   */\n      0x00\n        /* \"#utility.yul\":5353:5441   */\n      mstore\n        /* \"#utility.yul\":5460:5464   */\n      0x12\n        /* \"#utility.yul\":5457:5458   */\n      0x04\n        /* \"#utility.yul\":5450:5465   */\n      mstore\n        /* \"#utility.yul\":5484:5488   */\n      0x24\n        /* \"#utility.yul\":5481:5482   */\n      0x00\n        /* \"#utility.yul\":5474:5489   */\n      revert\n        /* \"#utility.yul\":5501:5686   */\n    tag_63:\n        /* \"#utility.yul\":5541:5542   */\n      0x00\n        /* \"#utility.yul\":5558:5578   */\n      tag_167\n        /* \"#utility.yul\":5576:5577   */\n      dup3\n        /* \"#utility.yul\":5558:5578   */\n      tag_87\n      jump\t// in\n    tag_167:\n        /* \"#utility.yul\":5553:5578   */\n      swap2\n      pop\n        /* \"#utility.yul\":5592:5612   */\n      tag_168\n        /* \"#utility.yul\":5610:5611   */\n      dup4\n        /* \"#utility.yul\":5592:5612   */\n      tag_87\n      jump\t// in\n    tag_168:\n        /* \"#utility.yul\":5587:5612   */\n      swap3\n      pop\n        /* \"#utility.yul\":5631:5632   */\n      dup3\n        /* \"#utility.yul\":5621:5656   */\n      tag_169\n      jumpi\n        /* \"#utility.yul\":5636:5654   */\n      tag_170\n      tag_104\n      jump\t// in\n    tag_170:\n        /* \"#utility.yul\":5621:5656   */\n    tag_169:\n        /* \"#utility.yul\":5678:5679   */\n      dup3\n        /* \"#utility.yul\":5675:5676   */\n      dup3\n        /* \"#utility.yul\":5671:5680   */\n      div\n        /* \"#utility.yul\":5666:5680   */\n      swap1\n      pop\n        /* \"#utility.yul\":5501:5686   */\n      swap3\n      swap2\n      pop\n      pop\n      jump\t// out\n        /* \"#utility.yul\":5692:5797   */\n    tag_105:\n        /* \"#utility.yul\":5728:5735   */\n      0x00\n        /* \"#utility.yul\":5768:5790   */\n      0xffffffffffffffffffff\n        /* \"#utility.yul\":5761:5766   */\n      dup3\n        /* \"#utility.yul\":5757:5791   */\n      and\n        /* \"#utility.yul\":5746:5791   */\n      swap1\n      pop\n        /* \"#utility.yul\":5692:5797   */\n      swap2\n      swap1\n      pop\n      jump\t// out\n        /* \"#utility.yul\":5803:5923   */\n    tag_106:\n        /* \"#utility.yul\":5875:5898   */\n      tag_173\n        /* \"#utility.yul\":5892:5897   */\n      dup2\n        /* \"#utility.yul\":5875:5898   */\n      tag_105\n      jump\t// in\n    tag_173:\n        /* \"#utility.yul\":5868:5873   */\n      dup2\n        /* \"#utility.yul\":5865:5899   */\n      eq\n        /* \"#utility.yul\":5855:5917   */\n      tag_174\n      jumpi\n        /* \"#utility.yul\":5913:5914   */\n      0x00\n        /* \"#utility.yul\":5910:5911   */\n      dup1\n        /* \"#utility.yul\":5903:5915   */\n      revert\n        /* \"#utility.yul\":5855:5917   */\n    tag_174:\n        /* \"#utility.yul\":5803:5923   */\n      pop\n      jump\t// out\n        /* \"#utility.yul\":5929:6070   */\n    tag_107:\n        /* \"#utility.yul\":5985:5990   */\n      0x00\n        /* \"#utility.yul\":6016:6022   */\n      dup2\n        /* \"#utility.yul\":6010:6023   */\n      mload\n        /* \"#utility.yul\":6001:6023   */\n      swap1\n      pop\n        /* \"#utility.yul\":6032:6064   */\n      tag_176\n        /* \"#utility.yul\":6058:6063   */\n      dup2\n        /* \"#utility.yul\":6032:6064   */\n      tag_106\n      jump\t// in\n    tag_176:\n        /* \"#utility.yul\":5929:6070   */\n      swap3\n      swap2\n      pop\n      pop\n      jump\t// out\n        /* \"#utility.yul\":6076:6152   */\n    tag_108:\n        /* \"#utility.yul\":6112:6119   */\n      0x00\n        /* \"#utility.yul\":6141:6146   */\n      dup2\n        /* \"#utility.yul\":6130:6146   */\n      swap1\n      pop\n        /* \"#utility.yul\":6076:6152   */\n      swap2\n      swap1\n      pop\n      jump\t// out\n        /* \"#utility.yul\":6158:6278   */\n    tag_109:\n        /* \"#utility.yul\":6230:6253   */\n      tag_179\n        /* \"#utility.yul\":6247:6252   */\n      dup2\n        /* \"#utility.yul\":6230:6253   */\n      tag_108\n      jump\t// in\n    tag_179:\n        /* \"#utility.yul\":6223:6228   */\n      dup2\n        /* \"#utility.yul\":6220:6254   */\n      eq\n        /* \"#utility.yul\":6210:6272   */\n      tag_180\n      jumpi\n        /* \"#utility.yul\":6268:6269   */\n      0x00\n        /* \"#utility.yul\":6265:6266   */\n      dup1\n        /* \"#utility.yul\":6258:6270   */\n      revert\n        /* \"#utility.yul\":6210:6272   */\n    tag_180:\n        /* \"#utility.yul\":6158:6278   */\n      pop\n      jump\t// out\n        /* \"#utility.yul\":6284:6425   */\n    tag_110:\n        /* \"#utility.yul\":6340:6345   */\n      0x00\n        /* \"#utility.yul\":6371:6377   */\n      dup2\n        /* \"#utility.yul\":6365:6378   */\n      mload\n        /* \"#utility.yul\":6356:6378   */\n      swap1\n      pop\n        /* \"#utility.yul\":6387:6419   */\n      tag_182\n        /* \"#utility.yul\":6413:6418   */\n      dup2\n        /* \"#utility.yul\":6387:6419   */\n      tag_109\n      jump\t// in\n    tag_182:\n        /* \"#utility.yul\":6284:6425   */\n      swap3\n      swap2\n      pop\n      pop\n      jump\t// out\n        /* \"#utility.yul\":6431:6574   */\n    tag_111:\n        /* \"#utility.yul\":6488:6493   */\n      0x00\n        /* \"#utility.yul\":6519:6525   */\n      dup2\n        /* \"#utility.yul\":6513:6526   */\n      mload\n        /* \"#utility.yul\":6504:6526   */\n      swap1\n      pop\n        /* \"#utility.yul\":6535:6568   */\n      tag_184\n        /* \"#utility.yul\":6562:6567   */\n      dup2\n        /* \"#utility.yul\":6535:6568   */\n      tag_92\n      jump\t// in\n    tag_184:\n        /* \"#utility.yul\":6431:6574   */\n      swap3\n      swap2\n      pop\n      pop\n      jump\t// out\n        /* \"#utility.yul\":6580:7551   */\n    tag_69:\n        /* \"#utility.yul\":6683:6689   */\n      0x00\n        /* \"#utility.yul\":6691:6697   */\n      dup1\n        /* \"#utility.yul\":6699:6705   */\n      0x00\n        /* \"#utility.yul\":6707:6713   */\n      dup1\n        /* \"#utility.yul\":6715:6721   */\n      0x00\n        /* \"#utility.yul\":6764:6767   */\n      0xa0\n        /* \"#utility.yul\":6752:6761   */\n      dup7\n        /* \"#utility.yul\":6743:6750   */\n      dup9\n        /* \"#utility.yul\":6739:6762   */\n      sub\n        /* \"#utility.yul\":6735:6768   */\n      slt\n        /* \"#utility.yul\":6732:6852   */\n      iszero\n      tag_186\n      jumpi\n        /* \"#utility.yul\":6771:6850   */\n      tag_187\n      tag_90\n      jump\t// in\n    tag_187:\n        /* \"#utility.yul\":6732:6852   */\n    tag_186:\n        /* \"#utility.yul\":6891:6892   */\n      0x00\n        /* \"#utility.yul\":6916:6979   */\n      tag_188\n        /* \"#utility.yul\":6971:6978   */\n      dup9\n        /* \"#utility.yul\":6962:6968   */\n      dup3\n        /* \"#utility.yul\":6951:6960   */\n      dup10\n        /* \"#utility.yul\":6947:6969   */\n      add\n        /* \"#utility.yul\":6916:6979   */\n      tag_107\n      jump\t// in\n    tag_188:\n        /* \"#utility.yul\":6906:6979   */\n      swap6\n      pop\n        /* \"#utility.yul\":6862:6989   */\n      pop\n        /* \"#utility.yul\":7028:7030   */\n      0x20\n        /* \"#utility.yul\":7054:7117   */\n      tag_189\n        /* \"#utility.yul\":7109:7116   */\n      dup9\n        /* \"#utility.yul\":7100:7106   */\n      dup3\n        /* \"#utility.yul\":7089:7098   */\n      dup10\n        /* \"#utility.yul\":7085:7107   */\n      add\n        /* \"#utility.yul\":7054:7117   */\n      tag_110\n      jump\t// in\n    tag_189:\n        /* \"#utility.yul\":7044:7117   */\n      swap5\n      pop\n        /* \"#utility.yul\":6999:7127   */\n      pop\n        /* \"#utility.yul\":7166:7168   */\n      0x40\n        /* \"#utility.yul\":7192:7256   */\n      tag_190\n        /* \"#utility.yul\":7248:7255   */\n      dup9\n        /* \"#utility.yul\":7239:7245   */\n      dup3\n        /* \"#utility.yul\":7228:7237   */\n      dup10\n        /* \"#utility.yul\":7224:7246   */\n      add\n        /* \"#utility.yul\":7192:7256   */\n      tag_111\n      jump\t// in\n    tag_190:\n        /* \"#utility.yul\":7182:7256   */\n      swap4\n      pop\n        /* \"#utility.yul\":7137:7266   */\n      pop\n        /* \"#utility.yul\":7305:7307   */\n      0x60\n        /* \"#utility.yul\":7331:7395   */\n      tag_191\n        /* \"#utility.yul\":7387:7394   */\n      dup9\n        /* \"#utility.yul\":7378:7384   */\n      dup3\n        /* \"#utility.yul\":7367:7376   */\n      dup10\n        /* \"#utility.yul\":7363:7385   */\n      add\n        /* \"#utility.yul\":7331:7395   */\n      tag_111\n      jump\t// in\n    tag_191:\n        /* \"#utility.yul\":7321:7395   */\n      swap3\n      pop\n        /* \"#utility.yul\":7276:7405   */\n      pop\n        /* \"#utility.yul\":7444:7447   */\n      0x80\n        /* \"#utility.yul\":7471:7534   */\n      tag_192\n        /* \"#utility.yul\":7526:7533   */\n      dup9\n        /* \"#utility.yul\":7517:7523   */\n      dup3\n        /* \"#utility.yul\":7506:7515   */\n      dup10\n        /* \"#utility.yul\":7502:7524   */\n      add\n        /* \"#utility.yul\":7471:7534   */\n      tag_107\n      jump\t// in\n    tag_192:\n        /* \"#utility.yul\":7461:7534   */\n      swap2\n      pop\n        /* \"#utility.yul\":7415:7544   */\n      pop\n        /* \"#utility.yul\":6580:7551   */\n      swap3\n      swap6\n      pop\n      swap3\n      swap6\n      swap1\n      swap4\n      pop\n      jump\t// out\n        /* \"#utility.yul\":7557:8548   */\n    tag_71:\n        /* \"#utility.yul\":7596:7603   */\n      0x00\n        /* \"#utility.yul\":7619:7638   */\n      tag_194\n        /* \"#utility.yul\":7636:7637   */\n      dup3\n        /* \"#utility.yul\":7619:7638   */\n      tag_108\n      jump\t// in\n    tag_194:\n        /* \"#utility.yul\":7614:7638   */\n      swap2\n      pop\n        /* \"#utility.yul\":7652:7671   */\n      tag_195\n        /* \"#utility.yul\":7669:7670   */\n      dup4\n        /* \"#utility.yul\":7652:7671   */\n      tag_108\n      jump\t// in\n    tag_195:\n        /* \"#utility.yul\":7647:7671   */\n      swap3\n      pop\n        /* \"#utility.yul\":7853:7854   */\n      dup3\n        /* \"#utility.yul\":7785:7851   */\n      0x7fffffffffffffffffffffffffffffffffffffffffffffffffffffffffffffff\n        /* \"#utility.yul\":7781:7855   */\n      div\n        /* \"#utility.yul\":7778:7779   */\n      dup3\n        /* \"#utility.yul\":7775:7856   */\n      gt\n        /* \"#utility.yul\":7770:7771   */\n      0x00\n        /* \"#utility.yul\":7767:7768   */\n      dup5\n        /* \"#utility.yul\":7763:7772   */\n      sgt\n        /* \"#utility.yul\":7759:7760   */\n      0x00\n        /* \"#utility.yul\":7756:7757   */\n      dup5\n        /* \"#utility.yul\":7752:7761   */\n      sgt\n        /* \"#utility.yul\":7748:7773   */\n      and\n        /* \"#utility.yul\":7744:7857   */\n      and\n        /* \"#utility.yul\":7741:7880   */\n      iszero\n      tag_196\n      jumpi\n        /* \"#utility.yul\":7860:7878   */\n      tag_197\n      tag_97\n      jump\t// in\n    tag_197:\n        /* \"#utility.yul\":7741:7880   */\n    tag_196:\n        /* \"#utility.yul\":8064:8065   */\n      dup2\n        /* \"#utility.yul\":7996:8062   */\n      0x8000000000000000000000000000000000000000000000000000000000000000\n        /* \"#utility.yul\":7991:8066   */\n      sdiv\n        /* \"#utility.yul\":7988:7989   */\n      dup4\n        /* \"#utility.yul\":7984:8067   */\n      slt\n        /* \"#utility.yul\":7979:7980   */\n      0x00\n        /* \"#utility.yul\":7976:7977   */\n      dup5\n        /* \"#utility.yul\":7972:7981   */\n      slt\n        /* \"#utility.yul\":7968:7969   */\n      0x00\n        /* \"#utility.yul\":7965:7966   */\n      dup5\n        /* \"#utility.yul\":7961:7970   */\n      sgt\n        /* \"#utility.yul\":7957:7982   */\n      and\n        /* \"#utility.yul\":7953:8068   */\n      and\n        /* \"#utility.yul\":7950:8091   */\n      iszero\n      tag_198\n      jumpi\n        /* \"#utility.yul\":8071:8089   */\n      tag_199\n      tag_97\n      jump\t// in\n    tag_199:\n        /* \"#utility.yul\":7950:8091   */\n    tag_198:\n        /* \"#utility.yul\":8275:8276   */\n      dup3\n        /* \"#utility.yul\":8207:8273   */\n      0x8000000000000000000000000000000000000000000000000000000000000000\n        /* \"#utility.yul\":8202:8277   */\n      sdiv\n        /* \"#utility.yul\":8199:8200   */\n      dup3\n        /* \"#utility.yul\":8195:8278   */\n      slt\n        /* \"#utility.yul\":8190:8191   */\n      0x00\n        /* \"#utility.yul\":8187:8188   */\n      dup5\n        /* \"#utility.yul\":8183:8192   */\n      sgt\n        /* \"#utility.yul\":8179:8180   */\n      0x00\n        /* \"#utility.yul\":8176:8177   */\n      dup5\n        /* \"#utility.yul\":8172:8181   */\n      slt\n        /* \"#utility.yul\":8168:8193   */\n      and\n        /* \"#utility.yul\":8164:8279   */\n      and\n        /* \"#utility.yul\":8161:8302   */\n      iszero\n      tag_200\n      jumpi\n        /* \"#utility.yul\":8282:8300   */\n      tag_201\n      tag_97\n      jump\t// in\n    tag_201:\n        /* \"#utility.yul\":8161:8302   */\n    tag_200:\n        /* \"#utility.yul\":8485:8486   */\n      dup3\n        /* \"#utility.yul\":8417:8483   */\n      0x7fffffffffffffffffffffffffffffffffffffffffffffffffffffffffffffff\n        /* \"#utility.yul\":8412:8487   */\n      sdiv\n        /* \"#utility.yul\":8409:8410   */\n      dup3\n        /* \"#utility.yul\":8405:8488   */\n      slt\n        /* \"#utility.yul\":8400:8401   */\n      0x00\n        /* \"#utility.yul\":8397:8398   */\n      dup5\n        /* \"#utility.yul\":8393:8402   */\n      slt\n        /* \"#utility.yul\":8389:8390   */\n      0x00\n        /* \"#utility.yul\":8386:8387   */\n      dup5\n        /* \"#utility.yul\":8382:8391   */\n      slt\n        /* \"#utility.yul\":8378:8403   */\n      and\n        /* \"#utility.yul\":8374:8489   */\n      and\n        /* \"#utility.yul\":8371:8512   */\n      iszero\n      tag_202\n      jumpi\n        /* \"#utility.yul\":8492:8510   */\n      tag_203\n      tag_97\n      jump\t// in\n    tag_203:\n        /* \"#utility.yul\":8371:8512   */\n    tag_202:\n        /* \"#utility.yul\":8540:8541   */\n      dup3\n        /* \"#utility.yul\":8537:8538   */\n      dup3\n        /* \"#utility.yul\":8533:8542   */\n      mul\n        /* \"#utility.yul\":8522:8542   */\n      swap1\n      pop\n        /* \"#utility.yul\":7557:8548   */\n      swap3\n      swap2\n      pop\n      pop\n      jump\t// out\n        /* \"#utility.yul\":8554:8722   */\n    tag_112:\n        /* \"#utility.yul\":8694:8714   */\n      0x4469646e27742073656e6420656e6f7567680000000000000000000000000000\n        /* \"#utility.yul\":8690:8691   */\n      0x00\n        /* \"#utility.yul\":8682:8688   */\n      dup3\n        /* \"#utility.yul\":8678:8692   */\n      add\n        /* \"#utility.yul\":8671:8715   */\n      mstore\n        /* \"#utility.yul\":8554:8722   */\n      pop\n      jump\t// out\n        /* \"#utility.yul\":8728:9094   */\n    tag_113:\n        /* \"#utility.yul\":8870:8873   */\n      0x00\n        /* \"#utility.yul\":8891:8958   */\n      tag_206\n        /* \"#utility.yul\":8955:8957   */\n      0x12\n        /* \"#utility.yul\":8950:8953   */\n      dup4\n        /* \"#utility.yul\":8891:8958   */\n      tag_101\n      jump\t// in\n    tag_206:\n        /* \"#utility.yul\":8884:8958   */\n      swap2\n      pop\n        /* \"#utility.yul\":8967:9060   */\n      tag_207\n        /* \"#utility.yul\":9056:9059   */\n      dup3\n        /* \"#utility.yul\":8967:9060   */\n      tag_112\n      jump\t// in\n    tag_207:\n        /* \"#utility.yul\":9085:9087   */\n      0x20\n        /* \"#utility.yul\":9080:9083   */\n      dup3\n        /* \"#utility.yul\":9076:9088   */\n      add\n        /* \"#utility.yul\":9069:9088   */\n      swap1\n      pop\n        /* \"#utility.yul\":8728:9094   */\n      swap2\n      swap1\n      pop\n      jump\t// out\n        /* \"#utility.yul\":9100:9519   */\n    tag_76:\n        /* \"#utility.yul\":9266:9270   */\n      0x00\n        /* \"#utility.yul\":9304:9306   */\n      0x20\n        /* \"#utility.yul\":9293:9302   */\n      dup3\n        /* \"#utility.yul\":9289:9307   */\n      add\n        /* \"#utility.yul\":9281:9307   */\n      swap1\n      pop\n        /* \"#utility.yul\":9353:9362   */\n      dup2\n        /* \"#utility.yul\":9347:9351   */\n      dup2\n        /* \"#utility.yul\":9343:9363   */\n      sub\n        /* \"#utility.yul\":9339:9340   */\n      0x00\n        /* \"#utility.yul\":9328:9337   */\n      dup4\n        /* \"#utility.yul\":9324:9341   */\n      add\n        /* \"#utility.yul\":9317:9364   */\n      mstore\n        /* \"#utility.yul\":9381:9512   */\n      tag_209\n        /* \"#utility.yul\":9507:9511   */\n      dup2\n        /* \"#utility.yul\":9381:9512   */\n      tag_113\n      jump\t// in\n    tag_209:\n        /* \"#utility.yul\":9373:9512   */\n      swap1\n      pop\n        /* \"#utility.yul\":9100:9519   */\n      swap2\n      swap1\n      pop\n      jump\t// out\n\n    auxdata: 0xa2646970667358221220a52998f766fb888fc236e57a8dc0ca2feb3f07489ea0bba6a8395331882f0b9a64736f6c63430008080033\n}\n",
				"bytecode": {
					"linkReferences": {},
					"object": "60806040526802b5e3af16b188000060005534801561001d57600080fd5b50610b548061002d6000396000f3fe6080604052600436106100555760003560e01c8063098de8201461005a5780633ccfd60b146100855780636e5b6b281461009c57806398d5fdca146100d9578063b60d428814610104578063dc0d3dff1461010e575b600080fd5b34801561006657600080fd5b5061006f61014b565b60405161007c919061056b565b60405180910390f35b34801561009157600080fd5b5061009a610151565b005b3480156100a857600080fd5b506100c360048036038101906100be91906105b7565b6102c8565b6040516100d0919061056b565b60405180910390f35b3480156100e557600080fd5b506100ee610302565b6040516100fb919061056b565b60405180910390f35b61010c6103ba565b005b34801561011a57600080fd5b50610135600480360381019061013091906105b7565b61046c565b6040516101429190610625565b60405180910390f35b60005481565b60005b6001805490508110156101b85760006001828154811061017757610176610640565b5b9060005260206000200160009054906101000a900473ffffffffffffffffffffffffffffffffffffffff1690505080806101b09061069e565b915050610154565b50600067ffffffffffffffff8111156101d4576101d36106e7565b5b6040519080825280602002602001820160405280156102025781602001602082028036833780820191505090505b50600190805190602001906102189291906104ab565b5060003373ffffffffffffffffffffffffffffffffffffffff164760405161023f90610747565b60006040518083038185875af1925050503d806000811461027c576040519150601f19603f3d011682016040523d82523d6000602084013e610281565b606091505b50509050806102c5576040517f08c379a00000000000000000000000000000000000000000000000000000000081526004016102bc906107b9565b60405180910390fd5b50565b6000806102d3610302565b90506000670de0b6b3a764000084836102ec91906107d9565b6102f69190610862565b90508092505050919050565b600080738a753747a1fa494ec906ce90e9f37563a8af630e905060008173ffffffffffffffffffffffffffffffffffffffff1663feaf968c6040518163ffffffff1660e01b815260040160a06040518083038186803b15801561036457600080fd5b505afa158015610378573d6000803e3d6000fd5b505050506040513d601f19601f8201168201806040525081019061039c9190610920565b5050509150506402540be400816103b3919061099b565b9250505090565b6000546103c6346102c8565b1015610407576040517f08c379a00000000000000000000000000000000000000000000000000000000081526004016103fe90610afe565b60405180910390fd5b6001339080600181540180825580915050600190039060005260206000200160009091909190916101000a81548173ffffffffffffffffffffffffffffffffffffffff021916908373ffffffffffffffffffffffffffffffffffffffff160217905550565b6001818154811061047c57600080fd5b906000526020600020016000915054906101000a900473ffffffffffffffffffffffffffffffffffffffff1681565b828054828255906000526020600020908101928215610524579160200282015b828111156105235782518260006101000a81548173ffffffffffffffffffffffffffffffffffffffff021916908373ffffffffffffffffffffffffffffffffffffffff160217905550916020019190600101906104cb565b5b5090506105319190610535565b5090565b5b8082111561054e576000816000905550600101610536565b5090565b6000819050919050565b61056581610552565b82525050565b6000602082019050610580600083018461055c565b92915050565b600080fd5b61059481610552565b811461059f57600080fd5b50565b6000813590506105b18161058b565b92915050565b6000602082840312156105cd576105cc610586565b5b60006105db848285016105a2565b91505092915050565b600073ffffffffffffffffffffffffffffffffffffffff82169050919050565b600061060f826105e4565b9050919050565b61061f81610604565b82525050565b600060208201905061063a6000830184610616565b92915050565b7f4e487b7100000000000000000000000000000000000000000000000000000000600052603260045260246000fd5b7f4e487b7100000000000000000000000000000000000000000000000000000000600052601160045260246000fd5b60006106a982610552565b91507fffffffffffffffffffffffffffffffffffffffffffffffffffffffffffffffff8214156106dc576106db61066f565b5b600182019050919050565b7f4e487b7100000000000000000000000000000000000000000000000000000000600052604160045260246000fd5b600081905092915050565b50565b6000610731600083610716565b915061073c82610721565b600082019050919050565b600061075282610724565b9150819050919050565b600082825260208201905092915050565b7f53656e64206661696c6564000000000000000000000000000000000000000000600082015250565b60006107a3600b8361075c565b91506107ae8261076d565b602082019050919050565b600060208201905081810360008301526107d281610796565b9050919050565b60006107e482610552565b91506107ef83610552565b9250817fffffffffffffffffffffffffffffffffffffffffffffffffffffffffffffffff04831182151516156108285761082761066f565b5b828202905092915050565b7f4e487b7100000000000000000000000000000000000000000000000000000000600052601260045260246000fd5b600061086d82610552565b915061087883610552565b92508261088857610887610833565b5b828204905092915050565b600069ffffffffffffffffffff82169050919050565b6108b281610893565b81146108bd57600080fd5b50565b6000815190506108cf816108a9565b92915050565b6000819050919050565b6108e8816108d5565b81146108f357600080fd5b50565b600081519050610905816108df565b92915050565b60008151905061091a8161058b565b92915050565b600080600080600060a0868803121561093c5761093b610586565b5b600061094a888289016108c0565b955050602061095b888289016108f6565b945050604061096c8882890161090b565b935050606061097d8882890161090b565b925050608061098e888289016108c0565b9150509295509295909350565b60006109a6826108d5565b91506109b1836108d5565b9250827f7fffffffffffffffffffffffffffffffffffffffffffffffffffffffffffffff04821160008413600084131616156109f0576109ef61066f565b5b817f80000000000000000000000000000000000000000000000000000000000000000583126000841260008413161615610a2d57610a2c61066f565b5b827f80000000000000000000000000000000000000000000000000000000000000000582126000841360008412161615610a6a57610a6961066f565b5b827f7fffffffffffffffffffffffffffffffffffffffffffffffffffffffffffffff0582126000841260008412161615610aa757610aa661066f565b5b828202905092915050565b7f4469646e27742073656e6420656e6f7567680000000000000000000000000000600082015250565b6000610ae860128361075c565b9150610af382610ab2565b602082019050919050565b60006020820190508181036000830152610b1781610adb565b905091905056fea2646970667358221220a52998f766fb888fc236e57a8dc0ca2feb3f07489ea0bba6a8395331882f0b9a64736f6c63430008080033",
					"opcodes": "PUSH1 0x80 PUSH1 0x40 MSTORE PUSH9 0x2B5E3AF16B1880000 PUSH1 0x0 SSTORE CALLVALUE DUP1 ISZERO PUSH2 0x1D JUMPI PUSH1 0x0 DUP1 REVERT JUMPDEST POP PUSH2 0xB54 DUP1 PUSH2 0x2D PUSH1 0x0 CODECOPY PUSH1 0x0 RETURN INVALID PUSH1 0x80 PUSH1 0x40 MSTORE PUSH1 0x4 CALLDATASIZE LT PUSH2 0x55 JUMPI PUSH1 0x0 CALLDATALOAD PUSH1 0xE0 SHR DUP1 PUSH4 0x98DE820 EQ PUSH2 0x5A JUMPI DUP1 PUSH4 0x3CCFD60B EQ PUSH2 0x85 JUMPI DUP1 PUSH4 0x6E5B6B28 EQ PUSH2 0x9C JUMPI DUP1 PUSH4 0x98D5FDCA EQ PUSH2 0xD9 JUMPI DUP1 PUSH4 0xB60D4288 EQ PUSH2 0x104 JUMPI DUP1 PUSH4 0xDC0D3DFF EQ PUSH2 0x10E JUMPI JUMPDEST PUSH1 0x0 DUP1 REVERT JUMPDEST CALLVALUE DUP1 ISZERO PUSH2 0x66 JUMPI PUSH1 0x0 DUP1 REVERT JUMPDEST POP PUSH2 0x6F PUSH2 0x14B JUMP JUMPDEST PUSH1 0x40 MLOAD PUSH2 0x7C SWAP2 SWAP1 PUSH2 0x56B JUMP JUMPDEST PUSH1 0x40 MLOAD DUP1 SWAP2 SUB SWAP1 RETURN JUMPDEST CALLVALUE DUP1 ISZERO PUSH2 0x91 JUMPI PUSH1 0x0 DUP1 REVERT JUMPDEST POP PUSH2 0x9A PUSH2 0x151 JUMP JUMPDEST STOP JUMPDEST CALLVALUE DUP1 ISZERO PUSH2 0xA8 JUMPI PUSH1 0x0 DUP1 REVERT JUMPDEST POP PUSH2 0xC3 PUSH1 0x4 DUP1 CALLDATASIZE SUB DUP2 ADD SWAP1 PUSH2 0xBE SWAP2 SWAP1 PUSH2 0x5B7 JUMP JUMPDEST PUSH2 0x2C8 JUMP JUMPDEST PUSH1 0x40 MLOAD PUSH2 0xD0 SWAP2 SWAP1 PUSH2 0x56B JUMP JUMPDEST PUSH1 0x40 MLOAD DUP1 SWAP2 SUB SWAP1 RETURN JUMPDEST CALLVALUE DUP1 ISZERO PUSH2 0xE5 JUMPI PUSH1 0x0 DUP1 REVERT JUMPDEST POP PUSH2 0xEE PUSH2 0x302 JUMP JUMPDEST PUSH1 0x40 MLOAD PUSH2 0xFB SWAP2 SWAP1 PUSH2 0x56B JUMP JUMPDEST PUSH1 0x40 MLOAD DUP1 SWAP2 SUB SWAP1 RETURN JUMPDEST PUSH2 0x10C PUSH2 0x3BA JUMP JUMPDEST STOP JUMPDEST CALLVALUE DUP1 ISZERO PUSH2 0x11A JUMPI PUSH1 0x0 DUP1 REVERT JUMPDEST POP PUSH2 0x135 PUSH1 0x4 DUP1 CALLDATASIZE SUB DUP2 ADD SWAP1 PUSH2 0x130 SWAP2 SWAP1 PUSH2 0x5B7 JUMP JUMPDEST PUSH2 0x46C JUMP JUMPDEST PUSH1 0x40 MLOAD PUSH2 0x142 SWAP2 SWAP1 PUSH2 0x625 JUMP JUMPDEST PUSH1 0x40 MLOAD DUP1 SWAP2 SUB SWAP1 RETURN JUMPDEST PUSH1 0x0 SLOAD DUP2 JUMP JUMPDEST PUSH1 0x0 JUMPDEST PUSH1 0x1 DUP1 SLOAD SWAP1 POP DUP2 LT ISZERO PUSH2 0x1B8 JUMPI PUSH1 0x0 PUSH1 0x1 DUP3 DUP2 SLOAD DUP2 LT PUSH2 0x177 JUMPI PUSH2 0x176 PUSH2 0x640 JUMP JUMPDEST JUMPDEST SWAP1 PUSH1 0x0 MSTORE PUSH1 0x20 PUSH1 0x0 KECCAK256 ADD PUSH1 0x0 SWAP1 SLOAD SWAP1 PUSH2 0x100 EXP SWAP1 DIV PUSH20 0xFFFFFFFFFFFFFFFFFFFFFFFFFFFFFFFFFFFFFFFF AND SWAP1 POP POP DUP1 DUP1 PUSH2 0x1B0 SWAP1 PUSH2 0x69E JUMP JUMPDEST SWAP2 POP POP PUSH2 0x154 JUMP JUMPDEST POP PUSH1 0x0 PUSH8 0xFFFFFFFFFFFFFFFF DUP2 GT ISZERO PUSH2 0x1D4 JUMPI PUSH2 0x1D3 PUSH2 0x6E7 JUMP JUMPDEST JUMPDEST PUSH1 0x40 MLOAD SWAP1 DUP1 DUP3 MSTORE DUP1 PUSH1 0x20 MUL PUSH1 0x20 ADD DUP3 ADD PUSH1 0x40 MSTORE DUP1 ISZERO PUSH2 0x202 JUMPI DUP2 PUSH1 0x20 ADD PUSH1 0x20 DUP3 MUL DUP1 CALLDATASIZE DUP4 CALLDATACOPY DUP1 DUP3 ADD SWAP2 POP POP SWAP1 POP JUMPDEST POP PUSH1 0x1 SWAP1 DUP1 MLOAD SWAP1 PUSH1 0x20 ADD SWAP1 PUSH2 0x218 SWAP3 SWAP2 SWAP1 PUSH2 0x4AB JUMP JUMPDEST POP PUSH1 0x0 CALLER PUSH20 0xFFFFFFFFFFFFFFFFFFFFFFFFFFFFFFFFFFFFFFFF AND SELFBALANCE PUSH1 0x40 MLOAD PUSH2 0x23F SWAP1 PUSH2 0x747 JUMP JUMPDEST PUSH1 0x0 PUSH1 0x40 MLOAD DUP1 DUP4 SUB DUP2 DUP6 DUP8 GAS CALL SWAP3 POP POP POP RETURNDATASIZE DUP1 PUSH1 0x0 DUP2 EQ PUSH2 0x27C JUMPI PUSH1 0x40 MLOAD SWAP2 POP PUSH1 0x1F NOT PUSH1 0x3F RETURNDATASIZE ADD AND DUP3 ADD PUSH1 0x40 MSTORE RETURNDATASIZE DUP3 MSTORE RETURNDATASIZE PUSH1 0x0 PUSH1 0x20 DUP5 ADD RETURNDATACOPY PUSH2 0x281 JUMP JUMPDEST PUSH1 0x60 SWAP2 POP JUMPDEST POP POP SWAP1 POP DUP1 PUSH2 0x2C5 JUMPI PUSH1 0x40 MLOAD PUSH32 0x8C379A000000000000000000000000000000000000000000000000000000000 DUP2 MSTORE PUSH1 0x4 ADD PUSH2 0x2BC SWAP1 PUSH2 0x7B9 JUMP JUMPDEST PUSH1 0x40 MLOAD DUP1 SWAP2 SUB SWAP1 REVERT JUMPDEST POP JUMP JUMPDEST PUSH1 0x0 DUP1 PUSH2 0x2D3 PUSH2 0x302 JUMP JUMPDEST SWAP1 POP PUSH1 0x0 PUSH8 0xDE0B6B3A7640000 DUP5 DUP4 PUSH2 0x2EC SWAP2 SWAP1 PUSH2 0x7D9 JUMP JUMPDEST PUSH2 0x2F6 SWAP2 SWAP1 PUSH2 0x862 JUMP JUMPDEST SWAP1 POP DUP1 SWAP3 POP POP POP SWAP2 SWAP1 POP JUMP JUMPDEST PUSH1 0x0 DUP1 PUSH20 0x8A753747A1FA494EC906CE90E9F37563A8AF630E SWAP1 POP PUSH1 0x0 DUP2 PUSH20 0xFFFFFFFFFFFFFFFFFFFFFFFFFFFFFFFFFFFFFFFF AND PUSH4 0xFEAF968C PUSH1 0x40 MLOAD DUP2 PUSH4 0xFFFFFFFF AND PUSH1 0xE0 SHL DUP2 MSTORE PUSH1 0x4 ADD PUSH1 0xA0 PUSH1 0x40 MLOAD DUP1 DUP4 SUB DUP2 DUP7 DUP1 EXTCODESIZE ISZERO DUP1 ISZERO PUSH2 0x364 JUMPI PUSH1 0x0 DUP1 REVERT JUMPDEST POP GAS STATICCALL ISZERO DUP1 ISZERO PUSH2 0x378 JUMPI RETURNDATASIZE PUSH1 0x0 DUP1 RETURNDATACOPY RETURNDATASIZE PUSH1 0x0 REVERT JUMPDEST POP POP POP POP PUSH1 0x40 MLOAD RETURNDATASIZE PUSH1 0x1F NOT PUSH1 0x1F DUP3 ADD AND DUP3 ADD DUP1 PUSH1 0x40 MSTORE POP DUP2 ADD SWAP1 PUSH2 0x39C SWAP2 SWAP1 PUSH2 0x920 JUMP JUMPDEST POP POP POP SWAP2 POP POP PUSH5 0x2540BE400 DUP2 PUSH2 0x3B3 SWAP2 SWAP1 PUSH2 0x99B JUMP JUMPDEST SWAP3 POP POP POP SWAP1 JUMP JUMPDEST PUSH1 0x0 SLOAD PUSH2 0x3C6 CALLVALUE PUSH2 0x2C8 JUMP JUMPDEST LT ISZERO PUSH2 0x407 JUMPI PUSH1 0x40 MLOAD PUSH32 0x8C379A000000000000000000000000000000000000000000000000000000000 DUP2 MSTORE PUSH1 0x4 ADD PUSH2 0x3FE SWAP1 PUSH2 0xAFE JUMP JUMPDEST PUSH1 0x40 MLOAD DUP1 SWAP2 SUB SWAP1 REVERT JUMPDEST PUSH1 0x1 CALLER SWAP1 DUP1 PUSH1 0x1 DUP2 SLOAD ADD DUP1 DUP3 SSTORE DUP1 SWAP2 POP POP PUSH1 0x1 SWAP1 SUB SWAP1 PUSH1 0x0 MSTORE PUSH1 0x20 PUSH1 0x0 KECCAK256 ADD PUSH1 0x0 SWAP1 SWAP2 SWAP1 SWAP2 SWAP1 SWAP2 PUSH2 0x100 EXP DUP2 SLOAD DUP2 PUSH20 0xFFFFFFFFFFFFFFFFFFFFFFFFFFFFFFFFFFFFFFFF MUL NOT AND SWAP1 DUP4 PUSH20 0xFFFFFFFFFFFFFFFFFFFFFFFFFFFFFFFFFFFFFFFF AND MUL OR SWAP1 SSTORE POP JUMP JUMPDEST PUSH1 0x1 DUP2 DUP2 SLOAD DUP2 LT PUSH2 0x47C JUMPI PUSH1 0x0 DUP1 REVERT JUMPDEST SWAP1 PUSH1 0x0 MSTORE PUSH1 0x20 PUSH1 0x0 KECCAK256 ADD PUSH1 0x0 SWAP2 POP SLOAD SWAP1 PUSH2 0x100 EXP SWAP1 DIV PUSH20 0xFFFFFFFFFFFFFFFFFFFFFFFFFFFFFFFFFFFFFFFF AND DUP2 JUMP JUMPDEST DUP3 DUP1 SLOAD DUP3 DUP3 SSTORE SWAP1 PUSH1 0x0 MSTORE PUSH1 0x20 PUSH1 0x0 KECCAK256 SWAP1 DUP2 ADD SWAP3 DUP3 ISZERO PUSH2 0x524 JUMPI SWAP2 PUSH1 0x20 MUL DUP3 ADD JUMPDEST DUP3 DUP2 GT ISZERO PUSH2 0x523 JUMPI DUP3 MLOAD DUP3 PUSH1 0x0 PUSH2 0x100 EXP DUP2 SLOAD DUP2 PUSH20 0xFFFFFFFFFFFFFFFFFFFFFFFFFFFFFFFFFFFFFFFF MUL NOT AND SWAP1 DUP4 PUSH20 0xFFFFFFFFFFFFFFFFFFFFFFFFFFFFFFFFFFFFFFFF AND MUL OR SWAP1 SSTORE POP SWAP2 PUSH1 0x20 ADD SWAP2 SWAP1 PUSH1 0x1 ADD SWAP1 PUSH2 0x4CB JUMP JUMPDEST JUMPDEST POP SWAP1 POP PUSH2 0x531 SWAP2 SWAP1 PUSH2 0x535 JUMP JUMPDEST POP SWAP1 JUMP JUMPDEST JUMPDEST DUP1 DUP3 GT ISZERO PUSH2 0x54E JUMPI PUSH1 0x0 DUP2 PUSH1 0x0 SWAP1 SSTORE POP PUSH1 0x1 ADD PUSH2 0x536 JUMP JUMPDEST POP SWAP1 JUMP JUMPDEST PUSH1 0x0 DUP2 SWAP1 POP SWAP2 SWAP1 POP JUMP JUMPDEST PUSH2 0x565 DUP2 PUSH2 0x552 JUMP JUMPDEST DUP3 MSTORE POP POP JUMP JUMPDEST PUSH1 0x0 PUSH1 0x20 DUP3 ADD SWAP1 POP PUSH2 0x580 PUSH1 0x0 DUP4 ADD DUP5 PUSH2 0x55C JUMP JUMPDEST SWAP3 SWAP2 POP POP JUMP JUMPDEST PUSH1 0x0 DUP1 REVERT JUMPDEST PUSH2 0x594 DUP2 PUSH2 0x552 JUMP JUMPDEST DUP2 EQ PUSH2 0x59F JUMPI PUSH1 0x0 DUP1 REVERT JUMPDEST POP JUMP JUMPDEST PUSH1 0x0 DUP2 CALLDATALOAD SWAP1 POP PUSH2 0x5B1 DUP2 PUSH2 0x58B JUMP JUMPDEST SWAP3 SWAP2 POP POP JUMP JUMPDEST PUSH1 0x0 PUSH1 0x20 DUP3 DUP5 SUB SLT ISZERO PUSH2 0x5CD JUMPI PUSH2 0x5CC PUSH2 0x586 JUMP JUMPDEST JUMPDEST PUSH1 0x0 PUSH2 0x5DB DUP5 DUP3 DUP6 ADD PUSH2 0x5A2 JUMP JUMPDEST SWAP2 POP POP SWAP3 SWAP2 POP POP JUMP JUMPDEST PUSH1 0x0 PUSH20 0xFFFFFFFFFFFFFFFFFFFFFFFFFFFFFFFFFFFFFFFF DUP3 AND SWAP1 POP SWAP2 SWAP1 POP JUMP JUMPDEST PUSH1 0x0 PUSH2 0x60F DUP3 PUSH2 0x5E4 JUMP JUMPDEST SWAP1 POP SWAP2 SWAP1 POP JUMP JUMPDEST PUSH2 0x61F DUP2 PUSH2 0x604 JUMP JUMPDEST DUP3 MSTORE POP POP JUMP JUMPDEST PUSH1 0x0 PUSH1 0x20 DUP3 ADD SWAP1 POP PUSH2 0x63A PUSH1 0x0 DUP4 ADD DUP5 PUSH2 0x616 JUMP JUMPDEST SWAP3 SWAP2 POP POP JUMP JUMPDEST PUSH32 0x4E487B7100000000000000000000000000000000000000000000000000000000 PUSH1 0x0 MSTORE PUSH1 0x32 PUSH1 0x4 MSTORE PUSH1 0x24 PUSH1 0x0 REVERT JUMPDEST PUSH32 0x4E487B7100000000000000000000000000000000000000000000000000000000 PUSH1 0x0 MSTORE PUSH1 0x11 PUSH1 0x4 MSTORE PUSH1 0x24 PUSH1 0x0 REVERT JUMPDEST PUSH1 0x0 PUSH2 0x6A9 DUP3 PUSH2 0x552 JUMP JUMPDEST SWAP2 POP PUSH32 0xFFFFFFFFFFFFFFFFFFFFFFFFFFFFFFFFFFFFFFFFFFFFFFFFFFFFFFFFFFFFFFFF DUP3 EQ ISZERO PUSH2 0x6DC JUMPI PUSH2 0x6DB PUSH2 0x66F JUMP JUMPDEST JUMPDEST PUSH1 0x1 DUP3 ADD SWAP1 POP SWAP2 SWAP1 POP JUMP JUMPDEST PUSH32 0x4E487B7100000000000000000000000000000000000000000000000000000000 PUSH1 0x0 MSTORE PUSH1 0x41 PUSH1 0x4 MSTORE PUSH1 0x24 PUSH1 0x0 REVERT JUMPDEST PUSH1 0x0 DUP2 SWAP1 POP SWAP3 SWAP2 POP POP JUMP JUMPDEST POP JUMP JUMPDEST PUSH1 0x0 PUSH2 0x731 PUSH1 0x0 DUP4 PUSH2 0x716 JUMP JUMPDEST SWAP2 POP PUSH2 0x73C DUP3 PUSH2 0x721 JUMP JUMPDEST PUSH1 0x0 DUP3 ADD SWAP1 POP SWAP2 SWAP1 POP JUMP JUMPDEST PUSH1 0x0 PUSH2 0x752 DUP3 PUSH2 0x724 JUMP JUMPDEST SWAP2 POP DUP2 SWAP1 POP SWAP2 SWAP1 POP JUMP JUMPDEST PUSH1 0x0 DUP3 DUP3 MSTORE PUSH1 0x20 DUP3 ADD SWAP1 POP SWAP3 SWAP2 POP POP JUMP JUMPDEST PUSH32 0x53656E64206661696C6564000000000000000000000000000000000000000000 PUSH1 0x0 DUP3 ADD MSTORE POP JUMP JUMPDEST PUSH1 0x0 PUSH2 0x7A3 PUSH1 0xB DUP4 PUSH2 0x75C JUMP JUMPDEST SWAP2 POP PUSH2 0x7AE DUP3 PUSH2 0x76D JUMP JUMPDEST PUSH1 0x20 DUP3 ADD SWAP1 POP SWAP2 SWAP1 POP JUMP JUMPDEST PUSH1 0x0 PUSH1 0x20 DUP3 ADD SWAP1 POP DUP2 DUP2 SUB PUSH1 0x0 DUP4 ADD MSTORE PUSH2 0x7D2 DUP2 PUSH2 0x796 JUMP JUMPDEST SWAP1 POP SWAP2 SWAP1 POP JUMP JUMPDEST PUSH1 0x0 PUSH2 0x7E4 DUP3 PUSH2 0x552 JUMP JUMPDEST SWAP2 POP PUSH2 0x7EF DUP4 PUSH2 0x552 JUMP JUMPDEST SWAP3 POP DUP2 PUSH32 0xFFFFFFFFFFFFFFFFFFFFFFFFFFFFFFFFFFFFFFFFFFFFFFFFFFFFFFFFFFFFFFFF DIV DUP4 GT DUP3 ISZERO ISZERO AND ISZERO PUSH2 0x828 JUMPI PUSH2 0x827 PUSH2 0x66F JUMP JUMPDEST JUMPDEST DUP3 DUP3 MUL SWAP1 POP SWAP3 SWAP2 POP POP JUMP JUMPDEST PUSH32 0x4E487B7100000000000000000000000000000000000000000000000000000000 PUSH1 0x0 MSTORE PUSH1 0x12 PUSH1 0x4 MSTORE PUSH1 0x24 PUSH1 0x0 REVERT JUMPDEST PUSH1 0x0 PUSH2 0x86D DUP3 PUSH2 0x552 JUMP JUMPDEST SWAP2 POP PUSH2 0x878 DUP4 PUSH2 0x552 JUMP JUMPDEST SWAP3 POP DUP3 PUSH2 0x888 JUMPI PUSH2 0x887 PUSH2 0x833 JUMP JUMPDEST JUMPDEST DUP3 DUP3 DIV SWAP1 POP SWAP3 SWAP2 POP POP JUMP JUMPDEST PUSH1 0x0 PUSH10 0xFFFFFFFFFFFFFFFFFFFF DUP3 AND SWAP1 POP SWAP2 SWAP1 POP JUMP JUMPDEST PUSH2 0x8B2 DUP2 PUSH2 0x893 JUMP JUMPDEST DUP2 EQ PUSH2 0x8BD JUMPI PUSH1 0x0 DUP1 REVERT JUMPDEST POP JUMP JUMPDEST PUSH1 0x0 DUP2 MLOAD SWAP1 POP PUSH2 0x8CF DUP2 PUSH2 0x8A9 JUMP JUMPDEST SWAP3 SWAP2 POP POP JUMP JUMPDEST PUSH1 0x0 DUP2 SWAP1 POP SWAP2 SWAP1 POP JUMP JUMPDEST PUSH2 0x8E8 DUP2 PUSH2 0x8D5 JUMP JUMPDEST DUP2 EQ PUSH2 0x8F3 JUMPI PUSH1 0x0 DUP1 REVERT JUMPDEST POP JUMP JUMPDEST PUSH1 0x0 DUP2 MLOAD SWAP1 POP PUSH2 0x905 DUP2 PUSH2 0x8DF JUMP JUMPDEST SWAP3 SWAP2 POP POP JUMP JUMPDEST PUSH1 0x0 DUP2 MLOAD SWAP1 POP PUSH2 0x91A DUP2 PUSH2 0x58B JUMP JUMPDEST SWAP3 SWAP2 POP POP JUMP JUMPDEST PUSH1 0x0 DUP1 PUSH1 0x0 DUP1 PUSH1 0x0 PUSH1 0xA0 DUP7 DUP9 SUB SLT ISZERO PUSH2 0x93C JUMPI PUSH2 0x93B PUSH2 0x586 JUMP JUMPDEST JUMPDEST PUSH1 0x0 PUSH2 0x94A DUP9 DUP3 DUP10 ADD PUSH2 0x8C0 JUMP JUMPDEST SWAP6 POP POP PUSH1 0x20 PUSH2 0x95B DUP9 DUP3 DUP10 ADD PUSH2 0x8F6 JUMP JUMPDEST SWAP5 POP POP PUSH1 0x40 PUSH2 0x96C DUP9 DUP3 DUP10 ADD PUSH2 0x90B JUMP JUMPDEST SWAP4 POP POP PUSH1 0x60 PUSH2 0x97D DUP9 DUP3 DUP10 ADD PUSH2 0x90B JUMP JUMPDEST SWAP3 POP POP PUSH1 0x80 PUSH2 0x98E DUP9 DUP3 DUP10 ADD PUSH2 0x8C0 JUMP JUMPDEST SWAP2 POP POP SWAP3 SWAP6 POP SWAP3 SWAP6 SWAP1 SWAP4 POP JUMP JUMPDEST PUSH1 0x0 PUSH2 0x9A6 DUP3 PUSH2 0x8D5 JUMP JUMPDEST SWAP2 POP PUSH2 0x9B1 DUP4 PUSH2 0x8D5 JUMP JUMPDEST SWAP3 POP DUP3 PUSH32 0x7FFFFFFFFFFFFFFFFFFFFFFFFFFFFFFFFFFFFFFFFFFFFFFFFFFFFFFFFFFFFFFF DIV DUP3 GT PUSH1 0x0 DUP5 SGT PUSH1 0x0 DUP5 SGT AND AND ISZERO PUSH2 0x9F0 JUMPI PUSH2 0x9EF PUSH2 0x66F JUMP JUMPDEST JUMPDEST DUP2 PUSH32 0x8000000000000000000000000000000000000000000000000000000000000000 SDIV DUP4 SLT PUSH1 0x0 DUP5 SLT PUSH1 0x0 DUP5 SGT AND AND ISZERO PUSH2 0xA2D JUMPI PUSH2 0xA2C PUSH2 0x66F JUMP JUMPDEST JUMPDEST DUP3 PUSH32 0x8000000000000000000000000000000000000000000000000000000000000000 SDIV DUP3 SLT PUSH1 0x0 DUP5 SGT PUSH1 0x0 DUP5 SLT AND AND ISZERO PUSH2 0xA6A JUMPI PUSH2 0xA69 PUSH2 0x66F JUMP JUMPDEST JUMPDEST DUP3 PUSH32 0x7FFFFFFFFFFFFFFFFFFFFFFFFFFFFFFFFFFFFFFFFFFFFFFFFFFFFFFFFFFFFFFF SDIV DUP3 SLT PUSH1 0x0 DUP5 SLT PUSH1 0x0 DUP5 SLT AND AND ISZERO PUSH2 0xAA7 JUMPI PUSH2 0xAA6 PUSH2 0x66F JUMP JUMPDEST JUMPDEST DUP3 DUP3 MUL SWAP1 POP SWAP3 SWAP2 POP POP JUMP JUMPDEST PUSH32 0x4469646E27742073656E6420656E6F7567680000000000000000000000000000 PUSH1 0x0 DUP3 ADD MSTORE POP JUMP JUMPDEST PUSH1 0x0 PUSH2 0xAE8 PUSH1 0x12 DUP4 PUSH2 0x75C JUMP JUMPDEST SWAP2 POP PUSH2 0xAF3 DUP3 PUSH2 0xAB2 JUMP JUMPDEST PUSH1 0x20 DUP3 ADD SWAP1 POP SWAP2 SWAP1 POP JUMP JUMPDEST PUSH1 0x0 PUSH1 0x20 DUP3 ADD SWAP1 POP DUP2 DUP2 SUB PUSH1 0x0 DUP4 ADD MSTORE PUSH2 0xB17 DUP2 PUSH2 0xADB JUMP JUMPDEST SWAP1 POP SWAP2 SWAP1 POP JUMP INVALID LOG2 PUSH5 0x6970667358 0x22 SLT KECCAK256 0xA5 0x29 SWAP9 0xF7 PUSH7 0xFB888FC236E57A DUP14 0xC0 0xCA 0x2F 0xEB EXTCODEHASH SMOD BASEFEE SWAP15 LOG0 0xBB 0xA6 0xA8 CODECOPY MSTORE8 BALANCE DUP9 0x2F SIGNEXTEND SWAP11 PUSH5 0x736F6C6343 STOP ADDMOD ADDMOD STOP CALLER "
				},
				"gasEstimates": {
					"creation": {
						"codeDepositCost": "580000",
						"executionCost": "22719",
						"totalCost": "602719"
					},
					"external": {
						"fund()": "infinite",
						"funders(uint256)": "5044",
						"getConversionRate(uint256)": "infinite",
						"getPrice()": "infinite",
						"minimumUsd()": "2407",
						"withdraw()": "infinite"
					}
				},
				"methodIdentifiers": {
					"fund()": "b60d4288",
					"funders(uint256)": "dc0d3dff",
					"getConversionRate(uint256)": "6e5b6b28",
					"getPrice()": "98d5fdca",
					"minimumUsd()": "098de820",
					"withdraw()": "3ccfd60b"
				}
			},
			"storageLayout": {
				"storage": [
					{
						"astId": 53,
						"contract": "contracts/FundMe.sol:FundMe",
						"label": "minimumUsd",
						"offset": 0,
						"slot": "0",
						"type": "t_uint256"
					},
					{
						"astId": 56,
						"contract": "contracts/FundMe.sol:FundMe",
						"label": "funders",
						"offset": 0,
						"slot": "1",
						"type": "t_array(t_address)dyn_storage"
					}
				],
				"types": {
					"t_address": {
						"encoding": "inplace",
						"label": "address",
						"numberOfBytes": "20"
					},
					"t_array(t_address)dyn_storage": {
						"base": "t_address",
						"encoding": "dynamic_array",
						"label": "address[]",
						"numberOfBytes": "32"
					},
					"t_uint256": {
						"encoding": "inplace",
						"label": "uint256",
						"numberOfBytes": "32"
					}
				}
			},
			"userdoc": {
				"kind": "user",
				"methods": {},
				"version": 1
			}
		}
	}
}