{
	"contracts/FundMe.sol": {
		"FundMe": {
			"abi": [
				{
					"inputs": [],
					"stateMutability": "nonpayable",
					"type": "constructor"
				},
				{
					"inputs": [],
					"name": "fund",
					"outputs": [],
					"stateMutability": "payable",
					"type": "function"
				},
				{
					"inputs": [
						{
							"internalType": "uint256",
							"name": "",
							"type": "uint256"
						}
					],
					"name": "funders",
					"outputs": [
						{
							"internalType": "address",
							"name": "",
							"type": "address"
						}
					],
					"stateMutability": "view",
					"type": "function"
				},
				{
					"inputs": [
						{
							"internalType": "uint256",
							"name": "ethAmount",
							"type": "uint256"
						}
					],
					"name": "getConversionRate",
					"outputs": [
						{
							"internalType": "uint256",
							"name": "",
							"type": "uint256"
						}
					],
					"stateMutability": "view",
					"type": "function"
				},
				{
					"inputs": [],
					"name": "getPrice",
					"outputs": [
						{
							"internalType": "uint256",
							"name": "",
							"type": "uint256"
						}
					],
					"stateMutability": "view",
					"type": "function"
				},
				{
					"inputs": [],
					"name": "minimumUsd",
					"outputs": [
						{
							"internalType": "uint256",
							"name": "",
							"type": "uint256"
						}
					],
					"stateMutability": "view",
					"type": "function"
				},
				{
					"inputs": [],
					"name": "owner",
					"outputs": [
						{
							"internalType": "address",
							"name": "",
							"type": "address"
						}
					],
					"stateMutability": "view",
					"type": "function"
				},
				{
					"inputs": [],
					"name": "withdraw",
					"outputs": [],
					"stateMutability": "nonpayable",
					"type": "function"
				}
			],
			"devdoc": {
				"kind": "dev",
				"methods": {},
				"version": 1
			},
			"evm": {
				"assembly": "    /* \"contracts/FundMe.sol\":142:2839  contract FundMe {... */\n  mstore(0x40, 0x80)\n    /* \"contracts/FundMe.sol\":193:202  50 * 1e18 */\n  0x02b5e3af16b1880000\n    /* \"contracts/FundMe.sol\":165:202  uint256 public minimumUsd = 50 * 1e18 */\n  0x00\n  sstore\n    /* \"contracts/FundMe.sol\":273:406  constructor(){... */\n  callvalue\n  dup1\n  iszero\n  tag_1\n  jumpi\n  0x00\n  dup1\n  revert\ntag_1:\n  pop\n    /* \"contracts/FundMe.sol\":388:398  msg.sender */\n  caller\n    /* \"contracts/FundMe.sol\":380:385  owner */\n  0x02\n  0x00\n    /* \"contracts/FundMe.sol\":380:398  owner = msg.sender */\n  0x0100\n  exp\n  dup2\n  sload\n  dup2\n  0xffffffffffffffffffffffffffffffffffffffff\n  mul\n  not\n  and\n  swap1\n  dup4\n  0xffffffffffffffffffffffffffffffffffffffff\n  and\n  mul\n  or\n  swap1\n  sstore\n  pop\n    /* \"contracts/FundMe.sol\":142:2839  contract FundMe {... */\n  dataSize(sub_0)\n  dup1\n  dataOffset(sub_0)\n  0x00\n  codecopy\n  0x00\n  return\nstop\n\nsub_0: assembly {\n        /* \"contracts/FundMe.sol\":142:2839  contract FundMe {... */\n      mstore(0x40, 0x80)\n      jumpi(tag_1, lt(calldatasize, 0x04))\n      shr(0xe0, calldataload(0x00))\n      dup1\n      0x8da5cb5b\n      gt\n      tag_9\n      jumpi\n      dup1\n      0x8da5cb5b\n      eq\n      tag_5\n      jumpi\n      dup1\n      0x98d5fdca\n      eq\n      tag_6\n      jumpi\n      dup1\n      0xb60d4288\n      eq\n      tag_7\n      jumpi\n      dup1\n      0xdc0d3dff\n      eq\n      tag_8\n      jumpi\n      jump(tag_1)\n    tag_9:\n      dup1\n      0x098de820\n      eq\n      tag_2\n      jumpi\n      dup1\n      0x3ccfd60b\n      eq\n      tag_3\n      jumpi\n      dup1\n      0x6e5b6b28\n      eq\n      tag_4\n      jumpi\n    tag_1:\n      0x00\n      dup1\n      revert\n        /* \"contracts/FundMe.sol\":165:202  uint256 public minimumUsd = 50 * 1e18 */\n    tag_2:\n      callvalue\n      dup1\n      iszero\n      tag_10\n      jumpi\n      0x00\n      dup1\n      revert\n    tag_10:\n      pop\n      tag_11\n      tag_12\n      jump\t// in\n    tag_11:\n      mload(0x40)\n      tag_13\n      swap2\n      swap1\n      tag_14\n      jump\t// in\n    tag_13:\n      mload(0x40)\n      dup1\n      swap2\n      sub\n      swap1\n      return\n        /* \"contracts/FundMe.sol\":1415:2291  function withdraw() public onlyOwner {... */\n    tag_3:\n      callvalue\n      dup1\n      iszero\n      tag_15\n      jumpi\n      0x00\n      dup1\n      revert\n    tag_15:\n      pop\n      tag_16\n      tag_17\n      jump\t// in\n    tag_16:\n      stop\n        /* \"contracts/FundMe.sol\":1127:1407  function getConversionRate(uint256 ethAmount) public view returns (uint256) {... */\n    tag_4:\n      callvalue\n      dup1\n      iszero\n      tag_18\n      jumpi\n      0x00\n      dup1\n      revert\n    tag_18:\n      pop\n      tag_19\n      0x04\n      dup1\n      calldatasize\n      sub\n      dup2\n      add\n      swap1\n      tag_20\n      swap2\n      swap1\n      tag_21\n      jump\t// in\n    tag_20:\n      tag_22\n      jump\t// in\n    tag_19:\n      mload(0x40)\n      tag_23\n      swap2\n      swap1\n      tag_14\n      jump\t// in\n    tag_23:\n      mload(0x40)\n      dup1\n      swap2\n      sub\n      swap1\n      return\n        /* \"contracts/FundMe.sol\":244:264  address public owner */\n    tag_5:\n      callvalue\n      dup1\n      iszero\n      tag_24\n      jumpi\n      0x00\n      dup1\n      revert\n    tag_24:\n      pop\n      tag_25\n      tag_26\n      jump\t// in\n    tag_25:\n      mload(0x40)\n      tag_27\n      swap2\n      swap1\n      tag_28\n      jump\t// in\n    tag_27:\n      mload(0x40)\n      dup1\n      swap2\n      sub\n      swap1\n      return\n        /* \"contracts/FundMe.sol\":844:1111  function getPrice() public view returns(uint256) {... */\n    tag_6:\n      callvalue\n      dup1\n      iszero\n      tag_29\n      jumpi\n      0x00\n      dup1\n      revert\n    tag_29:\n      pop\n      tag_30\n      tag_31\n      jump\t// in\n    tag_30:\n      mload(0x40)\n      tag_32\n      swap2\n      swap1\n      tag_14\n      jump\t// in\n    tag_32:\n      mload(0x40)\n      dup1\n      swap2\n      sub\n      swap1\n      return\n        /* \"contracts/FundMe.sol\":472:800  function fund() public payable {... */\n    tag_7:\n      tag_33\n      tag_34\n      jump\t// in\n    tag_33:\n      stop\n        /* \"contracts/FundMe.sol\":211:235  address[] public funders */\n    tag_8:\n      callvalue\n      dup1\n      iszero\n      tag_35\n      jumpi\n      0x00\n      dup1\n      revert\n    tag_35:\n      pop\n      tag_36\n      0x04\n      dup1\n      calldatasize\n      sub\n      dup2\n      add\n      swap1\n      tag_37\n      swap2\n      swap1\n      tag_21\n      jump\t// in\n    tag_37:\n      tag_38\n      jump\t// in\n    tag_36:\n      mload(0x40)\n      tag_39\n      swap2\n      swap1\n      tag_28\n      jump\t// in\n    tag_39:\n      mload(0x40)\n      dup1\n      swap2\n      sub\n      swap1\n      return\n        /* \"contracts/FundMe.sol\":165:202  uint256 public minimumUsd = 50 * 1e18 */\n    tag_12:\n      sload(0x00)\n      dup2\n      jump\t// out\n        /* \"contracts/FundMe.sol\":1415:2291  function withdraw() public onlyOwner {... */\n    tag_17:\n        /* \"contracts/FundMe.sol\":2787:2792  owner */\n      0x02\n      0x00\n      swap1\n      sload\n      swap1\n      0x0100\n      exp\n      swap1\n      div\n      0xffffffffffffffffffffffffffffffffffffffff\n      and\n        /* \"contracts/FundMe.sol\":2773:2792  msg.sender == owner */\n      0xffffffffffffffffffffffffffffffffffffffff\n      and\n        /* \"contracts/FundMe.sol\":2773:2783  msg.sender */\n      caller\n        /* \"contracts/FundMe.sol\":2773:2792  msg.sender == owner */\n      0xffffffffffffffffffffffffffffffffffffffff\n      and\n      eq\n        /* \"contracts/FundMe.sol\":2765:2816  require(msg.sender == owner, \"Sender is not owner\") */\n      tag_41\n      jumpi\n      mload(0x40)\n      0x08c379a000000000000000000000000000000000000000000000000000000000\n      dup2\n      mstore\n      0x04\n      add\n      tag_42\n      swap1\n      tag_43\n      jump\t// in\n    tag_42:\n      mload(0x40)\n      dup1\n      swap2\n      sub\n      swap1\n      revert\n    tag_41:\n        /* \"contracts/FundMe.sol\":1518:1519  0 */\n      0x00\n        /* \"contracts/FundMe.sol\":1504:1520  new address[](0) */\n      0xffffffffffffffff\n      dup2\n      gt\n      iszero\n      tag_45\n      jumpi\n      tag_46\n      tag_47\n      jump\t// in\n    tag_46:\n    tag_45:\n      mload(0x40)\n      swap1\n      dup1\n      dup3\n      mstore\n      dup1\n      0x20\n      mul\n      0x20\n      add\n      dup3\n      add\n      0x40\n      mstore\n      dup1\n      iszero\n      tag_48\n      jumpi\n      dup2\n      0x20\n      add\n      0x20\n      dup3\n      mul\n      dup1\n      calldatasize\n      dup4\n      calldatacopy\n      dup1\n      dup3\n      add\n      swap2\n      pop\n      pop\n      swap1\n      pop\n    tag_48:\n      pop\n        /* \"contracts/FundMe.sol\":1494:1501  funders */\n      0x01\n        /* \"contracts/FundMe.sol\":1494:1520  funders = new address[](0) */\n      swap1\n      dup1\n      mload\n      swap1\n      0x20\n      add\n      swap1\n      tag_49\n      swap3\n      swap2\n      swap1\n      tag_50\n      jump\t// in\n    tag_49:\n      pop\n        /* \"contracts/FundMe.sol\":2157:2173  bool callSuccess */\n      0x00\n        /* \"contracts/FundMe.sol\":2187:2197  msg.sender */\n      caller\n        /* \"contracts/FundMe.sol\":2179:2203  payable(msg.sender).call */\n      0xffffffffffffffffffffffffffffffffffffffff\n      and\n        /* \"contracts/FundMe.sol\":2211:2232  address(this).balance */\n      selfbalance\n        /* \"contracts/FundMe.sol\":2179:2237  payable(msg.sender).call{value: address(this).balance}(\"\") */\n      mload(0x40)\n      tag_51\n      swap1\n      tag_52\n      jump\t// in\n    tag_51:\n      0x00\n      mload(0x40)\n      dup1\n      dup4\n      sub\n      dup2\n      dup6\n      dup8\n      gas\n      call\n      swap3\n      pop\n      pop\n      pop\n      returndatasize\n      dup1\n      0x00\n      dup2\n      eq\n      tag_55\n      jumpi\n      mload(0x40)\n      swap2\n      pop\n      and(add(returndatasize, 0x3f), not(0x1f))\n      dup3\n      add\n      0x40\n      mstore\n      returndatasize\n      dup3\n      mstore\n      returndatasize\n      0x00\n      0x20\n      dup5\n      add\n      returndatacopy\n      jump(tag_54)\n    tag_55:\n      0x60\n      swap2\n      pop\n    tag_54:\n      pop\n        /* \"contracts/FundMe.sol\":2156:2237  (bool callSuccess, ) = payable(msg.sender).call{value: address(this).balance}(\"\") */\n      pop\n      swap1\n      pop\n        /* \"contracts/FundMe.sol\":2256:2267  callSuccess */\n      dup1\n        /* \"contracts/FundMe.sol\":2248:2283  require(callSuccess, \"Send failed\") */\n      tag_56\n      jumpi\n      mload(0x40)\n      0x08c379a000000000000000000000000000000000000000000000000000000000\n      dup2\n      mstore\n      0x04\n      add\n      tag_57\n      swap1\n      tag_58\n      jump\t// in\n    tag_57:\n      mload(0x40)\n      dup1\n      swap2\n      sub\n      swap1\n      revert\n    tag_56:\n        /* \"contracts/FundMe.sol\":1452:2291  {... */\n      pop\n        /* \"contracts/FundMe.sol\":1415:2291  function withdraw() public onlyOwner {... */\n      jump\t// out\n        /* \"contracts/FundMe.sol\":1127:1407  function getConversionRate(uint256 ethAmount) public view returns (uint256) {... */\n    tag_22:\n        /* \"contracts/FundMe.sol\":1194:1201  uint256 */\n      0x00\n        /* \"contracts/FundMe.sol\":1214:1230  uint256 ethPrice */\n      dup1\n        /* \"contracts/FundMe.sol\":1233:1243  getPrice() */\n      tag_60\n        /* \"contracts/FundMe.sol\":1233:1241  getPrice */\n      tag_31\n        /* \"contracts/FundMe.sol\":1233:1243  getPrice() */\n      jump\t// in\n    tag_60:\n        /* \"contracts/FundMe.sol\":1214:1243  uint256 ethPrice = getPrice() */\n      swap1\n      pop\n        /* \"contracts/FundMe.sol\":1311:1333  uint256 ethAmountInUsd */\n      0x00\n        /* \"contracts/FundMe.sol\":1361:1365  1e18 */\n      0x0de0b6b3a7640000\n        /* \"contracts/FundMe.sol\":1348:1357  ethAmount */\n      dup5\n        /* \"contracts/FundMe.sol\":1337:1345  ethPrice */\n      dup4\n        /* \"contracts/FundMe.sol\":1337:1357  ethPrice * ethAmount */\n      tag_61\n      swap2\n      swap1\n      tag_62\n      jump\t// in\n    tag_61:\n        /* \"contracts/FundMe.sol\":1336:1365  (ethPrice * ethAmount) / 1e18 */\n      tag_63\n      swap2\n      swap1\n      tag_64\n      jump\t// in\n    tag_63:\n        /* \"contracts/FundMe.sol\":1311:1365  uint256 ethAmountInUsd = (ethPrice * ethAmount) / 1e18 */\n      swap1\n      pop\n        /* \"contracts/FundMe.sol\":1385:1399  ethAmountInUsd */\n      dup1\n        /* \"contracts/FundMe.sol\":1378:1399  return ethAmountInUsd */\n      swap3\n      pop\n      pop\n      pop\n        /* \"contracts/FundMe.sol\":1127:1407  function getConversionRate(uint256 ethAmount) public view returns (uint256) {... */\n      swap2\n      swap1\n      pop\n      jump\t// out\n        /* \"contracts/FundMe.sol\":244:264  address public owner */\n    tag_26:\n      0x02\n      0x00\n      swap1\n      sload\n      swap1\n      0x0100\n      exp\n      swap1\n      div\n      0xffffffffffffffffffffffffffffffffffffffff\n      and\n      dup2\n      jump\t// out\n        /* \"contracts/FundMe.sol\":844:1111  function getPrice() public view returns(uint256) {... */\n    tag_31:\n        /* \"contracts/FundMe.sol\":884:891  uint256 */\n      0x00\n        /* \"contracts/FundMe.sol\":904:935  AggregatorV3Interface priceFeed */\n      dup1\n        /* \"contracts/FundMe.sol\":960:1002  0x8A753747A1Fa494EC906cE90E9f37563A8AF630e */\n      0x8a753747a1fa494ec906ce90e9f37563a8af630e\n        /* \"contracts/FundMe.sol\":904:1003  AggregatorV3Interface priceFeed = AggregatorV3Interface(0x8A753747A1Fa494EC906cE90E9f37563A8AF630e) */\n      swap1\n      pop\n        /* \"contracts/FundMe.sol\":1016:1028  int256 price */\n      0x00\n        /* \"contracts/FundMe.sol\":1035:1044  priceFeed */\n      dup2\n        /* \"contracts/FundMe.sol\":1035:1060  priceFeed.latestRoundData */\n      0xffffffffffffffffffffffffffffffffffffffff\n      and\n      0xfeaf968c\n        /* \"contracts/FundMe.sol\":1035:1062  priceFeed.latestRoundData() */\n      mload(0x40)\n      dup2\n      0xffffffff\n      and\n      0xe0\n      shl\n      dup2\n      mstore\n      0x04\n      add\n      0xa0\n      mload(0x40)\n      dup1\n      dup4\n      sub\n      dup2\n      dup7\n      dup1\n      extcodesize\n      iszero\n      dup1\n      iszero\n      tag_66\n      jumpi\n      0x00\n      dup1\n      revert\n    tag_66:\n      pop\n      gas\n      staticcall\n      iszero\n      dup1\n      iszero\n      tag_68\n      jumpi\n      returndatasize\n      0x00\n      dup1\n      returndatacopy\n      revert(0x00, returndatasize)\n    tag_68:\n      pop\n      pop\n      pop\n      pop\n      mload(0x40)\n      returndatasize\n      not(0x1f)\n      0x1f\n      dup3\n      add\n      and\n      dup3\n      add\n      dup1\n      0x40\n      mstore\n      pop\n      dup2\n      add\n      swap1\n      tag_69\n      swap2\n      swap1\n      tag_70\n      jump\t// in\n    tag_69:\n        /* \"contracts/FundMe.sol\":1014:1062  (,int256 price,,,) = priceFeed.latestRoundData() */\n      pop\n      pop\n      pop\n      swap2\n      pop\n      pop\n        /* \"contracts/FundMe.sol\":1098:1102  1e10 */\n      0x02540be400\n        /* \"contracts/FundMe.sol\":1090:1095  price */\n      dup2\n        /* \"contracts/FundMe.sol\":1090:1102  price * 1e10 */\n      tag_71\n      swap2\n      swap1\n      tag_72\n      jump\t// in\n    tag_71:\n        /* \"contracts/FundMe.sol\":1075:1103  return uint256(price * 1e10) */\n      swap3\n      pop\n      pop\n      pop\n        /* \"contracts/FundMe.sol\":844:1111  function getPrice() public view returns(uint256) {... */\n      swap1\n      jump\t// out\n        /* \"contracts/FundMe.sol\":472:800  function fund() public payable {... */\n    tag_34:\n        /* \"contracts/FundMe.sol\":724:734  minimumUsd */\n      sload(0x00)\n        /* \"contracts/FundMe.sol\":692:720  getConversionRate(msg.value) */\n      tag_74\n        /* \"contracts/FundMe.sol\":710:719  msg.value */\n      callvalue\n        /* \"contracts/FundMe.sol\":692:709  getConversionRate */\n      tag_22\n        /* \"contracts/FundMe.sol\":692:720  getConversionRate(msg.value) */\n      jump\t// in\n    tag_74:\n        /* \"contracts/FundMe.sol\":692:734  getConversionRate(msg.value) >= minimumUsd */\n      lt\n      iszero\n        /* \"contracts/FundMe.sol\":684:757  require(getConversionRate(msg.value) >= minimumUsd, \"Didn't send enough\") */\n      tag_75\n      jumpi\n      mload(0x40)\n      0x08c379a000000000000000000000000000000000000000000000000000000000\n      dup2\n      mstore\n      0x04\n      add\n      tag_76\n      swap1\n      tag_77\n      jump\t// in\n    tag_76:\n      mload(0x40)\n      dup1\n      swap2\n      sub\n      swap1\n      revert\n    tag_75:\n        /* \"contracts/FundMe.sol\":768:775  funders */\n      0x01\n        /* \"contracts/FundMe.sol\":781:791  msg.sender */\n      caller\n        /* \"contracts/FundMe.sol\":768:792  funders.push(msg.sender) */\n      swap1\n      dup1\n      0x01\n      dup2\n      sload\n      add\n      dup1\n      dup3\n      sstore\n      dup1\n      swap2\n      pop\n      pop\n      0x01\n      swap1\n      sub\n      swap1\n      0x00\n      mstore\n      keccak256(0x00, 0x20)\n      add\n      0x00\n      swap1\n      swap2\n      swap1\n      swap2\n      swap1\n      swap2\n      0x0100\n      exp\n      dup2\n      sload\n      dup2\n      0xffffffffffffffffffffffffffffffffffffffff\n      mul\n      not\n      and\n      swap1\n      dup4\n      0xffffffffffffffffffffffffffffffffffffffff\n      and\n      mul\n      or\n      swap1\n      sstore\n      pop\n        /* \"contracts/FundMe.sol\":472:800  function fund() public payable {... */\n      jump\t// out\n        /* \"contracts/FundMe.sol\":211:235  address[] public funders */\n    tag_38:\n      0x01\n      dup2\n      dup2\n      sload\n      dup2\n      lt\n      tag_79\n      jumpi\n      0x00\n      dup1\n      revert\n    tag_79:\n      swap1\n      0x00\n      mstore\n      keccak256(0x00, 0x20)\n      add\n      0x00\n      swap2\n      pop\n      sload\n      swap1\n      0x0100\n      exp\n      swap1\n      div\n      0xffffffffffffffffffffffffffffffffffffffff\n      and\n      dup2\n      jump\t// out\n    tag_50:\n      dup3\n      dup1\n      sload\n      dup3\n      dup3\n      sstore\n      swap1\n      0x00\n      mstore\n      keccak256(0x00, 0x20)\n      swap1\n      dup2\n      add\n      swap3\n      dup3\n      iszero\n      tag_81\n      jumpi\n      swap2\n      0x20\n      mul\n      dup3\n      add\n    tag_82:\n      dup3\n      dup2\n      gt\n      iszero\n      tag_83\n      jumpi\n      dup3\n      mload\n      dup3\n      exp(0x0100, 0x00)\n      dup2\n      sload\n      dup2\n      0xffffffffffffffffffffffffffffffffffffffff\n      mul\n      not\n      and\n      swap1\n      dup4\n      0xffffffffffffffffffffffffffffffffffffffff\n      and\n      mul\n      or\n      swap1\n      sstore\n      pop\n      swap2\n      0x20\n      add\n      swap2\n      swap1\n      0x01\n      add\n      swap1\n      jump(tag_82)\n    tag_83:\n    tag_81:\n      pop\n      swap1\n      pop\n      tag_84\n      swap2\n      swap1\n      tag_85\n      jump\t// in\n    tag_84:\n      pop\n      swap1\n      jump\t// out\n    tag_85:\n    tag_86:\n      dup1\n      dup3\n      gt\n      iszero\n      tag_87\n      jumpi\n      0x00\n      dup2\n      0x00\n      swap1\n      sstore\n      pop\n      0x01\n      add\n      jump(tag_86)\n    tag_87:\n      pop\n      swap1\n      jump\t// out\n        /* \"#utility.yul\":7:84   */\n    tag_88:\n        /* \"#utility.yul\":44:51   */\n      0x00\n        /* \"#utility.yul\":73:78   */\n      dup2\n        /* \"#utility.yul\":62:78   */\n      swap1\n      pop\n        /* \"#utility.yul\":7:84   */\n      swap2\n      swap1\n      pop\n      jump\t// out\n        /* \"#utility.yul\":90:208   */\n    tag_89:\n        /* \"#utility.yul\":177:201   */\n      tag_120\n        /* \"#utility.yul\":195:200   */\n      dup2\n        /* \"#utility.yul\":177:201   */\n      tag_88\n      jump\t// in\n    tag_120:\n        /* \"#utility.yul\":172:175   */\n      dup3\n        /* \"#utility.yul\":165:202   */\n      mstore\n        /* \"#utility.yul\":90:208   */\n      pop\n      pop\n      jump\t// out\n        /* \"#utility.yul\":214:436   */\n    tag_14:\n        /* \"#utility.yul\":307:311   */\n      0x00\n        /* \"#utility.yul\":345:347   */\n      0x20\n        /* \"#utility.yul\":334:343   */\n      dup3\n        /* \"#utility.yul\":330:348   */\n      add\n        /* \"#utility.yul\":322:348   */\n      swap1\n      pop\n        /* \"#utility.yul\":358:429   */\n      tag_122\n        /* \"#utility.yul\":426:427   */\n      0x00\n        /* \"#utility.yul\":415:424   */\n      dup4\n        /* \"#utility.yul\":411:428   */\n      add\n        /* \"#utility.yul\":402:408   */\n      dup5\n        /* \"#utility.yul\":358:429   */\n      tag_89\n      jump\t// in\n    tag_122:\n        /* \"#utility.yul\":214:436   */\n      swap3\n      swap2\n      pop\n      pop\n      jump\t// out\n        /* \"#utility.yul\":523:640   */\n    tag_91:\n        /* \"#utility.yul\":632:633   */\n      0x00\n        /* \"#utility.yul\":629:630   */\n      dup1\n        /* \"#utility.yul\":622:634   */\n      revert\n        /* \"#utility.yul\":769:891   */\n    tag_93:\n        /* \"#utility.yul\":842:866   */\n      tag_127\n        /* \"#utility.yul\":860:865   */\n      dup2\n        /* \"#utility.yul\":842:866   */\n      tag_88\n      jump\t// in\n    tag_127:\n        /* \"#utility.yul\":835:840   */\n      dup2\n        /* \"#utility.yul\":832:867   */\n      eq\n        /* \"#utility.yul\":822:885   */\n      tag_128\n      jumpi\n        /* \"#utility.yul\":881:882   */\n      0x00\n        /* \"#utility.yul\":878:879   */\n      dup1\n        /* \"#utility.yul\":871:883   */\n      revert\n        /* \"#utility.yul\":822:885   */\n    tag_128:\n        /* \"#utility.yul\":769:891   */\n      pop\n      jump\t// out\n        /* \"#utility.yul\":897:1036   */\n    tag_94:\n        /* \"#utility.yul\":943:948   */\n      0x00\n        /* \"#utility.yul\":981:987   */\n      dup2\n        /* \"#utility.yul\":968:988   */\n      calldataload\n        /* \"#utility.yul\":959:988   */\n      swap1\n      pop\n        /* \"#utility.yul\":997:1030   */\n      tag_130\n        /* \"#utility.yul\":1024:1029   */\n      dup2\n        /* \"#utility.yul\":997:1030   */\n      tag_93\n      jump\t// in\n    tag_130:\n        /* \"#utility.yul\":897:1036   */\n      swap3\n      swap2\n      pop\n      pop\n      jump\t// out\n        /* \"#utility.yul\":1042:1371   */\n    tag_21:\n        /* \"#utility.yul\":1101:1107   */\n      0x00\n        /* \"#utility.yul\":1150:1152   */\n      0x20\n        /* \"#utility.yul\":1138:1147   */\n      dup3\n        /* \"#utility.yul\":1129:1136   */\n      dup5\n        /* \"#utility.yul\":1125:1148   */\n      sub\n        /* \"#utility.yul\":1121:1153   */\n      slt\n        /* \"#utility.yul\":1118:1237   */\n      iszero\n      tag_132\n      jumpi\n        /* \"#utility.yul\":1156:1235   */\n      tag_133\n      tag_91\n      jump\t// in\n    tag_133:\n        /* \"#utility.yul\":1118:1237   */\n    tag_132:\n        /* \"#utility.yul\":1276:1277   */\n      0x00\n        /* \"#utility.yul\":1301:1354   */\n      tag_134\n        /* \"#utility.yul\":1346:1353   */\n      dup5\n        /* \"#utility.yul\":1337:1343   */\n      dup3\n        /* \"#utility.yul\":1326:1335   */\n      dup6\n        /* \"#utility.yul\":1322:1344   */\n      add\n        /* \"#utility.yul\":1301:1354   */\n      tag_94\n      jump\t// in\n    tag_134:\n        /* \"#utility.yul\":1291:1354   */\n      swap2\n      pop\n        /* \"#utility.yul\":1247:1364   */\n      pop\n        /* \"#utility.yul\":1042:1371   */\n      swap3\n      swap2\n      pop\n      pop\n      jump\t// out\n        /* \"#utility.yul\":1377:1503   */\n    tag_95:\n        /* \"#utility.yul\":1414:1421   */\n      0x00\n        /* \"#utility.yul\":1454:1496   */\n      0xffffffffffffffffffffffffffffffffffffffff\n        /* \"#utility.yul\":1447:1452   */\n      dup3\n        /* \"#utility.yul\":1443:1497   */\n      and\n        /* \"#utility.yul\":1432:1497   */\n      swap1\n      pop\n        /* \"#utility.yul\":1377:1503   */\n      swap2\n      swap1\n      pop\n      jump\t// out\n        /* \"#utility.yul\":1509:1605   */\n    tag_96:\n        /* \"#utility.yul\":1546:1553   */\n      0x00\n        /* \"#utility.yul\":1575:1599   */\n      tag_137\n        /* \"#utility.yul\":1593:1598   */\n      dup3\n        /* \"#utility.yul\":1575:1599   */\n      tag_95\n      jump\t// in\n    tag_137:\n        /* \"#utility.yul\":1564:1599   */\n      swap1\n      pop\n        /* \"#utility.yul\":1509:1605   */\n      swap2\n      swap1\n      pop\n      jump\t// out\n        /* \"#utility.yul\":1611:1729   */\n    tag_97:\n        /* \"#utility.yul\":1698:1722   */\n      tag_139\n        /* \"#utility.yul\":1716:1721   */\n      dup2\n        /* \"#utility.yul\":1698:1722   */\n      tag_96\n      jump\t// in\n    tag_139:\n        /* \"#utility.yul\":1693:1696   */\n      dup3\n        /* \"#utility.yul\":1686:1723   */\n      mstore\n        /* \"#utility.yul\":1611:1729   */\n      pop\n      pop\n      jump\t// out\n        /* \"#utility.yul\":1735:1957   */\n    tag_28:\n        /* \"#utility.yul\":1828:1832   */\n      0x00\n        /* \"#utility.yul\":1866:1868   */\n      0x20\n        /* \"#utility.yul\":1855:1864   */\n      dup3\n        /* \"#utility.yul\":1851:1869   */\n      add\n        /* \"#utility.yul\":1843:1869   */\n      swap1\n      pop\n        /* \"#utility.yul\":1879:1950   */\n      tag_141\n        /* \"#utility.yul\":1947:1948   */\n      0x00\n        /* \"#utility.yul\":1936:1945   */\n      dup4\n        /* \"#utility.yul\":1932:1949   */\n      add\n        /* \"#utility.yul\":1923:1929   */\n      dup5\n        /* \"#utility.yul\":1879:1950   */\n      tag_97\n      jump\t// in\n    tag_141:\n        /* \"#utility.yul\":1735:1957   */\n      swap3\n      swap2\n      pop\n      pop\n      jump\t// out\n        /* \"#utility.yul\":1963:2132   */\n    tag_98:\n        /* \"#utility.yul\":2047:2058   */\n      0x00\n        /* \"#utility.yul\":2081:2087   */\n      dup3\n        /* \"#utility.yul\":2076:2079   */\n      dup3\n        /* \"#utility.yul\":2069:2088   */\n      mstore\n        /* \"#utility.yul\":2121:2125   */\n      0x20\n        /* \"#utility.yul\":2116:2119   */\n      dup3\n        /* \"#utility.yul\":2112:2126   */\n      add\n        /* \"#utility.yul\":2097:2126   */\n      swap1\n      pop\n        /* \"#utility.yul\":1963:2132   */\n      swap3\n      swap2\n      pop\n      pop\n      jump\t// out\n        /* \"#utility.yul\":2138:2307   */\n    tag_99:\n        /* \"#utility.yul\":2278:2299   */\n      0x53656e646572206973206e6f74206f776e657200000000000000000000000000\n        /* \"#utility.yul\":2274:2275   */\n      0x00\n        /* \"#utility.yul\":2266:2272   */\n      dup3\n        /* \"#utility.yul\":2262:2276   */\n      add\n        /* \"#utility.yul\":2255:2300   */\n      mstore\n        /* \"#utility.yul\":2138:2307   */\n      pop\n      jump\t// out\n        /* \"#utility.yul\":2313:2679   */\n    tag_100:\n        /* \"#utility.yul\":2455:2458   */\n      0x00\n        /* \"#utility.yul\":2476:2543   */\n      tag_145\n        /* \"#utility.yul\":2540:2542   */\n      0x13\n        /* \"#utility.yul\":2535:2538   */\n      dup4\n        /* \"#utility.yul\":2476:2543   */\n      tag_98\n      jump\t// in\n    tag_145:\n        /* \"#utility.yul\":2469:2543   */\n      swap2\n      pop\n        /* \"#utility.yul\":2552:2645   */\n      tag_146\n        /* \"#utility.yul\":2641:2644   */\n      dup3\n        /* \"#utility.yul\":2552:2645   */\n      tag_99\n      jump\t// in\n    tag_146:\n        /* \"#utility.yul\":2670:2672   */\n      0x20\n        /* \"#utility.yul\":2665:2668   */\n      dup3\n        /* \"#utility.yul\":2661:2673   */\n      add\n        /* \"#utility.yul\":2654:2673   */\n      swap1\n      pop\n        /* \"#utility.yul\":2313:2679   */\n      swap2\n      swap1\n      pop\n      jump\t// out\n        /* \"#utility.yul\":2685:3104   */\n    tag_43:\n        /* \"#utility.yul\":2851:2855   */\n      0x00\n        /* \"#utility.yul\":2889:2891   */\n      0x20\n        /* \"#utility.yul\":2878:2887   */\n      dup3\n        /* \"#utility.yul\":2874:2892   */\n      add\n        /* \"#utility.yul\":2866:2892   */\n      swap1\n      pop\n        /* \"#utility.yul\":2938:2947   */\n      dup2\n        /* \"#utility.yul\":2932:2936   */\n      dup2\n        /* \"#utility.yul\":2928:2948   */\n      sub\n        /* \"#utility.yul\":2924:2925   */\n      0x00\n        /* \"#utility.yul\":2913:2922   */\n      dup4\n        /* \"#utility.yul\":2909:2926   */\n      add\n        /* \"#utility.yul\":2902:2949   */\n      mstore\n        /* \"#utility.yul\":2966:3097   */\n      tag_148\n        /* \"#utility.yul\":3092:3096   */\n      dup2\n        /* \"#utility.yul\":2966:3097   */\n      tag_100\n      jump\t// in\n    tag_148:\n        /* \"#utility.yul\":2958:3097   */\n      swap1\n      pop\n        /* \"#utility.yul\":2685:3104   */\n      swap2\n      swap1\n      pop\n      jump\t// out\n        /* \"#utility.yul\":3110:3290   */\n    tag_47:\n        /* \"#utility.yul\":3158:3235   */\n      0x4e487b7100000000000000000000000000000000000000000000000000000000\n        /* \"#utility.yul\":3155:3156   */\n      0x00\n        /* \"#utility.yul\":3148:3236   */\n      mstore\n        /* \"#utility.yul\":3255:3259   */\n      0x41\n        /* \"#utility.yul\":3252:3253   */\n      0x04\n        /* \"#utility.yul\":3245:3260   */\n      mstore\n        /* \"#utility.yul\":3279:3283   */\n      0x24\n        /* \"#utility.yul\":3276:3277   */\n      0x00\n        /* \"#utility.yul\":3269:3284   */\n      revert\n        /* \"#utility.yul\":3296:3443   */\n    tag_101:\n        /* \"#utility.yul\":3397:3408   */\n      0x00\n        /* \"#utility.yul\":3434:3437   */\n      dup2\n        /* \"#utility.yul\":3419:3437   */\n      swap1\n      pop\n        /* \"#utility.yul\":3296:3443   */\n      swap3\n      swap2\n      pop\n      pop\n      jump\t// out\n        /* \"#utility.yul\":3449:3563   */\n    tag_102:\n      pop\n      jump\t// out\n        /* \"#utility.yul\":3569:3967   */\n    tag_103:\n        /* \"#utility.yul\":3728:3731   */\n      0x00\n        /* \"#utility.yul\":3749:3832   */\n      tag_153\n        /* \"#utility.yul\":3830:3831   */\n      0x00\n        /* \"#utility.yul\":3825:3828   */\n      dup4\n        /* \"#utility.yul\":3749:3832   */\n      tag_101\n      jump\t// in\n    tag_153:\n        /* \"#utility.yul\":3742:3832   */\n      swap2\n      pop\n        /* \"#utility.yul\":3841:3934   */\n      tag_154\n        /* \"#utility.yul\":3930:3933   */\n      dup3\n        /* \"#utility.yul\":3841:3934   */\n      tag_102\n      jump\t// in\n    tag_154:\n        /* \"#utility.yul\":3959:3960   */\n      0x00\n        /* \"#utility.yul\":3954:3957   */\n      dup3\n        /* \"#utility.yul\":3950:3961   */\n      add\n        /* \"#utility.yul\":3943:3961   */\n      swap1\n      pop\n        /* \"#utility.yul\":3569:3967   */\n      swap2\n      swap1\n      pop\n      jump\t// out\n        /* \"#utility.yul\":3973:4352   */\n    tag_52:\n        /* \"#utility.yul\":4157:4160   */\n      0x00\n        /* \"#utility.yul\":4179:4326   */\n      tag_156\n        /* \"#utility.yul\":4322:4325   */\n      dup3\n        /* \"#utility.yul\":4179:4326   */\n      tag_103\n      jump\t// in\n    tag_156:\n        /* \"#utility.yul\":4172:4326   */\n      swap2\n      pop\n        /* \"#utility.yul\":4343:4346   */\n      dup2\n        /* \"#utility.yul\":4336:4346   */\n      swap1\n      pop\n        /* \"#utility.yul\":3973:4352   */\n      swap2\n      swap1\n      pop\n      jump\t// out\n        /* \"#utility.yul\":4358:4519   */\n    tag_104:\n        /* \"#utility.yul\":4498:4511   */\n      0x53656e64206661696c6564000000000000000000000000000000000000000000\n        /* \"#utility.yul\":4494:4495   */\n      0x00\n        /* \"#utility.yul\":4486:4492   */\n      dup3\n        /* \"#utility.yul\":4482:4496   */\n      add\n        /* \"#utility.yul\":4475:4512   */\n      mstore\n        /* \"#utility.yul\":4358:4519   */\n      pop\n      jump\t// out\n        /* \"#utility.yul\":4525:4891   */\n    tag_105:\n        /* \"#utility.yul\":4667:4670   */\n      0x00\n        /* \"#utility.yul\":4688:4755   */\n      tag_159\n        /* \"#utility.yul\":4752:4754   */\n      0x0b\n        /* \"#utility.yul\":4747:4750   */\n      dup4\n        /* \"#utility.yul\":4688:4755   */\n      tag_98\n      jump\t// in\n    tag_159:\n        /* \"#utility.yul\":4681:4755   */\n      swap2\n      pop\n        /* \"#utility.yul\":4764:4857   */\n      tag_160\n        /* \"#utility.yul\":4853:4856   */\n      dup3\n        /* \"#utility.yul\":4764:4857   */\n      tag_104\n      jump\t// in\n    tag_160:\n        /* \"#utility.yul\":4882:4884   */\n      0x20\n        /* \"#utility.yul\":4877:4880   */\n      dup3\n        /* \"#utility.yul\":4873:4885   */\n      add\n        /* \"#utility.yul\":4866:4885   */\n      swap1\n      pop\n        /* \"#utility.yul\":4525:4891   */\n      swap2\n      swap1\n      pop\n      jump\t// out\n        /* \"#utility.yul\":4897:5316   */\n    tag_58:\n        /* \"#utility.yul\":5063:5067   */\n      0x00\n        /* \"#utility.yul\":5101:5103   */\n      0x20\n        /* \"#utility.yul\":5090:5099   */\n      dup3\n        /* \"#utility.yul\":5086:5104   */\n      add\n        /* \"#utility.yul\":5078:5104   */\n      swap1\n      pop\n        /* \"#utility.yul\":5150:5159   */\n      dup2\n        /* \"#utility.yul\":5144:5148   */\n      dup2\n        /* \"#utility.yul\":5140:5160   */\n      sub\n        /* \"#utility.yul\":5136:5137   */\n      0x00\n        /* \"#utility.yul\":5125:5134   */\n      dup4\n        /* \"#utility.yul\":5121:5138   */\n      add\n        /* \"#utility.yul\":5114:5161   */\n      mstore\n        /* \"#utility.yul\":5178:5309   */\n      tag_162\n        /* \"#utility.yul\":5304:5308   */\n      dup2\n        /* \"#utility.yul\":5178:5309   */\n      tag_105\n      jump\t// in\n    tag_162:\n        /* \"#utility.yul\":5170:5309   */\n      swap1\n      pop\n        /* \"#utility.yul\":4897:5316   */\n      swap2\n      swap1\n      pop\n      jump\t// out\n        /* \"#utility.yul\":5322:5502   */\n    tag_106:\n        /* \"#utility.yul\":5370:5447   */\n      0x4e487b7100000000000000000000000000000000000000000000000000000000\n        /* \"#utility.yul\":5367:5368   */\n      0x00\n        /* \"#utility.yul\":5360:5448   */\n      mstore\n        /* \"#utility.yul\":5467:5471   */\n      0x11\n        /* \"#utility.yul\":5464:5465   */\n      0x04\n        /* \"#utility.yul\":5457:5472   */\n      mstore\n        /* \"#utility.yul\":5491:5495   */\n      0x24\n        /* \"#utility.yul\":5488:5489   */\n      0x00\n        /* \"#utility.yul\":5481:5496   */\n      revert\n        /* \"#utility.yul\":5508:5856   */\n    tag_62:\n        /* \"#utility.yul\":5548:5555   */\n      0x00\n        /* \"#utility.yul\":5571:5591   */\n      tag_165\n        /* \"#utility.yul\":5589:5590   */\n      dup3\n        /* \"#utility.yul\":5571:5591   */\n      tag_88\n      jump\t// in\n    tag_165:\n        /* \"#utility.yul\":5566:5591   */\n      swap2\n      pop\n        /* \"#utility.yul\":5605:5625   */\n      tag_166\n        /* \"#utility.yul\":5623:5624   */\n      dup4\n        /* \"#utility.yul\":5605:5625   */\n      tag_88\n      jump\t// in\n    tag_166:\n        /* \"#utility.yul\":5600:5625   */\n      swap3\n      pop\n        /* \"#utility.yul\":5793:5794   */\n      dup2\n        /* \"#utility.yul\":5725:5791   */\n      0xffffffffffffffffffffffffffffffffffffffffffffffffffffffffffffffff\n        /* \"#utility.yul\":5721:5795   */\n      div\n        /* \"#utility.yul\":5718:5719   */\n      dup4\n        /* \"#utility.yul\":5715:5796   */\n      gt\n        /* \"#utility.yul\":5710:5711   */\n      dup3\n        /* \"#utility.yul\":5703:5712   */\n      iszero\n        /* \"#utility.yul\":5696:5713   */\n      iszero\n        /* \"#utility.yul\":5692:5797   */\n      and\n        /* \"#utility.yul\":5689:5820   */\n      iszero\n      tag_167\n      jumpi\n        /* \"#utility.yul\":5800:5818   */\n      tag_168\n      tag_106\n      jump\t// in\n    tag_168:\n        /* \"#utility.yul\":5689:5820   */\n    tag_167:\n        /* \"#utility.yul\":5848:5849   */\n      dup3\n        /* \"#utility.yul\":5845:5846   */\n      dup3\n        /* \"#utility.yul\":5841:5850   */\n      mul\n        /* \"#utility.yul\":5830:5850   */\n      swap1\n      pop\n        /* \"#utility.yul\":5508:5856   */\n      swap3\n      swap2\n      pop\n      pop\n      jump\t// out\n        /* \"#utility.yul\":5862:6042   */\n    tag_107:\n        /* \"#utility.yul\":5910:5987   */\n      0x4e487b7100000000000000000000000000000000000000000000000000000000\n        /* \"#utility.yul\":5907:5908   */\n      0x00\n        /* \"#utility.yul\":5900:5988   */\n      mstore\n        /* \"#utility.yul\":6007:6011   */\n      0x12\n        /* \"#utility.yul\":6004:6005   */\n      0x04\n        /* \"#utility.yul\":5997:6012   */\n      mstore\n        /* \"#utility.yul\":6031:6035   */\n      0x24\n        /* \"#utility.yul\":6028:6029   */\n      0x00\n        /* \"#utility.yul\":6021:6036   */\n      revert\n        /* \"#utility.yul\":6048:6233   */\n    tag_64:\n        /* \"#utility.yul\":6088:6089   */\n      0x00\n        /* \"#utility.yul\":6105:6125   */\n      tag_171\n        /* \"#utility.yul\":6123:6124   */\n      dup3\n        /* \"#utility.yul\":6105:6125   */\n      tag_88\n      jump\t// in\n    tag_171:\n        /* \"#utility.yul\":6100:6125   */\n      swap2\n      pop\n        /* \"#utility.yul\":6139:6159   */\n      tag_172\n        /* \"#utility.yul\":6157:6158   */\n      dup4\n        /* \"#utility.yul\":6139:6159   */\n      tag_88\n      jump\t// in\n    tag_172:\n        /* \"#utility.yul\":6134:6159   */\n      swap3\n      pop\n        /* \"#utility.yul\":6178:6179   */\n      dup3\n        /* \"#utility.yul\":6168:6203   */\n      tag_173\n      jumpi\n        /* \"#utility.yul\":6183:6201   */\n      tag_174\n      tag_107\n      jump\t// in\n    tag_174:\n        /* \"#utility.yul\":6168:6203   */\n    tag_173:\n        /* \"#utility.yul\":6225:6226   */\n      dup3\n        /* \"#utility.yul\":6222:6223   */\n      dup3\n        /* \"#utility.yul\":6218:6227   */\n      div\n        /* \"#utility.yul\":6213:6227   */\n      swap1\n      pop\n        /* \"#utility.yul\":6048:6233   */\n      swap3\n      swap2\n      pop\n      pop\n      jump\t// out\n        /* \"#utility.yul\":6239:6344   */\n    tag_108:\n        /* \"#utility.yul\":6275:6282   */\n      0x00\n        /* \"#utility.yul\":6315:6337   */\n      0xffffffffffffffffffff\n        /* \"#utility.yul\":6308:6313   */\n      dup3\n        /* \"#utility.yul\":6304:6338   */\n      and\n        /* \"#utility.yul\":6293:6338   */\n      swap1\n      pop\n        /* \"#utility.yul\":6239:6344   */\n      swap2\n      swap1\n      pop\n      jump\t// out\n        /* \"#utility.yul\":6350:6470   */\n    tag_109:\n        /* \"#utility.yul\":6422:6445   */\n      tag_177\n        /* \"#utility.yul\":6439:6444   */\n      dup2\n        /* \"#utility.yul\":6422:6445   */\n      tag_108\n      jump\t// in\n    tag_177:\n        /* \"#utility.yul\":6415:6420   */\n      dup2\n        /* \"#utility.yul\":6412:6446   */\n      eq\n        /* \"#utility.yul\":6402:6464   */\n      tag_178\n      jumpi\n        /* \"#utility.yul\":6460:6461   */\n      0x00\n        /* \"#utility.yul\":6457:6458   */\n      dup1\n        /* \"#utility.yul\":6450:6462   */\n      revert\n        /* \"#utility.yul\":6402:6464   */\n    tag_178:\n        /* \"#utility.yul\":6350:6470   */\n      pop\n      jump\t// out\n        /* \"#utility.yul\":6476:6617   */\n    tag_110:\n        /* \"#utility.yul\":6532:6537   */\n      0x00\n        /* \"#utility.yul\":6563:6569   */\n      dup2\n        /* \"#utility.yul\":6557:6570   */\n      mload\n        /* \"#utility.yul\":6548:6570   */\n      swap1\n      pop\n        /* \"#utility.yul\":6579:6611   */\n      tag_180\n        /* \"#utility.yul\":6605:6610   */\n      dup2\n        /* \"#utility.yul\":6579:6611   */\n      tag_109\n      jump\t// in\n    tag_180:\n        /* \"#utility.yul\":6476:6617   */\n      swap3\n      swap2\n      pop\n      pop\n      jump\t// out\n        /* \"#utility.yul\":6623:6699   */\n    tag_111:\n        /* \"#utility.yul\":6659:6666   */\n      0x00\n        /* \"#utility.yul\":6688:6693   */\n      dup2\n        /* \"#utility.yul\":6677:6693   */\n      swap1\n      pop\n        /* \"#utility.yul\":6623:6699   */\n      swap2\n      swap1\n      pop\n      jump\t// out\n        /* \"#utility.yul\":6705:6825   */\n    tag_112:\n        /* \"#utility.yul\":6777:6800   */\n      tag_183\n        /* \"#utility.yul\":6794:6799   */\n      dup2\n        /* \"#utility.yul\":6777:6800   */\n      tag_111\n      jump\t// in\n    tag_183:\n        /* \"#utility.yul\":6770:6775   */\n      dup2\n        /* \"#utility.yul\":6767:6801   */\n      eq\n        /* \"#utility.yul\":6757:6819   */\n      tag_184\n      jumpi\n        /* \"#utility.yul\":6815:6816   */\n      0x00\n        /* \"#utility.yul\":6812:6813   */\n      dup1\n        /* \"#utility.yul\":6805:6817   */\n      revert\n        /* \"#utility.yul\":6757:6819   */\n    tag_184:\n        /* \"#utility.yul\":6705:6825   */\n      pop\n      jump\t// out\n        /* \"#utility.yul\":6831:6972   */\n    tag_113:\n        /* \"#utility.yul\":6887:6892   */\n      0x00\n        /* \"#utility.yul\":6918:6924   */\n      dup2\n        /* \"#utility.yul\":6912:6925   */\n      mload\n        /* \"#utility.yul\":6903:6925   */\n      swap1\n      pop\n        /* \"#utility.yul\":6934:6966   */\n      tag_186\n        /* \"#utility.yul\":6960:6965   */\n      dup2\n        /* \"#utility.yul\":6934:6966   */\n      tag_112\n      jump\t// in\n    tag_186:\n        /* \"#utility.yul\":6831:6972   */\n      swap3\n      swap2\n      pop\n      pop\n      jump\t// out\n        /* \"#utility.yul\":6978:7121   */\n    tag_114:\n        /* \"#utility.yul\":7035:7040   */\n      0x00\n        /* \"#utility.yul\":7066:7072   */\n      dup2\n        /* \"#utility.yul\":7060:7073   */\n      mload\n        /* \"#utility.yul\":7051:7073   */\n      swap1\n      pop\n        /* \"#utility.yul\":7082:7115   */\n      tag_188\n        /* \"#utility.yul\":7109:7114   */\n      dup2\n        /* \"#utility.yul\":7082:7115   */\n      tag_93\n      jump\t// in\n    tag_188:\n        /* \"#utility.yul\":6978:7121   */\n      swap3\n      swap2\n      pop\n      pop\n      jump\t// out\n        /* \"#utility.yul\":7127:8098   */\n    tag_70:\n        /* \"#utility.yul\":7230:7236   */\n      0x00\n        /* \"#utility.yul\":7238:7244   */\n      dup1\n        /* \"#utility.yul\":7246:7252   */\n      0x00\n        /* \"#utility.yul\":7254:7260   */\n      dup1\n        /* \"#utility.yul\":7262:7268   */\n      0x00\n        /* \"#utility.yul\":7311:7314   */\n      0xa0\n        /* \"#utility.yul\":7299:7308   */\n      dup7\n        /* \"#utility.yul\":7290:7297   */\n      dup9\n        /* \"#utility.yul\":7286:7309   */\n      sub\n        /* \"#utility.yul\":7282:7315   */\n      slt\n        /* \"#utility.yul\":7279:7399   */\n      iszero\n      tag_190\n      jumpi\n        /* \"#utility.yul\":7318:7397   */\n      tag_191\n      tag_91\n      jump\t// in\n    tag_191:\n        /* \"#utility.yul\":7279:7399   */\n    tag_190:\n        /* \"#utility.yul\":7438:7439   */\n      0x00\n        /* \"#utility.yul\":7463:7526   */\n      tag_192\n        /* \"#utility.yul\":7518:7525   */\n      dup9\n        /* \"#utility.yul\":7509:7515   */\n      dup3\n        /* \"#utility.yul\":7498:7507   */\n      dup10\n        /* \"#utility.yul\":7494:7516   */\n      add\n        /* \"#utility.yul\":7463:7526   */\n      tag_110\n      jump\t// in\n    tag_192:\n        /* \"#utility.yul\":7453:7526   */\n      swap6\n      pop\n        /* \"#utility.yul\":7409:7536   */\n      pop\n        /* \"#utility.yul\":7575:7577   */\n      0x20\n        /* \"#utility.yul\":7601:7664   */\n      tag_193\n        /* \"#utility.yul\":7656:7663   */\n      dup9\n        /* \"#utility.yul\":7647:7653   */\n      dup3\n        /* \"#utility.yul\":7636:7645   */\n      dup10\n        /* \"#utility.yul\":7632:7654   */\n      add\n        /* \"#utility.yul\":7601:7664   */\n      tag_113\n      jump\t// in\n    tag_193:\n        /* \"#utility.yul\":7591:7664   */\n      swap5\n      pop\n        /* \"#utility.yul\":7546:7674   */\n      pop\n        /* \"#utility.yul\":7713:7715   */\n      0x40\n        /* \"#utility.yul\":7739:7803   */\n      tag_194\n        /* \"#utility.yul\":7795:7802   */\n      dup9\n        /* \"#utility.yul\":7786:7792   */\n      dup3\n        /* \"#utility.yul\":7775:7784   */\n      dup10\n        /* \"#utility.yul\":7771:7793   */\n      add\n        /* \"#utility.yul\":7739:7803   */\n      tag_114\n      jump\t// in\n    tag_194:\n        /* \"#utility.yul\":7729:7803   */\n      swap4\n      pop\n        /* \"#utility.yul\":7684:7813   */\n      pop\n        /* \"#utility.yul\":7852:7854   */\n      0x60\n        /* \"#utility.yul\":7878:7942   */\n      tag_195\n        /* \"#utility.yul\":7934:7941   */\n      dup9\n        /* \"#utility.yul\":7925:7931   */\n      dup3\n        /* \"#utility.yul\":7914:7923   */\n      dup10\n        /* \"#utility.yul\":7910:7932   */\n      add\n        /* \"#utility.yul\":7878:7942   */\n      tag_114\n      jump\t// in\n    tag_195:\n        /* \"#utility.yul\":7868:7942   */\n      swap3\n      pop\n        /* \"#utility.yul\":7823:7952   */\n      pop\n        /* \"#utility.yul\":7991:7994   */\n      0x80\n        /* \"#utility.yul\":8018:8081   */\n      tag_196\n        /* \"#utility.yul\":8073:8080   */\n      dup9\n        /* \"#utility.yul\":8064:8070   */\n      dup3\n        /* \"#utility.yul\":8053:8062   */\n      dup10\n        /* \"#utility.yul\":8049:8071   */\n      add\n        /* \"#utility.yul\":8018:8081   */\n      tag_110\n      jump\t// in\n    tag_196:\n        /* \"#utility.yul\":8008:8081   */\n      swap2\n      pop\n        /* \"#utility.yul\":7962:8091   */\n      pop\n        /* \"#utility.yul\":7127:8098   */\n      swap3\n      swap6\n      pop\n      swap3\n      swap6\n      swap1\n      swap4\n      pop\n      jump\t// out\n        /* \"#utility.yul\":8104:9095   */\n    tag_72:\n        /* \"#utility.yul\":8143:8150   */\n      0x00\n        /* \"#utility.yul\":8166:8185   */\n      tag_198\n        /* \"#utility.yul\":8183:8184   */\n      dup3\n        /* \"#utility.yul\":8166:8185   */\n      tag_111\n      jump\t// in\n    tag_198:\n        /* \"#utility.yul\":8161:8185   */\n      swap2\n      pop\n        /* \"#utility.yul\":8199:8218   */\n      tag_199\n        /* \"#utility.yul\":8216:8217   */\n      dup4\n        /* \"#utility.yul\":8199:8218   */\n      tag_111\n      jump\t// in\n    tag_199:\n        /* \"#utility.yul\":8194:8218   */\n      swap3\n      pop\n        /* \"#utility.yul\":8400:8401   */\n      dup3\n        /* \"#utility.yul\":8332:8398   */\n      0x7fffffffffffffffffffffffffffffffffffffffffffffffffffffffffffffff\n        /* \"#utility.yul\":8328:8402   */\n      div\n        /* \"#utility.yul\":8325:8326   */\n      dup3\n        /* \"#utility.yul\":8322:8403   */\n      gt\n        /* \"#utility.yul\":8317:8318   */\n      0x00\n        /* \"#utility.yul\":8314:8315   */\n      dup5\n        /* \"#utility.yul\":8310:8319   */\n      sgt\n        /* \"#utility.yul\":8306:8307   */\n      0x00\n        /* \"#utility.yul\":8303:8304   */\n      dup5\n        /* \"#utility.yul\":8299:8308   */\n      sgt\n        /* \"#utility.yul\":8295:8320   */\n      and\n        /* \"#utility.yul\":8291:8404   */\n      and\n        /* \"#utility.yul\":8288:8427   */\n      iszero\n      tag_200\n      jumpi\n        /* \"#utility.yul\":8407:8425   */\n      tag_201\n      tag_106\n      jump\t// in\n    tag_201:\n        /* \"#utility.yul\":8288:8427   */\n    tag_200:\n        /* \"#utility.yul\":8611:8612   */\n      dup2\n        /* \"#utility.yul\":8543:8609   */\n      0x8000000000000000000000000000000000000000000000000000000000000000\n        /* \"#utility.yul\":8538:8613   */\n      sdiv\n        /* \"#utility.yul\":8535:8536   */\n      dup4\n        /* \"#utility.yul\":8531:8614   */\n      slt\n        /* \"#utility.yul\":8526:8527   */\n      0x00\n        /* \"#utility.yul\":8523:8524   */\n      dup5\n        /* \"#utility.yul\":8519:8528   */\n      slt\n        /* \"#utility.yul\":8515:8516   */\n      0x00\n        /* \"#utility.yul\":8512:8513   */\n      dup5\n        /* \"#utility.yul\":8508:8517   */\n      sgt\n        /* \"#utility.yul\":8504:8529   */\n      and\n        /* \"#utility.yul\":8500:8615   */\n      and\n        /* \"#utility.yul\":8497:8638   */\n      iszero\n      tag_202\n      jumpi\n        /* \"#utility.yul\":8618:8636   */\n      tag_203\n      tag_106\n      jump\t// in\n    tag_203:\n        /* \"#utility.yul\":8497:8638   */\n    tag_202:\n        /* \"#utility.yul\":8822:8823   */\n      dup3\n        /* \"#utility.yul\":8754:8820   */\n      0x8000000000000000000000000000000000000000000000000000000000000000\n        /* \"#utility.yul\":8749:8824   */\n      sdiv\n        /* \"#utility.yul\":8746:8747   */\n      dup3\n        /* \"#utility.yul\":8742:8825   */\n      slt\n        /* \"#utility.yul\":8737:8738   */\n      0x00\n        /* \"#utility.yul\":8734:8735   */\n      dup5\n        /* \"#utility.yul\":8730:8739   */\n      sgt\n        /* \"#utility.yul\":8726:8727   */\n      0x00\n        /* \"#utility.yul\":8723:8724   */\n      dup5\n        /* \"#utility.yul\":8719:8728   */\n      slt\n        /* \"#utility.yul\":8715:8740   */\n      and\n        /* \"#utility.yul\":8711:8826   */\n      and\n        /* \"#utility.yul\":8708:8849   */\n      iszero\n      tag_204\n      jumpi\n        /* \"#utility.yul\":8829:8847   */\n      tag_205\n      tag_106\n      jump\t// in\n    tag_205:\n        /* \"#utility.yul\":8708:8849   */\n    tag_204:\n        /* \"#utility.yul\":9032:9033   */\n      dup3\n        /* \"#utility.yul\":8964:9030   */\n      0x7fffffffffffffffffffffffffffffffffffffffffffffffffffffffffffffff\n        /* \"#utility.yul\":8959:9034   */\n      sdiv\n        /* \"#utility.yul\":8956:8957   */\n      dup3\n        /* \"#utility.yul\":8952:9035   */\n      slt\n        /* \"#utility.yul\":8947:8948   */\n      0x00\n        /* \"#utility.yul\":8944:8945   */\n      dup5\n        /* \"#utility.yul\":8940:8949   */\n      slt\n        /* \"#utility.yul\":8936:8937   */\n      0x00\n        /* \"#utility.yul\":8933:8934   */\n      dup5\n        /* \"#utility.yul\":8929:8938   */\n      slt\n        /* \"#utility.yul\":8925:8950   */\n      and\n        /* \"#utility.yul\":8921:9036   */\n      and\n        /* \"#utility.yul\":8918:9059   */\n      iszero\n      tag_206\n      jumpi\n        /* \"#utility.yul\":9039:9057   */\n      tag_207\n      tag_106\n      jump\t// in\n    tag_207:\n        /* \"#utility.yul\":8918:9059   */\n    tag_206:\n        /* \"#utility.yul\":9087:9088   */\n      dup3\n        /* \"#utility.yul\":9084:9085   */\n      dup3\n        /* \"#utility.yul\":9080:9089   */\n      mul\n        /* \"#utility.yul\":9069:9089   */\n      swap1\n      pop\n        /* \"#utility.yul\":8104:9095   */\n      swap3\n      swap2\n      pop\n      pop\n      jump\t// out\n        /* \"#utility.yul\":9101:9269   */\n    tag_115:\n        /* \"#utility.yul\":9241:9261   */\n      0x4469646e27742073656e6420656e6f7567680000000000000000000000000000\n        /* \"#utility.yul\":9237:9238   */\n      0x00\n        /* \"#utility.yul\":9229:9235   */\n      dup3\n        /* \"#utility.yul\":9225:9239   */\n      add\n        /* \"#utility.yul\":9218:9262   */\n      mstore\n        /* \"#utility.yul\":9101:9269   */\n      pop\n      jump\t// out\n        /* \"#utility.yul\":9275:9641   */\n    tag_116:\n        /* \"#utility.yul\":9417:9420   */\n      0x00\n        /* \"#utility.yul\":9438:9505   */\n      tag_210\n        /* \"#utility.yul\":9502:9504   */\n      0x12\n        /* \"#utility.yul\":9497:9500   */\n      dup4\n        /* \"#utility.yul\":9438:9505   */\n      tag_98\n      jump\t// in\n    tag_210:\n        /* \"#utility.yul\":9431:9505   */\n      swap2\n      pop\n        /* \"#utility.yul\":9514:9607   */\n      tag_211\n        /* \"#utility.yul\":9603:9606   */\n      dup3\n        /* \"#utility.yul\":9514:9607   */\n      tag_115\n      jump\t// in\n    tag_211:\n        /* \"#utility.yul\":9632:9634   */\n      0x20\n        /* \"#utility.yul\":9627:9630   */\n      dup3\n        /* \"#utility.yul\":9623:9635   */\n      add\n        /* \"#utility.yul\":9616:9635   */\n      swap1\n      pop\n        /* \"#utility.yul\":9275:9641   */\n      swap2\n      swap1\n      pop\n      jump\t// out\n        /* \"#utility.yul\":9647:10066   */\n    tag_77:\n        /* \"#utility.yul\":9813:9817   */\n      0x00\n        /* \"#utility.yul\":9851:9853   */\n      0x20\n        /* \"#utility.yul\":9840:9849   */\n      dup3\n        /* \"#utility.yul\":9836:9854   */\n      add\n        /* \"#utility.yul\":9828:9854   */\n      swap1\n      pop\n        /* \"#utility.yul\":9900:9909   */\n      dup2\n        /* \"#utility.yul\":9894:9898   */\n      dup2\n        /* \"#utility.yul\":9890:9910   */\n      sub\n        /* \"#utility.yul\":9886:9887   */\n      0x00\n        /* \"#utility.yul\":9875:9884   */\n      dup4\n        /* \"#utility.yul\":9871:9888   */\n      add\n        /* \"#utility.yul\":9864:9911   */\n      mstore\n        /* \"#utility.yul\":9928:10059   */\n      tag_213\n        /* \"#utility.yul\":10054:10058   */\n      dup2\n        /* \"#utility.yul\":9928:10059   */\n      tag_116\n      jump\t// in\n    tag_213:\n        /* \"#utility.yul\":9920:10059   */\n      swap1\n      pop\n        /* \"#utility.yul\":9647:10066   */\n      swap2\n      swap1\n      pop\n      jump\t// out\n\n    auxdata: 0xa264697066735822122056830b132da8624c093a026508829bb15b457c7ac89d6f1261e38578aa68d48464736f6c63430008080033\n}\n",
				"bytecode": {
					"linkReferences": {},
					"object": "60806040526802b5e3af16b188000060005534801561001d57600080fd5b5033600260006101000a81548173ffffffffffffffffffffffffffffffffffffffff021916908373ffffffffffffffffffffffffffffffffffffffff160217905550610bdc8061006e6000396000f3fe6080604052600436106100705760003560e01c80638da5cb5b1161004e5780638da5cb5b146100f457806398d5fdca1461011f578063b60d42881461014a578063dc0d3dff1461015457610070565b8063098de820146100755780633ccfd60b146100a05780636e5b6b28146100b7575b600080fd5b34801561008157600080fd5b5061008a610191565b60405161009791906105ff565b60405180910390f35b3480156100ac57600080fd5b506100b5610197565b005b3480156100c357600080fd5b506100de60048036038101906100d9919061064b565b610336565b6040516100eb91906105ff565b60405180910390f35b34801561010057600080fd5b50610109610370565b60405161011691906106b9565b60405180910390f35b34801561012b57600080fd5b50610134610396565b60405161014191906105ff565b60405180910390f35b61015261044e565b005b34801561016057600080fd5b5061017b6004803603810190610176919061064b565b610500565b60405161018891906106b9565b60405180910390f35b60005481565b600260009054906101000a900473ffffffffffffffffffffffffffffffffffffffff1673ffffffffffffffffffffffffffffffffffffffff163373ffffffffffffffffffffffffffffffffffffffff1614610227576040517f08c379a000000000000000000000000000000000000000000000000000000000815260040161021e90610731565b60405180910390fd5b600067ffffffffffffffff81111561024257610241610751565b5b6040519080825280602002602001820160405280156102705781602001602082028036833780820191505090505b506001908051906020019061028692919061053f565b5060003373ffffffffffffffffffffffffffffffffffffffff16476040516102ad906107b1565b60006040518083038185875af1925050503d80600081146102ea576040519150601f19603f3d011682016040523d82523d6000602084013e6102ef565b606091505b5050905080610333576040517f08c379a000000000000000000000000000000000000000000000000000000000815260040161032a90610812565b60405180910390fd5b50565b600080610341610396565b90506000670de0b6b3a7640000848361035a9190610861565b61036491906108ea565b90508092505050919050565b600260009054906101000a900473ffffffffffffffffffffffffffffffffffffffff1681565b600080738a753747a1fa494ec906ce90e9f37563a8af630e905060008173ffffffffffffffffffffffffffffffffffffffff1663feaf968c6040518163ffffffff1660e01b815260040160a06040518083038186803b1580156103f857600080fd5b505afa15801561040c573d6000803e3d6000fd5b505050506040513d601f19601f8201168201806040525081019061043091906109a8565b5050509150506402540be400816104479190610a23565b9250505090565b60005461045a34610336565b101561049b576040517f08c379a000000000000000000000000000000000000000000000000000000000815260040161049290610b86565b60405180910390fd5b6001339080600181540180825580915050600190039060005260206000200160009091909190916101000a81548173ffffffffffffffffffffffffffffffffffffffff021916908373ffffffffffffffffffffffffffffffffffffffff160217905550565b6001818154811061051057600080fd5b906000526020600020016000915054906101000a900473ffffffffffffffffffffffffffffffffffffffff1681565b8280548282559060005260206000209081019282156105b8579160200282015b828111156105b75782518260006101000a81548173ffffffffffffffffffffffffffffffffffffffff021916908373ffffffffffffffffffffffffffffffffffffffff1602179055509160200191906001019061055f565b5b5090506105c591906105c9565b5090565b5b808211156105e25760008160009055506001016105ca565b5090565b6000819050919050565b6105f9816105e6565b82525050565b600060208201905061061460008301846105f0565b92915050565b600080fd5b610628816105e6565b811461063357600080fd5b50565b6000813590506106458161061f565b92915050565b6000602082840312156106615761066061061a565b5b600061066f84828501610636565b91505092915050565b600073ffffffffffffffffffffffffffffffffffffffff82169050919050565b60006106a382610678565b9050919050565b6106b381610698565b82525050565b60006020820190506106ce60008301846106aa565b92915050565b600082825260208201905092915050565b7f53656e646572206973206e6f74206f776e657200000000000000000000000000600082015250565b600061071b6013836106d4565b9150610726826106e5565b602082019050919050565b6000602082019050818103600083015261074a8161070e565b9050919050565b7f4e487b7100000000000000000000000000000000000000000000000000000000600052604160045260246000fd5b600081905092915050565b50565b600061079b600083610780565b91506107a68261078b565b600082019050919050565b60006107bc8261078e565b9150819050919050565b7f53656e64206661696c6564000000000000000000000000000000000000000000600082015250565b60006107fc600b836106d4565b9150610807826107c6565b602082019050919050565b6000602082019050818103600083015261082b816107ef565b9050919050565b7f4e487b7100000000000000000000000000000000000000000000000000000000600052601160045260246000fd5b600061086c826105e6565b9150610877836105e6565b9250817fffffffffffffffffffffffffffffffffffffffffffffffffffffffffffffffff04831182151516156108b0576108af610832565b5b828202905092915050565b7f4e487b7100000000000000000000000000000000000000000000000000000000600052601260045260246000fd5b60006108f5826105e6565b9150610900836105e6565b9250826109105761090f6108bb565b5b828204905092915050565b600069ffffffffffffffffffff82169050919050565b61093a8161091b565b811461094557600080fd5b50565b60008151905061095781610931565b92915050565b6000819050919050565b6109708161095d565b811461097b57600080fd5b50565b60008151905061098d81610967565b92915050565b6000815190506109a28161061f565b92915050565b600080600080600060a086880312156109c4576109c361061a565b5b60006109d288828901610948565b95505060206109e38882890161097e565b94505060406109f488828901610993565b9350506060610a0588828901610993565b9250506080610a1688828901610948565b9150509295509295909350565b6000610a2e8261095d565b9150610a398361095d565b9250827f7fffffffffffffffffffffffffffffffffffffffffffffffffffffffffffffff0482116000841360008413161615610a7857610a77610832565b5b817f80000000000000000000000000000000000000000000000000000000000000000583126000841260008413161615610ab557610ab4610832565b5b827f80000000000000000000000000000000000000000000000000000000000000000582126000841360008412161615610af257610af1610832565b5b827f7fffffffffffffffffffffffffffffffffffffffffffffffffffffffffffffff0582126000841260008412161615610b2f57610b2e610832565b5b828202905092915050565b7f4469646e27742073656e6420656e6f7567680000000000000000000000000000600082015250565b6000610b706012836106d4565b9150610b7b82610b3a565b602082019050919050565b60006020820190508181036000830152610b9f81610b63565b905091905056fea264697066735822122056830b132da8624c093a026508829bb15b457c7ac89d6f1261e38578aa68d48464736f6c63430008080033",
					"opcodes": "PUSH1 0x80 PUSH1 0x40 MSTORE PUSH9 0x2B5E3AF16B1880000 PUSH1 0x0 SSTORE CALLVALUE DUP1 ISZERO PUSH2 0x1D JUMPI PUSH1 0x0 DUP1 REVERT JUMPDEST POP CALLER PUSH1 0x2 PUSH1 0x0 PUSH2 0x100 EXP DUP2 SLOAD DUP2 PUSH20 0xFFFFFFFFFFFFFFFFFFFFFFFFFFFFFFFFFFFFFFFF MUL NOT AND SWAP1 DUP4 PUSH20 0xFFFFFFFFFFFFFFFFFFFFFFFFFFFFFFFFFFFFFFFF AND MUL OR SWAP1 SSTORE POP PUSH2 0xBDC DUP1 PUSH2 0x6E PUSH1 0x0 CODECOPY PUSH1 0x0 RETURN INVALID PUSH1 0x80 PUSH1 0x40 MSTORE PUSH1 0x4 CALLDATASIZE LT PUSH2 0x70 JUMPI PUSH1 0x0 CALLDATALOAD PUSH1 0xE0 SHR DUP1 PUSH4 0x8DA5CB5B GT PUSH2 0x4E JUMPI DUP1 PUSH4 0x8DA5CB5B EQ PUSH2 0xF4 JUMPI DUP1 PUSH4 0x98D5FDCA EQ PUSH2 0x11F JUMPI DUP1 PUSH4 0xB60D4288 EQ PUSH2 0x14A JUMPI DUP1 PUSH4 0xDC0D3DFF EQ PUSH2 0x154 JUMPI PUSH2 0x70 JUMP JUMPDEST DUP1 PUSH4 0x98DE820 EQ PUSH2 0x75 JUMPI DUP1 PUSH4 0x3CCFD60B EQ PUSH2 0xA0 JUMPI DUP1 PUSH4 0x6E5B6B28 EQ PUSH2 0xB7 JUMPI JUMPDEST PUSH1 0x0 DUP1 REVERT JUMPDEST CALLVALUE DUP1 ISZERO PUSH2 0x81 JUMPI PUSH1 0x0 DUP1 REVERT JUMPDEST POP PUSH2 0x8A PUSH2 0x191 JUMP JUMPDEST PUSH1 0x40 MLOAD PUSH2 0x97 SWAP2 SWAP1 PUSH2 0x5FF JUMP JUMPDEST PUSH1 0x40 MLOAD DUP1 SWAP2 SUB SWAP1 RETURN JUMPDEST CALLVALUE DUP1 ISZERO PUSH2 0xAC JUMPI PUSH1 0x0 DUP1 REVERT JUMPDEST POP PUSH2 0xB5 PUSH2 0x197 JUMP JUMPDEST STOP JUMPDEST CALLVALUE DUP1 ISZERO PUSH2 0xC3 JUMPI PUSH1 0x0 DUP1 REVERT JUMPDEST POP PUSH2 0xDE PUSH1 0x4 DUP1 CALLDATASIZE SUB DUP2 ADD SWAP1 PUSH2 0xD9 SWAP2 SWAP1 PUSH2 0x64B JUMP JUMPDEST PUSH2 0x336 JUMP JUMPDEST PUSH1 0x40 MLOAD PUSH2 0xEB SWAP2 SWAP1 PUSH2 0x5FF JUMP JUMPDEST PUSH1 0x40 MLOAD DUP1 SWAP2 SUB SWAP1 RETURN JUMPDEST CALLVALUE DUP1 ISZERO PUSH2 0x100 JUMPI PUSH1 0x0 DUP1 REVERT JUMPDEST POP PUSH2 0x109 PUSH2 0x370 JUMP JUMPDEST PUSH1 0x40 MLOAD PUSH2 0x116 SWAP2 SWAP1 PUSH2 0x6B9 JUMP JUMPDEST PUSH1 0x40 MLOAD DUP1 SWAP2 SUB SWAP1 RETURN JUMPDEST CALLVALUE DUP1 ISZERO PUSH2 0x12B JUMPI PUSH1 0x0 DUP1 REVERT JUMPDEST POP PUSH2 0x134 PUSH2 0x396 JUMP JUMPDEST PUSH1 0x40 MLOAD PUSH2 0x141 SWAP2 SWAP1 PUSH2 0x5FF JUMP JUMPDEST PUSH1 0x40 MLOAD DUP1 SWAP2 SUB SWAP1 RETURN JUMPDEST PUSH2 0x152 PUSH2 0x44E JUMP JUMPDEST STOP JUMPDEST CALLVALUE DUP1 ISZERO PUSH2 0x160 JUMPI PUSH1 0x0 DUP1 REVERT JUMPDEST POP PUSH2 0x17B PUSH1 0x4 DUP1 CALLDATASIZE SUB DUP2 ADD SWAP1 PUSH2 0x176 SWAP2 SWAP1 PUSH2 0x64B JUMP JUMPDEST PUSH2 0x500 JUMP JUMPDEST PUSH1 0x40 MLOAD PUSH2 0x188 SWAP2 SWAP1 PUSH2 0x6B9 JUMP JUMPDEST PUSH1 0x40 MLOAD DUP1 SWAP2 SUB SWAP1 RETURN JUMPDEST PUSH1 0x0 SLOAD DUP2 JUMP JUMPDEST PUSH1 0x2 PUSH1 0x0 SWAP1 SLOAD SWAP1 PUSH2 0x100 EXP SWAP1 DIV PUSH20 0xFFFFFFFFFFFFFFFFFFFFFFFFFFFFFFFFFFFFFFFF AND PUSH20 0xFFFFFFFFFFFFFFFFFFFFFFFFFFFFFFFFFFFFFFFF AND CALLER PUSH20 0xFFFFFFFFFFFFFFFFFFFFFFFFFFFFFFFFFFFFFFFF AND EQ PUSH2 0x227 JUMPI PUSH1 0x40 MLOAD PUSH32 0x8C379A000000000000000000000000000000000000000000000000000000000 DUP2 MSTORE PUSH1 0x4 ADD PUSH2 0x21E SWAP1 PUSH2 0x731 JUMP JUMPDEST PUSH1 0x40 MLOAD DUP1 SWAP2 SUB SWAP1 REVERT JUMPDEST PUSH1 0x0 PUSH8 0xFFFFFFFFFFFFFFFF DUP2 GT ISZERO PUSH2 0x242 JUMPI PUSH2 0x241 PUSH2 0x751 JUMP JUMPDEST JUMPDEST PUSH1 0x40 MLOAD SWAP1 DUP1 DUP3 MSTORE DUP1 PUSH1 0x20 MUL PUSH1 0x20 ADD DUP3 ADD PUSH1 0x40 MSTORE DUP1 ISZERO PUSH2 0x270 JUMPI DUP2 PUSH1 0x20 ADD PUSH1 0x20 DUP3 MUL DUP1 CALLDATASIZE DUP4 CALLDATACOPY DUP1 DUP3 ADD SWAP2 POP POP SWAP1 POP JUMPDEST POP PUSH1 0x1 SWAP1 DUP1 MLOAD SWAP1 PUSH1 0x20 ADD SWAP1 PUSH2 0x286 SWAP3 SWAP2 SWAP1 PUSH2 0x53F JUMP JUMPDEST POP PUSH1 0x0 CALLER PUSH20 0xFFFFFFFFFFFFFFFFFFFFFFFFFFFFFFFFFFFFFFFF AND SELFBALANCE PUSH1 0x40 MLOAD PUSH2 0x2AD SWAP1 PUSH2 0x7B1 JUMP JUMPDEST PUSH1 0x0 PUSH1 0x40 MLOAD DUP1 DUP4 SUB DUP2 DUP6 DUP8 GAS CALL SWAP3 POP POP POP RETURNDATASIZE DUP1 PUSH1 0x0 DUP2 EQ PUSH2 0x2EA JUMPI PUSH1 0x40 MLOAD SWAP2 POP PUSH1 0x1F NOT PUSH1 0x3F RETURNDATASIZE ADD AND DUP3 ADD PUSH1 0x40 MSTORE RETURNDATASIZE DUP3 MSTORE RETURNDATASIZE PUSH1 0x0 PUSH1 0x20 DUP5 ADD RETURNDATACOPY PUSH2 0x2EF JUMP JUMPDEST PUSH1 0x60 SWAP2 POP JUMPDEST POP POP SWAP1 POP DUP1 PUSH2 0x333 JUMPI PUSH1 0x40 MLOAD PUSH32 0x8C379A000000000000000000000000000000000000000000000000000000000 DUP2 MSTORE PUSH1 0x4 ADD PUSH2 0x32A SWAP1 PUSH2 0x812 JUMP JUMPDEST PUSH1 0x40 MLOAD DUP1 SWAP2 SUB SWAP1 REVERT JUMPDEST POP JUMP JUMPDEST PUSH1 0x0 DUP1 PUSH2 0x341 PUSH2 0x396 JUMP JUMPDEST SWAP1 POP PUSH1 0x0 PUSH8 0xDE0B6B3A7640000 DUP5 DUP4 PUSH2 0x35A SWAP2 SWAP1 PUSH2 0x861 JUMP JUMPDEST PUSH2 0x364 SWAP2 SWAP1 PUSH2 0x8EA JUMP JUMPDEST SWAP1 POP DUP1 SWAP3 POP POP POP SWAP2 SWAP1 POP JUMP JUMPDEST PUSH1 0x2 PUSH1 0x0 SWAP1 SLOAD SWAP1 PUSH2 0x100 EXP SWAP1 DIV PUSH20 0xFFFFFFFFFFFFFFFFFFFFFFFFFFFFFFFFFFFFFFFF AND DUP2 JUMP JUMPDEST PUSH1 0x0 DUP1 PUSH20 0x8A753747A1FA494EC906CE90E9F37563A8AF630E SWAP1 POP PUSH1 0x0 DUP2 PUSH20 0xFFFFFFFFFFFFFFFFFFFFFFFFFFFFFFFFFFFFFFFF AND PUSH4 0xFEAF968C PUSH1 0x40 MLOAD DUP2 PUSH4 0xFFFFFFFF AND PUSH1 0xE0 SHL DUP2 MSTORE PUSH1 0x4 ADD PUSH1 0xA0 PUSH1 0x40 MLOAD DUP1 DUP4 SUB DUP2 DUP7 DUP1 EXTCODESIZE ISZERO DUP1 ISZERO PUSH2 0x3F8 JUMPI PUSH1 0x0 DUP1 REVERT JUMPDEST POP GAS STATICCALL ISZERO DUP1 ISZERO PUSH2 0x40C JUMPI RETURNDATASIZE PUSH1 0x0 DUP1 RETURNDATACOPY RETURNDATASIZE PUSH1 0x0 REVERT JUMPDEST POP POP POP POP PUSH1 0x40 MLOAD RETURNDATASIZE PUSH1 0x1F NOT PUSH1 0x1F DUP3 ADD AND DUP3 ADD DUP1 PUSH1 0x40 MSTORE POP DUP2 ADD SWAP1 PUSH2 0x430 SWAP2 SWAP1 PUSH2 0x9A8 JUMP JUMPDEST POP POP POP SWAP2 POP POP PUSH5 0x2540BE400 DUP2 PUSH2 0x447 SWAP2 SWAP1 PUSH2 0xA23 JUMP JUMPDEST SWAP3 POP POP POP SWAP1 JUMP JUMPDEST PUSH1 0x0 SLOAD PUSH2 0x45A CALLVALUE PUSH2 0x336 JUMP JUMPDEST LT ISZERO PUSH2 0x49B JUMPI PUSH1 0x40 MLOAD PUSH32 0x8C379A000000000000000000000000000000000000000000000000000000000 DUP2 MSTORE PUSH1 0x4 ADD PUSH2 0x492 SWAP1 PUSH2 0xB86 JUMP JUMPDEST PUSH1 0x40 MLOAD DUP1 SWAP2 SUB SWAP1 REVERT JUMPDEST PUSH1 0x1 CALLER SWAP1 DUP1 PUSH1 0x1 DUP2 SLOAD ADD DUP1 DUP3 SSTORE DUP1 SWAP2 POP POP PUSH1 0x1 SWAP1 SUB SWAP1 PUSH1 0x0 MSTORE PUSH1 0x20 PUSH1 0x0 KECCAK256 ADD PUSH1 0x0 SWAP1 SWAP2 SWAP1 SWAP2 SWAP1 SWAP2 PUSH2 0x100 EXP DUP2 SLOAD DUP2 PUSH20 0xFFFFFFFFFFFFFFFFFFFFFFFFFFFFFFFFFFFFFFFF MUL NOT AND SWAP1 DUP4 PUSH20 0xFFFFFFFFFFFFFFFFFFFFFFFFFFFFFFFFFFFFFFFF AND MUL OR SWAP1 SSTORE POP JUMP JUMPDEST PUSH1 0x1 DUP2 DUP2 SLOAD DUP2 LT PUSH2 0x510 JUMPI PUSH1 0x0 DUP1 REVERT JUMPDEST SWAP1 PUSH1 0x0 MSTORE PUSH1 0x20 PUSH1 0x0 KECCAK256 ADD PUSH1 0x0 SWAP2 POP SLOAD SWAP1 PUSH2 0x100 EXP SWAP1 DIV PUSH20 0xFFFFFFFFFFFFFFFFFFFFFFFFFFFFFFFFFFFFFFFF AND DUP2 JUMP JUMPDEST DUP3 DUP1 SLOAD DUP3 DUP3 SSTORE SWAP1 PUSH1 0x0 MSTORE PUSH1 0x20 PUSH1 0x0 KECCAK256 SWAP1 DUP2 ADD SWAP3 DUP3 ISZERO PUSH2 0x5B8 JUMPI SWAP2 PUSH1 0x20 MUL DUP3 ADD JUMPDEST DUP3 DUP2 GT ISZERO PUSH2 0x5B7 JUMPI DUP3 MLOAD DUP3 PUSH1 0x0 PUSH2 0x100 EXP DUP2 SLOAD DUP2 PUSH20 0xFFFFFFFFFFFFFFFFFFFFFFFFFFFFFFFFFFFFFFFF MUL NOT AND SWAP1 DUP4 PUSH20 0xFFFFFFFFFFFFFFFFFFFFFFFFFFFFFFFFFFFFFFFF AND MUL OR SWAP1 SSTORE POP SWAP2 PUSH1 0x20 ADD SWAP2 SWAP1 PUSH1 0x1 ADD SWAP1 PUSH2 0x55F JUMP JUMPDEST JUMPDEST POP SWAP1 POP PUSH2 0x5C5 SWAP2 SWAP1 PUSH2 0x5C9 JUMP JUMPDEST POP SWAP1 JUMP JUMPDEST JUMPDEST DUP1 DUP3 GT ISZERO PUSH2 0x5E2 JUMPI PUSH1 0x0 DUP2 PUSH1 0x0 SWAP1 SSTORE POP PUSH1 0x1 ADD PUSH2 0x5CA JUMP JUMPDEST POP SWAP1 JUMP JUMPDEST PUSH1 0x0 DUP2 SWAP1 POP SWAP2 SWAP1 POP JUMP JUMPDEST PUSH2 0x5F9 DUP2 PUSH2 0x5E6 JUMP JUMPDEST DUP3 MSTORE POP POP JUMP JUMPDEST PUSH1 0x0 PUSH1 0x20 DUP3 ADD SWAP1 POP PUSH2 0x614 PUSH1 0x0 DUP4 ADD DUP5 PUSH2 0x5F0 JUMP JUMPDEST SWAP3 SWAP2 POP POP JUMP JUMPDEST PUSH1 0x0 DUP1 REVERT JUMPDEST PUSH2 0x628 DUP2 PUSH2 0x5E6 JUMP JUMPDEST DUP2 EQ PUSH2 0x633 JUMPI PUSH1 0x0 DUP1 REVERT JUMPDEST POP JUMP JUMPDEST PUSH1 0x0 DUP2 CALLDATALOAD SWAP1 POP PUSH2 0x645 DUP2 PUSH2 0x61F JUMP JUMPDEST SWAP3 SWAP2 POP POP JUMP JUMPDEST PUSH1 0x0 PUSH1 0x20 DUP3 DUP5 SUB SLT ISZERO PUSH2 0x661 JUMPI PUSH2 0x660 PUSH2 0x61A JUMP JUMPDEST JUMPDEST PUSH1 0x0 PUSH2 0x66F DUP5 DUP3 DUP6 ADD PUSH2 0x636 JUMP JUMPDEST SWAP2 POP POP SWAP3 SWAP2 POP POP JUMP JUMPDEST PUSH1 0x0 PUSH20 0xFFFFFFFFFFFFFFFFFFFFFFFFFFFFFFFFFFFFFFFF DUP3 AND SWAP1 POP SWAP2 SWAP1 POP JUMP JUMPDEST PUSH1 0x0 PUSH2 0x6A3 DUP3 PUSH2 0x678 JUMP JUMPDEST SWAP1 POP SWAP2 SWAP1 POP JUMP JUMPDEST PUSH2 0x6B3 DUP2 PUSH2 0x698 JUMP JUMPDEST DUP3 MSTORE POP POP JUMP JUMPDEST PUSH1 0x0 PUSH1 0x20 DUP3 ADD SWAP1 POP PUSH2 0x6CE PUSH1 0x0 DUP4 ADD DUP5 PUSH2 0x6AA JUMP JUMPDEST SWAP3 SWAP2 POP POP JUMP JUMPDEST PUSH1 0x0 DUP3 DUP3 MSTORE PUSH1 0x20 DUP3 ADD SWAP1 POP SWAP3 SWAP2 POP POP JUMP JUMPDEST PUSH32 0x53656E646572206973206E6F74206F776E657200000000000000000000000000 PUSH1 0x0 DUP3 ADD MSTORE POP JUMP JUMPDEST PUSH1 0x0 PUSH2 0x71B PUSH1 0x13 DUP4 PUSH2 0x6D4 JUMP JUMPDEST SWAP2 POP PUSH2 0x726 DUP3 PUSH2 0x6E5 JUMP JUMPDEST PUSH1 0x20 DUP3 ADD SWAP1 POP SWAP2 SWAP1 POP JUMP JUMPDEST PUSH1 0x0 PUSH1 0x20 DUP3 ADD SWAP1 POP DUP2 DUP2 SUB PUSH1 0x0 DUP4 ADD MSTORE PUSH2 0x74A DUP2 PUSH2 0x70E JUMP JUMPDEST SWAP1 POP SWAP2 SWAP1 POP JUMP JUMPDEST PUSH32 0x4E487B7100000000000000000000000000000000000000000000000000000000 PUSH1 0x0 MSTORE PUSH1 0x41 PUSH1 0x4 MSTORE PUSH1 0x24 PUSH1 0x0 REVERT JUMPDEST PUSH1 0x0 DUP2 SWAP1 POP SWAP3 SWAP2 POP POP JUMP JUMPDEST POP JUMP JUMPDEST PUSH1 0x0 PUSH2 0x79B PUSH1 0x0 DUP4 PUSH2 0x780 JUMP JUMPDEST SWAP2 POP PUSH2 0x7A6 DUP3 PUSH2 0x78B JUMP JUMPDEST PUSH1 0x0 DUP3 ADD SWAP1 POP SWAP2 SWAP1 POP JUMP JUMPDEST PUSH1 0x0 PUSH2 0x7BC DUP3 PUSH2 0x78E JUMP JUMPDEST SWAP2 POP DUP2 SWAP1 POP SWAP2 SWAP1 POP JUMP JUMPDEST PUSH32 0x53656E64206661696C6564000000000000000000000000000000000000000000 PUSH1 0x0 DUP3 ADD MSTORE POP JUMP JUMPDEST PUSH1 0x0 PUSH2 0x7FC PUSH1 0xB DUP4 PUSH2 0x6D4 JUMP JUMPDEST SWAP2 POP PUSH2 0x807 DUP3 PUSH2 0x7C6 JUMP JUMPDEST PUSH1 0x20 DUP3 ADD SWAP1 POP SWAP2 SWAP1 POP JUMP JUMPDEST PUSH1 0x0 PUSH1 0x20 DUP3 ADD SWAP1 POP DUP2 DUP2 SUB PUSH1 0x0 DUP4 ADD MSTORE PUSH2 0x82B DUP2 PUSH2 0x7EF JUMP JUMPDEST SWAP1 POP SWAP2 SWAP1 POP JUMP JUMPDEST PUSH32 0x4E487B7100000000000000000000000000000000000000000000000000000000 PUSH1 0x0 MSTORE PUSH1 0x11 PUSH1 0x4 MSTORE PUSH1 0x24 PUSH1 0x0 REVERT JUMPDEST PUSH1 0x0 PUSH2 0x86C DUP3 PUSH2 0x5E6 JUMP JUMPDEST SWAP2 POP PUSH2 0x877 DUP4 PUSH2 0x5E6 JUMP JUMPDEST SWAP3 POP DUP2 PUSH32 0xFFFFFFFFFFFFFFFFFFFFFFFFFFFFFFFFFFFFFFFFFFFFFFFFFFFFFFFFFFFFFFFF DIV DUP4 GT DUP3 ISZERO ISZERO AND ISZERO PUSH2 0x8B0 JUMPI PUSH2 0x8AF PUSH2 0x832 JUMP JUMPDEST JUMPDEST DUP3 DUP3 MUL SWAP1 POP SWAP3 SWAP2 POP POP JUMP JUMPDEST PUSH32 0x4E487B7100000000000000000000000000000000000000000000000000000000 PUSH1 0x0 MSTORE PUSH1 0x12 PUSH1 0x4 MSTORE PUSH1 0x24 PUSH1 0x0 REVERT JUMPDEST PUSH1 0x0 PUSH2 0x8F5 DUP3 PUSH2 0x5E6 JUMP JUMPDEST SWAP2 POP PUSH2 0x900 DUP4 PUSH2 0x5E6 JUMP JUMPDEST SWAP3 POP DUP3 PUSH2 0x910 JUMPI PUSH2 0x90F PUSH2 0x8BB JUMP JUMPDEST JUMPDEST DUP3 DUP3 DIV SWAP1 POP SWAP3 SWAP2 POP POP JUMP JUMPDEST PUSH1 0x0 PUSH10 0xFFFFFFFFFFFFFFFFFFFF DUP3 AND SWAP1 POP SWAP2 SWAP1 POP JUMP JUMPDEST PUSH2 0x93A DUP2 PUSH2 0x91B JUMP JUMPDEST DUP2 EQ PUSH2 0x945 JUMPI PUSH1 0x0 DUP1 REVERT JUMPDEST POP JUMP JUMPDEST PUSH1 0x0 DUP2 MLOAD SWAP1 POP PUSH2 0x957 DUP2 PUSH2 0x931 JUMP JUMPDEST SWAP3 SWAP2 POP POP JUMP JUMPDEST PUSH1 0x0 DUP2 SWAP1 POP SWAP2 SWAP1 POP JUMP JUMPDEST PUSH2 0x970 DUP2 PUSH2 0x95D JUMP JUMPDEST DUP2 EQ PUSH2 0x97B JUMPI PUSH1 0x0 DUP1 REVERT JUMPDEST POP JUMP JUMPDEST PUSH1 0x0 DUP2 MLOAD SWAP1 POP PUSH2 0x98D DUP2 PUSH2 0x967 JUMP JUMPDEST SWAP3 SWAP2 POP POP JUMP JUMPDEST PUSH1 0x0 DUP2 MLOAD SWAP1 POP PUSH2 0x9A2 DUP2 PUSH2 0x61F JUMP JUMPDEST SWAP3 SWAP2 POP POP JUMP JUMPDEST PUSH1 0x0 DUP1 PUSH1 0x0 DUP1 PUSH1 0x0 PUSH1 0xA0 DUP7 DUP9 SUB SLT ISZERO PUSH2 0x9C4 JUMPI PUSH2 0x9C3 PUSH2 0x61A JUMP JUMPDEST JUMPDEST PUSH1 0x0 PUSH2 0x9D2 DUP9 DUP3 DUP10 ADD PUSH2 0x948 JUMP JUMPDEST SWAP6 POP POP PUSH1 0x20 PUSH2 0x9E3 DUP9 DUP3 DUP10 ADD PUSH2 0x97E JUMP JUMPDEST SWAP5 POP POP PUSH1 0x40 PUSH2 0x9F4 DUP9 DUP3 DUP10 ADD PUSH2 0x993 JUMP JUMPDEST SWAP4 POP POP PUSH1 0x60 PUSH2 0xA05 DUP9 DUP3 DUP10 ADD PUSH2 0x993 JUMP JUMPDEST SWAP3 POP POP PUSH1 0x80 PUSH2 0xA16 DUP9 DUP3 DUP10 ADD PUSH2 0x948 JUMP JUMPDEST SWAP2 POP POP SWAP3 SWAP6 POP SWAP3 SWAP6 SWAP1 SWAP4 POP JUMP JUMPDEST PUSH1 0x0 PUSH2 0xA2E DUP3 PUSH2 0x95D JUMP JUMPDEST SWAP2 POP PUSH2 0xA39 DUP4 PUSH2 0x95D JUMP JUMPDEST SWAP3 POP DUP3 PUSH32 0x7FFFFFFFFFFFFFFFFFFFFFFFFFFFFFFFFFFFFFFFFFFFFFFFFFFFFFFFFFFFFFFF DIV DUP3 GT PUSH1 0x0 DUP5 SGT PUSH1 0x0 DUP5 SGT AND AND ISZERO PUSH2 0xA78 JUMPI PUSH2 0xA77 PUSH2 0x832 JUMP JUMPDEST JUMPDEST DUP2 PUSH32 0x8000000000000000000000000000000000000000000000000000000000000000 SDIV DUP4 SLT PUSH1 0x0 DUP5 SLT PUSH1 0x0 DUP5 SGT AND AND ISZERO PUSH2 0xAB5 JUMPI PUSH2 0xAB4 PUSH2 0x832 JUMP JUMPDEST JUMPDEST DUP3 PUSH32 0x8000000000000000000000000000000000000000000000000000000000000000 SDIV DUP3 SLT PUSH1 0x0 DUP5 SGT PUSH1 0x0 DUP5 SLT AND AND ISZERO PUSH2 0xAF2 JUMPI PUSH2 0xAF1 PUSH2 0x832 JUMP JUMPDEST JUMPDEST DUP3 PUSH32 0x7FFFFFFFFFFFFFFFFFFFFFFFFFFFFFFFFFFFFFFFFFFFFFFFFFFFFFFFFFFFFFFF SDIV DUP3 SLT PUSH1 0x0 DUP5 SLT PUSH1 0x0 DUP5 SLT AND AND ISZERO PUSH2 0xB2F JUMPI PUSH2 0xB2E PUSH2 0x832 JUMP JUMPDEST JUMPDEST DUP3 DUP3 MUL SWAP1 POP SWAP3 SWAP2 POP POP JUMP JUMPDEST PUSH32 0x4469646E27742073656E6420656E6F7567680000000000000000000000000000 PUSH1 0x0 DUP3 ADD MSTORE POP JUMP JUMPDEST PUSH1 0x0 PUSH2 0xB70 PUSH1 0x12 DUP4 PUSH2 0x6D4 JUMP JUMPDEST SWAP2 POP PUSH2 0xB7B DUP3 PUSH2 0xB3A JUMP JUMPDEST PUSH1 0x20 DUP3 ADD SWAP1 POP SWAP2 SWAP1 POP JUMP JUMPDEST PUSH1 0x0 PUSH1 0x20 DUP3 ADD SWAP1 POP DUP2 DUP2 SUB PUSH1 0x0 DUP4 ADD MSTORE PUSH2 0xB9F DUP2 PUSH2 0xB63 JUMP JUMPDEST SWAP1 POP SWAP2 SWAP1 POP JUMP INVALID LOG2 PUSH5 0x6970667358 0x22 SLT KECCAK256 JUMP DUP4 SIGNEXTEND SGT 0x2D 0xA8 PUSH3 0x4C093A MUL PUSH6 0x8829BB15B45 PUSH29 0x7AC89D6F1261E38578AA68D48464736F6C634300080800330000000000 "
				},
				"gasEstimates": {
					"creation": {
						"codeDepositCost": "607200",
						"executionCost": "47010",
						"totalCost": "654210"
					},
					"external": {
						"fund()": "infinite",
						"funders(uint256)": "5022",
						"getConversionRate(uint256)": "infinite",
						"getPrice()": "infinite",
						"minimumUsd()": "2430",
						"owner()": "2514",
						"withdraw()": "infinite"
					}
				},
				"methodIdentifiers": {
					"fund()": "b60d4288",
					"funders(uint256)": "dc0d3dff",
					"getConversionRate(uint256)": "6e5b6b28",
					"getPrice()": "98d5fdca",
					"minimumUsd()": "098de820",
					"owner()": "8da5cb5b",
					"withdraw()": "3ccfd60b"
				}
			},
			"storageLayout": {
				"storage": [
					{
						"astId": 53,
						"contract": "contracts/FundMe.sol:FundMe",
						"label": "minimumUsd",
						"offset": 0,
						"slot": "0",
						"type": "t_uint256"
					},
					{
						"astId": 56,
						"contract": "contracts/FundMe.sol:FundMe",
						"label": "funders",
						"offset": 0,
						"slot": "1",
						"type": "t_array(t_address)dyn_storage"
					},
					{
						"astId": 58,
						"contract": "contracts/FundMe.sol:FundMe",
						"label": "owner",
						"offset": 0,
						"slot": "2",
						"type": "t_address"
					}
				],
				"types": {
					"t_address": {
						"encoding": "inplace",
						"label": "address",
						"numberOfBytes": "20"
					},
					"t_array(t_address)dyn_storage": {
						"base": "t_address",
						"encoding": "dynamic_array",
						"label": "address[]",
						"numberOfBytes": "32"
					},
					"t_uint256": {
						"encoding": "inplace",
						"label": "uint256",
						"numberOfBytes": "32"
					}
				}
			},
			"userdoc": {
				"kind": "user",
				"methods": {},
				"version": 1
			}
		}
	}
}